:10C0000000100010818C0100E98C0100757B01009B
:10C01000EB8C0100EB8C0100EB8C010000000000B8
:10C02000000000000000000000000000ED8C010096
:10C03000ED8C010000000000ED8C0100ED8C010092
:10C04000ED8C0100ED8C0100ED8C0100ED8C010008
:10C05000ED8C0100ED8C0100ED8C0100ED8C0100F8
:10C06000ED8C0100ED8C0100ED8C0100ED8C0100E8
:10C07000ED8C01003991010041930100AD78010080
:10C08000ED8C0100ED8C0100ED8C0100ED8C0100C8
:10C09000ED8C0100ED8C0100ED8C0100ED8C0100B8
:10C0A000ED8C0100ED8C0100ED8C0100ED8C0100A8
:10C0B000ED8C0100ED8C0100ED8C0100ED8C010098
:10C0C0000000000000000000000000000000000070
:10C0D0000000000000000000000000000000000060
:10C0E0000000000000000000000000000000000050
:10C0F0000000000000000000000000000000000040
:10C1000010EE102AC2F3C7537F3B162B22F00041DA
:10C1100032DC002B104618DB1A4919410A422AD09A
:10C12000DFED197A70EE277AF5EEC07AF1EE10FAAB
:10C1300021DD002A04DD4FF4000242FA03F3184423
:10C1400020EA010300EE103A7047DFED0F7A70EE3F
:10C15000277AF5EEC07AF1EE10FA0CDD002A08DB42
:10C16000DFED0A7A0029B7EE000A08BFB0EE670AD1
:10C1700070479FED070A7047B1F1FF4FFBD330EED8
:10C18000000A7047FFFF7F00CAF2497100000000FB
:10C1900000000080024B1B680022C3E926027047A2
:10C1A000001000100C4B0D4819680D4AD1F898305A
:10C1B00010B4D1F89C4003FB00F002FB0400A3FB89
:10C1C0000232013340EB0200C1E926305DF8044B36
:10C1D00020F00040704700BF001000102DF45158AF
:10C1E0002D7F954C000000000000000000000000C2
:10C1F000000000000000000000000000000000003F
:10C2000030B490F800F020F007016FF0000C10F04F
:10C21000070491F820F040F048804FF000046FF0E0
:10C220000700D1E9002391F840F000F1080082FAFC
:10C230004CF2A4FA8CF283FA4CF3A2FA8CF34BBBC7
:10C24000D1E9022382FA4CF200F10800A4FA8CF240
:10C2500083FA4CF3A2FA8CF3E3B9D1E9042382FA0E
:10C260004CF200F10800A4FA8CF283FA4CF3A2FA23
:10C270008CF37BB9D1E9062301F1200182FA4CF25B
:10C2800000F10800A4FA8CF283FA4CF3A2FA8CF3C2
:10C29000002BC6D0002A04BF04301A4612BAB2FAE4
:10C2A00082F200EBD20030BC7047D1E9002304F0E9
:10C2B0000305C4F100004FEAC50514F0040F91F81E
:10C2C00040F00CFA05F562EA05021CBF63EA0503BB
:10C2D00062464FF00004AAE7830730B547D0541EEA
:10C2E000002A3ED0CAB2034601E0013C39D303F82C
:10C2F000012B9D07F9D1032C2CD9CDB205EB0525D7
:10C300000F2C05EB054535D9A4F1100222F00F0CD6
:10C3100003F1100EE6444FEA121C1A46C2E900551A
:10C32000C2E9025510327245F8D10CF1010214F045
:10C330000C0F03EB021204F00F0C13D0ACF104034A
:10C3400023F003030433134442F8045B9342FBD10C
:10C350000CF003042CB1C9B21C4403F8011BA34226
:10C36000FBD130BD64461346002CF4D1F9E70346F7
:10C370001446C0E71A46A446E0E700BF024A126826
:10C380000123503200F048BB001000100EB470B50D
:10C390009DB021AC00254FF4017254F8046BADF848
:10C3A00014201B9502900690FFF72AFF0B4B0A936F
:10C3B0000B4B03904FF6FF710790ADF816101868FD
:10C3C0000E953246234602A91395019400F05AFBBC
:10C3D0001DB0BDE8704003B0704700BF3DDF0000F6
:10C3E000001000100CB4F0B59DB022AC00254FF445
:10C3F00001730646084654F8047BADF814300291E8
:10C4000006911B95FFF7FCFE0346039307930A4B27
:10C410000A934FF6FF73ADF816303A46304623467E
:10C4200002A90E951395019400F02CFB1DB0BDE8F8
:10C43000F04002B0704700BF3DDF000011F0FF0187
:10C44000034600F0030239D08ABB026810B501EB45
:10C45000012E0EEB0E4E8EEA0204A2F1013323EA06
:10C460000203A4F1013222EA0402134313F0803FD5
:10C470000FD150F8044F84EA0E0CA4F10133ACF153
:10C48000013223EA040322EA0C02134313F0803F33
:10C49000EFD0037823B936E010F8013F002B32D0FB
:10C4A0009942F9D110BD8A4228D09A0729D01A782A
:10C4B00018460133002AF6D110467047CAB90268FF
:10C4C000A2F1013323EA020313F0803F08D150F8B0
:10C4D000042FA2F1013323EA020313F0803FF6D0C8
:10C4E00003785BB110F8013F002BFBD1704799072F
:10C4F00005D0184613F8012B002AF8D170471846CA
:10C50000DDE71846A1E7184610BD00BF0000000097
:10C51000000000000000000000000000000000001B
:10C5200002780B78012A28BF9A4240F0D8806DE942
:10C53000044540EA0104CDE902676FF0000C4FEAC0
:10C5400044721AB380EA010414F0070F6BD100F0B3
:10C55000070420F0070004F0030521F007014FEA6B
:10C56000C505F0E8042314F0040FF1E804670CFAA1
:10C5700005F462EA040266EA04060BD063EA0403E7
:10C58000624667EA0407664604E000BFF0E8042359
:10C59000F1E8046782FA4CF582EA0604A4FA8CF406
:10C5A0006CBB83FA4CF583EA0705A5FA8CF595B9BF
:10C5B00050E9022351E9026782FA4CF582EA060447
:10C5C000A4FA8CF483FA4CF583EA0705A5FA8CF5F6
:10C5D0002543DBD09CB92DBAB5FA85F424F00704C5
:10C5E00027FA04F1DDE9026723FA04F303F0FF0000
:10C5F00001F0FF01FDE80445A0EB0100704724BAFB
:10C60000B4FA84F424F0070426FA04F1DDE90267A1
:10C6100022FA04F202F0FF0001F0FF01FDE80445F8
:10C62000A0EB0100704714F0030F3CD110F003049D
:10C6300028D150F8082B51F8083B82FA4CF582EAD1
:10C640000305A5FA8CF55DB950F8042C51F8043CAB
:10C6500082FA4CF582EA0305A5FA8CF5002DE8D0A4
:10C660002DBAB5FA85F424F0070423FA04F122FA6E
:10C6700004F202F0FF0001F0FF01FDE80445A0EB29
:10C68000010070474FEAC40420F0030050F8082B63
:10C6900021F0030151F8083B0CFA04F462EA0402A9
:10C6A00063EA0403C9E710F003041DD0A1EB040101
:10C6B00020F00300E40750F8042B06D012D28B7848
:10C6C0005FFAA2F4E41A06D12BB1CB785FFAB2F488
:10C6D000E41A00D133B920465DF8104B7047A2EB45
:10C6E0000300704701F1040150F8042BCC0721F03E
:10C6F000030151F8043B48D824D222F07F4482FA47
:10C700004CF594EA1325A5FA8CF50AD165B951F8D0
:10C71000043B84EA0204B4EB036F0ED150F8042BFF
:10C72000EBE74FEA132355E035F07F454DD108780C
:10C73000FDE80445C0F1000070474FEA126203F0C3
:10C74000FF0347E002EA1C4482FA4CF594EA1345E1
:10C75000A5FA8CF50AD165B951F8043B84EA0204C4
:10C76000B4EB034F0CD150F8042BEBE74FEA134323
:10C7700030E015EA1C4528D10B884FEA124229E027
:10C780004FEA124203EA1C4324E002F0FF0482FA5B
:10C790004CF594EA1365A5FA8CF50AD165B951F800
:10C7A000043B84EA0204B4EB032F09D150F8042BB4
:10C7B000EBE74FEA13630DE015F0FF0F05D10B68AF
:10C7C0004FEA122223F07F4304E04FF00000FDE81F
:10C7D0000445704712BA1BBA82FA4CF482EA030489
:10C7E000A4FA8CF5B5FA85F402FA04F203FA04F31C
:10C7F0004FEA1260FDE80445A0EB1360704700BFEC
:10C800002DE9F047074649480E46354616F801EB34
:10C8100010F80EC01CF0080CF7D1BEF12D0F5AD045
:10C82000BEF12B0F03BF96F800E06446AE1C6446D1
:10C830004BB9BEF1300F5CD00A23DFF8F4804FF023
:10C84000050A99460AE0102B4AD04FF0FF38B8FB92
:10C85000F3F803FB08FA6FEA0A0A9946002528460E
:10C8600005E02CD009FB00C0012516F801EBAEF164
:10C87000300CBCF1090F06D9AEF1410CBCF1190F17
:10C880000BD8AEF1370C634510DDB5F1FF3FECD0AE
:10C890004045E6D94FF0FF35E7E7AEF1610CBCF15A
:10C8A000190F03D8AEF1570C6345EEDC6B1C0BD0AF
:10C8B00004B140420AB165B91160BDE8F087D445C2
:10C8C000D0DD4FF0FF35D0E722233B602846002A19
:10C8D000F3D0711EF0E796F800E00124AE1CA7E744
:10C8E000BEF1300F11D04FF00F0A6FF0704899462B
:10C8F000B4E7337803F0DF03582B0BD008234FF055
:10C90000070A6FF060489946A8E7307800F0DF002A
:10C910005828E8D14FF0100996F801E04FF00F0ABF
:10C9200002366FF070484B4698E700BF9D970300B2
:10C930009999991964E700BF10B4044C84461346D2
:10C9400020685DF8044B0A46614659E70010001064
:10C9500010B4044C8446134620685DF8044B0A4624
:10C9600061464DE70010001070B59AB013460A4EAC
:10C970000A466FF00041029105910849039104466F
:10C9800000253068199569460094049404F09CF8D9
:10C99000009B1D701AB070BD001000100802FFFF50
:10C9A00010B59AB00024009104916FF000410291FB
:10C9B0000591054903916946199404F085F8009B97
:10C9C0001C701AB010BD00BF0802FFFF10B4114C5C
:10C9D00084461CF8013B11F8010BE25C02F00302F3
:10C9E000012A225C02F0030208BF2033012A06D08C
:10C9F0001B1A0AD10028ECD15DF8044B7047203097
:10CA0000181AE6D05DF8044B704718465DF8044BE1
:10CA1000704700BF9D97030018B3F0B407468C46DB
:10CA200017F8015B01E0A54214D01CF8014B002C63
:10CA3000F9D1DDB13E460C4616F8015B00E063B16A
:10CA400014F8013B9D42FAD14DB100233B701660B2
:10CA5000F0BC704773B13846E0E73746EAE72E4648
:10CA6000F5E710680028D8D1002070471560002035
:10CA7000F0BC704717600370EAE700BF0123FFF7BF
:10CA8000CBBF00BF2DE9F04F8946B1F90C10ADF5D1
:10CA90002F7D804688040693D9F8643007D441F48A
:10CAA000005123F40053A9F80C10C9F86430C3F303
:10CAB00040319B0400F1C080164616F8013B1193EB
:10CAC000002B00F0F486DFF854A70A918E460591FA
:10CAD0008B46039107911AF8034014F008046FD1B4
:10CAE000252B5DD131782246A1F12503701C532BF3
:10CAF00061D8DFE813F0540060006000600060005F
:10CB0000530460006000600060006000A500A500A4
:10CB1000A500A500A500A500A500A500A500A500ED
:10CB20006000600060006000600060006000600005
:10CB300060006000C303B0006000B00060006000EF
:10CB4000600060003F0460006000B70360006000A8
:10CB5000600060006000600060006000950360009D
:10CB600060004804600060006000600060006000D9
:10CB70006000CC03D603B000B000B000D803E003DF
:10CB8000600060001A046000260473063B04600025
:10CB90006000C003600075066000600095030646F3
:10CBA000D9F80430002B3BDDD9F8003016F8012C01
:10CBB0001978914221D003980DF52F7DBDE8F08FB3
:10CBC000D9F804200FE0D9F800301A781AF80220BA
:10CBD000170703F101030ED5D9F80420013AC9E97A
:10CBE00000320BF1010B002AEDDC4946404601F012
:10CBF000CFFB0028E7D002960AE00133C9F80030E5
:10CC0000D9F804300296013B0BF1010BC9F804304E
:10CC1000029E16F8013B1193002B7FF45CAFCAE72C
:10CC20004946404601F0B4FB0028BDD0039B1BB130
:10CC3000B9F80C305B06BED54FF0FF330393BAE76B
:10CC400014F08F0FB7D102EB820201EB4202303AAF
:10CC50007178064648E702900425D9F80430002B85
:10CC600000F3368349464046049201F091FB0028C8
:10CC7000DCD114F0400F049A00F02A836B1E032BC2
:10CC800000F2A286DFE813F0B1016C01B4000400E9
:10CC90004046049202F0ECFD049A03680C93531E84
:10CCA000B3F5AE7F44F4F06440F28C846FF4AE7060
:10CCB00013180F9340F25D12002556ABCDE90D55C8
:10CCC0002E4604950B95CDF820800993C8461F4643
:10CCD000A94625461446D8F800000378A3F12B0C8A
:10CCE000BCF14E0F50D8DFE81CF03B024F003B0276
:10CCF0004F004F0085027B007B007B007B007B00A8
:10CD00007B007B007B007B004F004F004F004F00FB
:10CD10004F004F004F0041027900790079001F0257
:10CD200014024F004F00C3014F004F004F004F004F
:10CD300071024F006E024F004F004F0069024F001A
:10CD40004F004F0053024E024F004F004F004F0064
:10CD50004F004F004F0041027900790079001F0217
:10CD600014024F004F00C3014F004F004F004F000F
:10CD700071024F006E024F004F004F0069024F00DA
:10CD80004F004F0053024E020C9A92F800C09C458F
:10CD900017D1AA0515D5049A0B9225F4207507F82A
:10CDA000013B013CD8F80430013B002B0BF1010B97
:10CDB000C8F8043040F307830130C8F80000002CA5
:10CDC00089D1049B2C4635464E46C146DDF820806D
:10CDD000002B00F0628124F480745EE12A05F0D516
:10CDE00019EB060CEDD1664625F4C075E146D6E791
:10CDF000531EB3F5AE7F88BF6FF4AE714FF00006DF
:10CE00008CBF5718002756AB88BF40F25D124946C9
:10CE1000D946B346059E089744F4586409931D46C5
:10CE20001746086890F800C0ACF12B034D2B5FD873
:10CE3000DFE813F012025E0012025E005E00BC0228
:10CE400018011801180118011801180118010B0226
:10CE50000B025E005E005E005E005E005E005E0033
:10CE60004E004E004E004E004E004E005E005E0032
:10CE70005E005E005E005E005E005E005E005E00C2
:10CE80005E005E005E005E005E005E005E00FF0110
:10CE90005E005E005E005E005E005E005E005E00A2
:10CEA0004E004E004E004E004E004E005E005E00F2
:10CEB0005E005E005E005E005E005E005E005E0082
:10CEC0005E005E005E005E005E005E005E00FF01D0
:10CED0000A2E0DDD24F4386405F801CB4B68013BC4
:10CEE000002B4B6040F37A8201300860013F98D1FB
:10CEF00005965E46CB468946E10507D5099B9D42CE
:10CF000000F2AD84099B9D423FF455AE14F010022F
:10CF100040F07482059B079F09992A704046B847E4
:10CF2000069BA20603F1040700F16282630700F189
:10CF3000758414F0010240F05A82A40740F1578230
:10CF4000B44B079999424046059B099900F0178513
:10CF500002F004FC0B46069A1168C1E9000349E29D
:10CF6000D9F800100B78002A1AF8033008BF4FF0E8
:10CF7000FF32E00704F0100603F0080300F17682A8
:10CF8000002E00F02983002B7FF442AED9F8043044
:10CF90000131013B012AC9F80010C9F8043008BF6B
:10CFA0000BF1010B3FF434AE0124154613E0D9F820
:10CFB00000301A781AF80220160703F1010312D480
:10CFC000C9F80030D9F804300134013BA542C9F852
:10CFD000043000F05684002BE9DC4946404601F05D
:10CFE000D7F90028E3D0A34412E6002A08BF4FF087
:10CFF000FF3204F01003E0070B9300F12C83D9F803
:10D0000000100B980B7816ACE35C002800F09282BD
:10D01000002B3FF4D0ADD9F804300131013B012A97
:10D02000C9F80010C9F8043018BF164610D117E02F
:10D03000D9F800301A78A25C01338AB1C9F80030FF
:10D04000D9F804300135013BAE42C9F8043007D0AD
:10D05000002BEDDC4946404601F09AF90028E7D064
:10D06000AB44D5E56C4B24F4386433F9166033E7F0
:10D07000002E40F0C881049A002A40F09C8205F4FA
:10D08000E06CBCF5E06F00F015842C4600233546BB
:10D090004E46C146DDF820800493013E012E40F249
:10D0A00050846B1E062B40F25983E50540F1B9818F
:10D0B000600500F1548417F8011C652907F1FF355C
:10D0C0000BF1FF3602D0452940F07E834A464046A8
:10D0D00001F020F914F0100340F06C832B70B3467C
:10D0E0000D9B002B40F0A48309990022404603F0D9
:10D0F000C1FB069BE10757EC106B03F1040540F1FF
:10D1000044831B6883ED000B039B06950133039357
:10D110007EE5290503D519EB060C3FF464AE022E1B
:10D120007FF44FAE03263AE629053FF559AE05F4E4
:10D13000A06CBCF5806F05D06A057FF542AE049AFD
:10D14000002AA2D0A90504D4049A0B99521ACDE959
:10D150000D2725F47865002245F4C07504921EE67B
:10D1600029067FF52EAE25F0800518E62A0503D5A1
:10D1700019EB060C3FF437AEB9F1010F7FF421AE85
:10D180004FF002090BE6072E7FF41BAE082606E6D9
:10D1900005F4186CBCF5807F7FF413AE049A012A65
:10D1A0007FF40FAE25F480754FF0300C002207F8A5
:10D1B00001CB45F40065013C0492F0E5062E7FF4B6
:10D1C00000AE0726EBE52A05B1D4FAE5B9F1000F68
:10D1D00040F02081049A2AB905F4E06CBCF5E06FB8
:10D1E00000F06D83012E02D0042E7FF4EAAD0136EB
:10D1F000F6B2D4E5E9057FF5F3AD049B0133049362
:10D200000F9B25F08005002B3FF4CBAD0F9B013B1E
:10D210000F93C7E535C90000789703009D97030079
:10D22000029044F400748D4B07931023059303255B
:10D2300013E504F4C063B3F5007F7FF459AE24F422
:10D24000007444F4A064102646E6854B33F916605A
:10D25000082E3FF73FAE4BE623067FF549AE24F09C
:10D26000800439E6029044F001047C4B07930823C4
:10D2700005930325F1E402900225EEE4029044F0C8
:10D280000104784B07930A2305930325E5E40290F4
:10D2900044F040040025D9F80430002B3FF7EEACF1
:10D2A000E0E40290EDE723077FF485AC717844F069
:10D2B0000404064618E4D9F804300290002B694BA8
:10D2C00007934FF0000305934FF003057FF7CAACB7
:10D2D000D9F800100B781AF8033018077FF5CEAC98
:10D2E00016460A4606E0C9F8002013781AF80330FB
:10D2F000190718D5D9F80430013B002B0BF1010BAD
:10D30000C9F8043002F10102EDDC4946404601F063
:10D310003FF800287FF48AACD9F8002013781AF877
:10D3200003301907E6D43246A8E425077FF443AC5E
:10D3300071786C2900F09C8244F001040646FFF7E6
:10D34000D3BBE70602903FF563AC069B660753F834
:10D35000042B00F16A82E507C2F800B004D4A407E8
:10D3600002D54FEAEB715160069351E4029044F408
:10D37000087458E721077FF41EAC717844F002046A
:10D380000646FFF7B1BB014616A8049202F000FA68
:10D3900044F04004049A029001257CE722437FF484
:10D3A0000AAC717810240646FFF79EBB23057FF573
:10D3B00093AD16B944F400740826620540F1C381A8
:10D3C00024F4B06488E50898414600F0E1FF0028A5
:10D3D0007FF4F7AC002C7FF47EACF2E4404604917D
:10D3E00000F0D6FF049900283FF480AD80E5069B4D
:10D3F0001B681860039B069701330393099BED1A82
:10D400003544AB4404E4032E3FF4F1AE052E3FF463
:10D41000EEAED6E4B9F1020F7FF4E4AE4FF00309AB
:10D42000BDE414F010037FF4F3AB3B7004F4C0636D
:10D43000B3F5806F7FF454AE0B9B049A93423FF494
:10D4400053AE9A1A0DF2AB239F4228BF0DF2AA27C2
:10D450000549384600F03CFF46E600BF35C90000EC
:10D460007897030071DC000008B00300002E40F044
:10D47000A481069F57F804CB002B52D100250697B4
:10D4800064462F460496154603F0F8FAB8423FF476
:10D49000CDABD9E9003113F8010B0139C9E90031ED
:10D4A0000A9B56AA032BD055099207F1010714AE27
:10D4B00002D13368042B04D0082200213046FEF745
:10D4C0000BFF099A00963B462146404600F072FD4C
:10D4D000421C0A903FF4AAAB002840F0D58120609E
:10D4E00000F064FD002840F01582BB44013D049B20
:10D4F000002B40F0EA8104341F46D9F80430002B99
:10D5000040F3F981D9F800301B781AF803301B0773
:10D5100001D4002DB8D1049E069FA446002E40F0F1
:10D52000AD81039B0697013303930023CCF80030B1
:10D53000FFF76EBB069F57F8040B002B3FF43BAB85
:10D54000D9F80430013BC9F804304B1CC9F800304D
:10D5500006460B7806F8013B012A23D08518049073
:10D5600011E0D9F800100B78E35C7BB3D9F80430F4
:10D57000013BC9F804304B1CC9F800300B7806F8A1
:10D58000013BAE4222D0D9F80430002BE9DC4946F9
:10D59000404600F0FDFE0028E3D00498B0423FF47E
:10D5A00045AB351A039B0697013303930023AB4425
:10D5B0003370FFF72DBB2C4635464E46C146DDF88D
:10D5C000208008E400230F93FFF776BB0498351AF8
:10D5D000002DE7D1FFF7EFBA069F57F8046B002B39
:10D5E00040F0CB81D9F80430013BC9F804304B1C22
:10D5F000C9F8003034460B7804F8013B012A00F0EA
:10D60000C381B51813E0D9F800301A781AF802204F
:10D61000100716D4D9F80420013AC9F804205A1C7E
:10D62000C9F800201B7804F8013BAC4209D0D9F8B6
:10D630000430002BE7DC4946404600F0A9FE0028F4
:10D64000E1D0A61BB344039B069701330393002349
:10D650002370FFF7DDBA002B40F0DE80069B53F805
:10D66000047B06930A9CCDF820B000259346CDF8A4
:10D67000108003F003FAA8423FF4D8AAD9E9003297
:10D6800056A813F8011B4155013A032CC9E9003291
:10D6900005F101050DF1480803D1D8F80030042B3D
:10D6A00004D0082200214046FEF716FE39460498B1
:10D6B000CDF800802B4656AA00F07CFC411C0446A5
:10D6C0003FF4B4AA002840F0BD803860064614AB91
:10D6D0000822002118460993FEF7FEFDB749099B71
:10D6E00004983246D1F8E06010A9B04701280CBF79
:10D6F0009DF84060002616AB9B5D002B00F0E78094
:10D70000089B032C2B44089300F0A3800BF1FF3BF4
:10D710000B9B03B90437D9F80430002B4FF00005F8
:10D720006BDDBBF1000FA4D1DDF820B0DDF8108077
:10D730000A940B9B002B7FF46BAA3B60039B013385
:10D740000393FFF765BA089B24F4607413B1013B9F
:10D75000089301370BF1010BFFF7C0BB022D40F21C
:10D760001E81032D3FF4A1AC043DEEB2F5433D44D0
:10D7700017F8011D4A46404600F0CCFDAF42F7D1F4
:10D780000BF1FF3BABEB060B8FE4069BA2071B687C
:10D79000049347D432463B463046394609F040FDB3
:10D7A000002840F0F4803046394609F097FD049B8C
:10D7B0001860A9E4B346FFF72BBA002B7FF428AA20
:10D7C000069F0DF1440C59E64A46404600F0A2FD82
:10D7D000ABF1020617F8021CBD1E77E4029044E587
:10D7E000774B07930A23029005930325FFF735BA79
:10D7F000D9F80430002B3FF73CAF0498494600F0BD
:10D80000C7FD00288DD0DDF820B0DDF810800A9427
:10D81000002D8ED0FFF70ABA11AF23E7069B1B68D5
:10D820001880E7E583ED000B6EE4A2F800B09BE5FD
:10D830000E9F0A230022791C404600F019FA0D9B26
:10D84000C21AFFE5821CD3D03E68731C7FF43FAF41
:10D8500051E7D8F80030042B7FF458AF58E715F89B
:10D86000011C4A464046013D00F054FDFFF74ABB0B
:10D87000B17844F002040236FFF736B90697FFF795
:10D88000C7B9AB44FFF7C4B90A9B02333FF435AEC6
:10D89000206800F08BFB00283CD10A9B032BBB4483
:10D8A0007FF424AE3368042B7FF420AE1FE603938D
:10D8B000FFF781B925F4F0650126FFF770BA25F46A
:10D8C000F0654FF00109FFF76ABA002715E6DDF8A9
:10D8D00020B0DDF810800A94002D3FF42AAF56AB3B
:10D8E0005C19013D14F8011D4A46404600F012FD46
:10D8F000002DF6D11DE74946404600F049FD0028BD
:10D900003FF400AE3D46049E069FA446002D7FF4E2
:10D910008DA903E63D46049E069FA446002D3FF4D4
:10D92000FDAD099CCDF810C02C44013D14F8011D3B
:10D930004A46404600F0EEFC002DF6D1DDF810C05E
:10D94000ECE5099CA7427FF636A917F8011D4A4667
:10D95000404600F0DFFCA742F7D1FFF72CB9099C45
:10D96000A7427FF628A917F8011D4A46404600F055
:10D97000D1FCA742F7D1FFF71EB9344663E604F0A5
:10D98000B1FF0B46FFF7E7BA0BF1010B5BE60D4861
:10D9900001F020FE049B83ED000AFFF7B5BB099B55
:10D9A0009F427FF608A917F8011D4A46404600F03D
:10D9B000B1FC099B9F42F6D1FFF7FDB8341100106E
:10D9C00035C9000000B10300012A38BF012204F06C
:10D9D000100714F00104164615D1002F6BD1069CD8
:10D9E000134654F8041BCDF800900122404600F085
:10D9F000EBFC00283FF41AA9039B069401338344EF
:10DA00000393FFF705B9002F46D0002304930025A8
:10DA10002C460A9DCDF8208003F030F8A0423FF458
:10DA200005A9D9E9003156AA13F8010B105501399F
:10DA3000032D04F10108C9E9003114AC02D12268B8
:10DA4000042A04D0082200212046FEF745FC56AAED
:10DA5000049908980094434600F0ACFA421C05462D
:10DA60003FF4E4A800283CD1C344013E27B9049BFD
:10DA70001F60049B04330493D9F80430002B4FF04B
:10DA800000043FDD002EC7D1DDF820800A95002F6D
:10DA90003FF454AEFFF7BCB8069B53F8042B049236
:10DAA0000693B4E7C9F80010404649461C44F61AEC
:10DAB00000F06EFC78B9D9E900239E4202EB030125
:10DAC000F0DC9B1B32443444C9F80430C9F8002010
:10DAD000A344FFF79DB8002C3FF4A8A8A344FFF788
:10DAE00097B8831C09D00328C34402D12368042BB0
:10DAF00000D0013E002FBCD0BEE7D9F804100029A9
:10DB0000444689DC0898494600F042FC0028B9D018
:10DB1000DDF820800A95002C7FF488A8002F3FF4C0
:10DB20000DAEFFF775B800BF0A22002100F0AEB8B5
:10DB30000A23002200F09CB8242B2DE9F84F43D88B
:10DB4000012B41D0804649481F468E4675461EF837
:10DB500001BB10F80B4014F00804F7D1BBF12D0FF6
:10DB60006FD0BBF12B0F08BF9EF800B06FF00049DB
:10DB700008BF05F1020E73BBBBF1300F4BD00A2773
:10DB80003B460025B9FBF7F6284607FB169A05E049
:10DB90003AD007FB00C001251EF801BBABF1300CE9
:10DBA000BCF1090F06D9ABF1410CBCF1190F19D822
:10DBB000ABF1370C63451EDDB5F1FF3FECD086427B
:10DBC000E6D24FF0FF35E7E704F0B2FD162303601D
:10DBD0000020BDE8F88F102BD3D1BBF1300F23D03C
:10DBE0001F46CEE7ABF1610CBCF1190F03D8ABF1C6
:10DBF000570C6345E0DC6B1C2BD054B9002AE8D0ED
:10DC000085BB1160BDE8F88FE245C2DA4FF0FF3501
:10DC1000C2E74042F2E79EF8003003F0DF03582BE2
:10DC200008D008273B46ACE79EF8000000F0DF0074
:10DC30005828D5D110279EF801B03B460EF1020EB0
:10DC40009FE79EF800B04FF0004905F1020E012455
:10DC500091E72223C8F8003032B10EF1FF31484677
:10DC60001160CFE78146F8E74846B2E79D97030089
:10DC700062E700BF10B4044C8446134620685DF888
:10DC8000044B0A46614657E70010001010B4044CDC
:10DC90008446134620685DF8044B0A4661464BE70C
:10DCA0000010001038B511F0FF040CD00346002519
:10DCB00001E0431C054621461846FEF7BFFB00283D
:10DCC000F7D1284638BD2146BDE83840FEF7B6BB3F
:10DCD00008B410B5002A9DB0044636DB4FF4027339
:10DCE000ADF814304FF000031B930291069120AB66
:10DCF00017D0013A4FF6FF7104920792ADF8161053
:10DD00001F9A019302A902F0DFFE421C01DA8B2365
:10DD10002360029B00221A701DB0BDE8104001B0C4
:10DD200070474FF6FF7104920792ADF816101F9AD4
:10DD3000019302A902F0C8FE431C01DA8B23236081
:10DD40001DB0BDE8104001B070478B2303604FF059
:10DD5000FF30F5E70CB410B5214B00291C689CB0CE
:10DD600038DB4FF000034FF402721B93ADF8142020
:10DD7000029006901FAB18D001394FF6FF72049144
:10DD80000791ADF8162002A91E9A0193204602F0D1
:10DD90009BFE421C01DA8B232360029B00221A7037
:10DDA0001CB0BDE8104002B070474FF6FF720491FE
:10DDB0000791ADF8162002A91E9A0193204602F0A1
:10DDC00083FE431C01DA8B2323601CB0BDE81040A6
:10DDD00002B070478B2323604FF0FF30F5E700BFA0
:10DDE00000100010844641EA000313F003036DD1D4
:10DDF000403A41D351F8043B40F8043B51F8043B0E
:10DE000040F8043B51F8043B40F8043B51F8043B14
:10DE100040F8043B51F8043B40F8043B51F8043B04
:10DE200040F8043B51F8043B40F8043B51F8043BF4
:10DE300040F8043B51F8043B40F8043B51F8043BE4
:10DE400040F8043B51F8043B40F8043B51F8043BD4
:10DE500040F8043B51F8043B40F8043B51F8043BC4
:10DE600040F8043B51F8043B40F8043B51F8043BB4
:10DE700040F8043B403ABDD2303211D351F8043B54
:10DE800040F8043B51F8043B40F8043B51F8043B94
:10DE900040F8043B51F8043B40F8043B103AEDD203
:10DEA0000C3205D351F8043B40F8043B043AF9D254
:10DEB000043208D0D2071CBF11F8013B00F8013B27
:10DEC00001D30B8803806046704700BF082A13D334
:10DED0008B078DD010F003038AD0C3F10403D21A4C
:10DEE000DB071CBF11F8013B00F8013B80D331F880
:10DEF000023B20F8023B7BE7043AD9D3013A11F800
:10DF0000013B00F8013BF9D20B7803704B7843706A
:10DF10008B7883706046704710B50C46B1F90E10CF
:10DF200004F0FAFC002803DB236D0344236510BDD5
:10DF3000A38923F48053A38110BD00BF0020704744
:10DF40002DE9F0410C46B1F90C101F46CB050546F2
:10DF500016460BD421F48051A1813B46B4F90E1032
:10DF600032462846BDE8F04100F06CB8B4F90E1016
:10DF70000223002206F020F9B4F90C10EAE700BFF2
:10DF800010B50C46B1F90E1006F016F9B4F90C30C4
:10DF9000421C0EBF23F4805343F480532065A381B9
:10DFA00010BD00BFB1F90E1001F002BB002104F05A
:10DFB000C5BB00BF70B50D4C82B0D4F8E460069CC0
:10DFC00005462AB10094B047431C08D002B070BD8A
:10DFD00011460123064A0094B047431CF6D10022A3
:10DFE0008A2322602B6002B070BD00BF3411001084
:10DFF00000B1030070B51C460F4B1D680F4B82B07B
:10E00000D3F8E46051B1944663460A460094014651
:10E010002846B047431C08D002B070BD0123084A0F
:10E0200000942846B047431CF6D100228A23226080
:10E030002B6002B070BD00BF001000103411001042
:10E0400000B1030038B50C46084D84461146204601
:10E050001A4600232B60644609F084FB431C00D061
:10E0600038BD2B68002BFBD0236038BDA01A0010F0
:10E0700000207047024A0349034801F0D5BB00BFA6
:10E0800028110010F9400100081000100C4B4168E5
:10E09000994210B5044601D006F02EF8A168094B4C
:10E0A000994202D0204606F027F8E168064B9942D3
:10E0B00004D02046BDE8104006F01EB810BD00BFD9
:10E0C0003019001098190010001A00100020704735
:10E0D0002DE9F8432A4C2B49DFF8BC90DFF8BC80CF
:10E0E000294FC4F83811002504230822294604F1D9
:10E0F0005C00264EE360C4E90055C4E90455A56000
:10E100006566A561FEF7E8F8214B6367082229469A
:10E1100004F1C400C4E90749C4E90987C4E91A55F0
:10E12000C4E91E552567C4F8CC50C4F88050E66297
:10E13000FEF7D2F8174BC4F8DC30294604F1680327
:10E14000082204F59670C4F88430C4E92298C4E922
:10E150002476C4E93455C4E93855C4F8D850C4F815
:10E160003451C4F8E850FEF7B7F804F1D003C4E91D
:10E170003C98C4E93E76C4F8EC30BDE8F88300BFB3
:10E180003019001075E0000081DF0000A5DF0000FD
:10E19000090001001200020019DF000041DF000049
:10E1A000F8B5254BD3F838310646002B3CD0234F29
:10E1B000D7E90134013B04D51DE05A1C04F1680481
:10E1C00019D0B4F90C50013B002DF6D11C4BE36083
:10E1D000C4E90155C4E9045565662560A5610822B6
:10E1E000294604F15C00FEF777F8C4E90C55C4E950
:10E1F00011552046F8BD3D680DB12F46D8E74FF4C4
:10E20000D671304604F09EFB044680B10423C0E979
:10E2100000530C302946A0604FF4D0722546FEF71B
:10E220005BF83C602F46C3E7FFF752FFBFE70C23C4
:10E2300038603360DDE700BF30190010281100108E
:10E240000100FFFF436B03B17047044B044AD3F84E
:10E2500038314263002BF7D13AE700BF3019001084
:10E260008DE00000704700BF704700BF024A0349BD
:10E27000002001F0D9BA00BF2811001071E00000A1
:10E28000024A0349002001F0CFBA00BF2811001054
:10E29000CDE000000CB410B59CB01EAB029106910D
:10E2A0006FF0004104910791084953F8042B059140
:10E2B000002402A901931B9402F006FC029B1C702F
:10E2C0001CB0BDE8104002B0704700BF0802FFFF5D
:10E2D0000EB430B59CB06FF000411FAB04910791B4
:10E2E0000A4953F8042B029000240690084D086850
:10E2F000019302A905951B9402F0E6FB029B1C709A
:10E300001CB0BDE8304003B0704700BF00100010E3
:10E310000802FFFF38B54B1C1AD09389144623F02E
:10E3200020035268A381236BCDB2A3B1636B9342E8
:10E3300009DD23685A1E226003F8015C636801331B
:10E340006360284638BD214601F08CF80028F0D0E3
:10E350004FF0FF35F5E7236921682BB18B4203D2DB
:10E3600011F8013CAB420ED02346C4E90E1204F171
:10E37000400003222063626303F8425F0122C4E984
:10E380000032284638BD01390132C4E90012D8E70D
:10E3900010B50C46096B69B104F14003994201D0F4
:10E3A00005F0AEFDE36B63600020206313B1A36B47
:10E3B000236010BDA2892369002142F02002616020
:10E3C000A2814FF0FF30F3E72DE9F04F85B083468F
:10E3D00002FB03F00E9C019398B38846D4E9001524
:10E3E000A842064622D9CDE902024FF0000904F105
:10E3F000400A40462A46FFF7F5FC2168236B4F1977
:10E40000C4E90079194637465846A844761BDBB163
:10E41000534501D005F074FDE16BC4F830906160A4
:10E4200091B10D46B542A16B2160E2D33246404620
:10E43000FFF7D8FCD4E90032921B3344C4E9003220
:10E44000019805B0BDE8F08FDDE90202A3892844F8
:10E45000C01B43F02003B0FBF2F02269A38100232C
:10E46000C4E9002305B0BDE8F08F00BF2DE9F04FEF
:10E470008A46B1F90C10DDB08C0407930390DAF8EA
:10E48000643007D441F4005123F40053AAF80C106F
:10E49000CAF864309804C3F3403100F1A4831646EF
:10E4A00016F8013B0D93002B00F08986DFF8A0845D
:10E4B00006918E468B4689460591089118F80340CF
:10E4C00014F008046ED1252B5DD131782746A1F1D7
:10E4D0002503721C532B61D8DFE813F05400600051
:10E4E0006000600060002F0260006000600060005B
:10E4F0006000D000D000D000D000D000D000D0000C
:10E50000D000D000D00060006000600060006000BB
:10E510006000600060006000600023026000600036
:10E520006000600060006000600027026000600022
:10E530003101600060006000600060006000600009
:10E540006000DC00600060003A0160006000600074
:10E550006000600060006000A001A5016000600034
:10E560006000AC01B40160006000FA0160000502C7
:10E5700001061C02600060002002600004066000CA
:10E580006000DC001646DAF80430002B5BDDDAF8B8
:10E590000030197816F8012C914232D005985DB000
:10E5A000BDE8F08FDAF80430039F0AF1400500243B
:10E5B0001A460FE0DAF800301A7818F8022012072D
:10E5C00003F101033DD5DAF80420013ACAE900322B
:10E5D00009F10109002AEDDCDAF830303846194635
:10E5E00013B3AB4201D005F08BFCDAF83C30CAF82B
:10E5F0003040CAF80430BBB1DAF83830CAF800301D
:10E60000DAE70133CAF80030DAF804300496013B47
:10E6100009F10109CAF80430049E16F8013B0D9374
:10E62000002B7FF44BAFB9E7BAF80C3043F020036E
:10E63000AAF80C30DAF81030CAF800300023CAF813
:10E6400004300496E8E7DAF83010002900F0B982C7
:10E650000AF14003994202D0039805F051FCDAF820
:10E660003C30CAF804300022CAF83020002B00F0F9
:10E67000A882DAF83830CAF800308AE714F08F0F31
:10E680008CD107EB870701EB4701A1F130077178C7
:10E6900016461CE7049244F40074AB4B0893102315
:10E6A00006930323DAF80410002900F3D880DAF87F
:10E6B0003010002900F085820AF14000814204D028
:10E6C0000398099305F01CFC099BDAF83C10CAF882
:10E6D00004100020CAF83000002900F07282DAF835
:10E6E0003810CAF80010600640F1B980022B00F023
:10E6F000FE81032B00F02E81012B37D0012F04F077
:10E70000100238BF012714F001040A9240F02E8451
:10E710000A9B002B40F0CC82079C039854F8041B02
:10E72000CDF800A03B460122FFF74EFE002800F086
:10E730005382059B07940133814405936CE704924F
:10E7400044F00104804B0893082306930323A9E7B0
:10E7500011461CA801F01CF844F040040490012369
:10E76000DAF804100029A2DD012BC7D1002F04F034
:10E77000100208BF4FF0FF3714F001040A9240F076
:10E780008883DAF800600A9A31781CAD695C002A47
:10E7900000F0CE8200293FF401AFDAF80410013610
:10E7A0000139012FCAF80060CAF8041000F0208374
:10E7B0000AF14006CDF82490B14626461C4612E0E8
:10E7C000DAF800100878285C0131002800F00D8389
:10E7D000CAF80010DAF8041001340139A742CAF867
:10E7E000041000F002830029EADCDAF830300398E4
:10E7F0001946002B00F024854B4501D005F080FB25
:10E80000DAF83C10CAF83060CAF80410002900F0A9
:10E810001785DAF83810CAF80010D3E7049244F0EC
:10E82000400400239CE70492484B08930A23069374
:10E83000032337E723077FF4B1AE717844F0040473
:10E84000164644E6DAF804300492002B3F4B089356
:10E850004FF0000306934FF003037FF728AFDAF879
:10E860000000017818F8011009077FF53FAF0AF1A1
:10E8700040060994002534464E46994608E001308A
:10E88000CAF80000017818F801100A0740F19581D4
:10E89000DAF804100139002906F10106CAF804105B
:10E8A000EDDCDAF8303003981946002B00F089814E
:10E8B000A34201D005F024FBDAF83C10CAF830502E
:10E8C000CAF80410002900F07C81DAF83800D7E794
:10E8D00020077FF463AE71786C2900F0508444F017
:10E8E00001041646F3E5E70604923FF595AE079A54
:10E8F000660752F8043B079200F10084E50700F137
:10E900005A84A40740F157844FEAE972C3F8009093
:10E910005A6081E6049244F40874BEE6049202232D
:10E92000C0E6049244F001047EE721077FF436AE8E
:10E93000717844F002041646C9E527437FF42EAEF1
:10E94000717810241646C2E535C9000071DC00005C
:10E950009D9703007B1E262B44F4586440F24781A8
:10E96000A7F127030B932727002312AE1A4609931A
:10E970000AF1400335460A933346069EDAF8001042
:10E9800091F800C0ACF12B004D283AD8DFE800F038
:10E990007E397E3939896D6D6D6D6D6D6D8383390D
:10E9A0003939393939392727272727273939393943
:10E9B000393939393939393939393939397339398D
:10E9C0003939393939392727272727273939393923
:10E9D00039393939393939393939393939730A2EA7
:10E9E0000FDD24F4386405F801CBDAF804000138AF
:10E9F0000028CAF8040060DD0131013FCAF80010A8
:10EA0000BCD106961E46E10505D5B54200F29783B6
:10EA1000B5423FF4C3AD14F0100240F0C980069B2C
:10EA2000089F03982A703146B847079BA20603F156
:10EA3000040700F1B780630700F15C8314F0010262
:10EA400040F0AF80A10740F1AC80B74B0899039824
:10EA50009942069B314600F08B8400F07FFE0B4606
:10EA6000079A1168C1E900039EE0B04824F43864B5
:10EA700030F91660B7E704F4C060B0F5007FC0D18C
:10EA800024F4007444F4A0641026ACE72006B8D542
:10EA900024F08004A7E7A54830F91660082EA0DC12
:10EAA000AFE720059FD516B944F400740826600529
:10EAB00040F1AA8224F4B06495E7DAF83010002916
:10EAC00000F082830A98814205D00398069305F0EE
:10EAD00017FA069B0022DAF83C10CAF83020CAF870
:10EAE0000410002900F07083DAF8381085E7DAF8AE
:10EAF00000000378002F18F8035008BF4FF0FF37CD
:10EB0000E10704F0100205F0080573D4002A00F0B4
:10EB10007181002D7FF480ADDAF804300130013BC3
:10EB2000012FCAF80000CAF8043008BF09F1010932
:10EB30003FF472AD0AF14006324601242E461546D6
:10EB400014E0DAF80030197818F80110090703F119
:10EB5000010300F1E780CAF80030DAF8043001342C
:10EB6000013BA742CAF8043000F00F83002BE8DC19
:10EB7000DAF8303003981946002B00F0A083AB423E
:10EB800001D005F0BDF9DAF83C30CAF83060CAF8B7
:10EB90000430002B00F09383DAF83830CAF80030E4
:10EBA000D1E7079B1B681860059B07970133059306
:10EBB000099BAD1B1D44A9442EE54B46099CB1465B
:10EBC00094E5DAF81010BAF80C300022CAE9001205
:10EBD00043F02003AAF80C30059B23B1BAF80C309F
:10EBE0005B067FF5DBAC4FF0FF330593D6E40023E3
:10EBF0000B93B9E6002A00F01E82002D7FF40CADC5
:10EC0000079C0DF1340C00250A945E462C460792B1
:10EC1000654601F033FFA042DED0DAE900210DF1B4
:10EC2000480B12F8010B0BF80400631C0139032E8A
:10EC3000CAE90021099310AC02D12368042B04D047
:10EC4000082200212046FDF747FB5A46099B0398FE
:10EC500000942946FFF7AEF9421C0646BCD00028B6
:10EC600040F096822860FFF7A1F9002840F05C830D
:10EC7000099B9944013F079B002B40F0A382043578
:10EC80001C46DAF80420002A40F3ED82DAF800206E
:10EC9000127818F80220100701D4002FB9D10A9C6D
:10ECA000079AAC46B346002A00F0CB810794B3E440
:10ECB000DAE90013BB4280F25483DAF830201846B8
:10ECC0000AF14006CDE9099B13462546A346B14605
:10ECD00002461144CAF800105E463C4603981946A5
:10ECE0009344BF1A002B00F032824B4501D005F04F
:10ECF00007F9DAF83C20CAF83050CAF80420002A94
:10ED000000F02582DAF83810CAF8001097424FF068
:10ED10000003DEDCDDE9099B13463444DB1B394488
:10ED2000CAE90013A14477E435C90000A0980300A4
:10ED3000079A52F8040B00293FF430ACDAF80410BB
:10ED40000139CAF80410711CCAF800100446317861
:10ED500004F8011B012F40D0C619CDF81C900AF110
:10ED60004007B14609900A9E0B9211E0DAF80010B4
:10ED70000878285C48B3DAF804000138CAF80400BF
:10ED8000481CCAF80000097804F8011B4C451CD047
:10ED9000DAF804100029E9DCDAF830300398194673
:10EDA000002B00F03682BB4201D005F0A9F8DAF85A
:10EDB0003C10CAF83060CAF80410002900F029821B
:10EDC000DAF83810CAF80010D2E70998DDF81C907C
:10EDD0000B9A231A002B3FF4E1AB9944059B079251
:10EDE000013305930023237016E4DDF824902346B5
:10EDF000994411E4079951F8042B002D40F0B38297
:10EE0000DAF80430013BCAF80430431CCAF8003079
:10EE10001446037804F8013B012F00F0A682D619AE
:10EE200007910AF14007099216E0DAF80010087815
:10EE300018F80000020701F1010300F1F080DAF890
:10EE40000400CAF800300138CAF80400097804F850
:10EE5000011BB44200F0E380DAF804100029E4DC7E
:10EE6000DAF8303003981946002B00F01682BB42C6
:10EE700001D005F045F8DAF83C10CAF83050CAF86D
:10EE80000410002900F00982DAF83810CAF80010DE
:10EE9000CDE7002A40F02081079B53F8042B09920C
:10EEA000079300245D4601F0E9FDA0423FF494AED3
:10EEB000DAE9003212A813F8011B0155013A032DBB
:10EEC000CAE9003204F101040DF1380B03D1DBF87B
:10EED0000030042B04D0082200215846FDF7FCF92D
:10EEE000099E0398CDF800B0234612AA3146FFF7D9
:10EEF00061F8431C05463FF46FAE002840F00281E4
:10EF00003060064610AB0822002118460B93FDF72F
:10EF1000E3F9B5490B9B03983246D1F8E0600CA9A0
:10EF2000B04701280CBF9DF8306000261CAB9B5DEC
:10EF3000002B00F05D81032DA14400F0FA80013F19
:10EF40000A9B13B9099B04330993DAF80430002BA8
:10EF50004FF0000440F3A580002FA4D1AB460A9BDC
:10EF6000002B7FF459AB099A136048E0002A40F067
:10EF70009080079951F8042B099207911C4612AE14
:10EF80000B9301F07BFDA0423FF426AEDAE90021AD
:10EF900012F8010B30550139BBF1030FCAE900210A
:10EFA00004F1010410AD02D12B68042B04D0082217
:10EFB00000212846FDF790F909990398009523460A
:10EFC0003246FEF7F7FFB0F1FF3F83463FF404AE51
:10EFD000002840F09F800A9BA144013F23B9099A71
:10EFE0001360099B04330993DAF804200B9C002A70
:10EFF00034DD002FC5D10A9B002B7FF40DAB059BA0
:10F0000001330593FFF708BB0B9824F4607410B12B
:10F0100001380B900137099801300990E5E4099A0D
:10F020000799A31A9944059B07910133059300237F
:10F030002370FFF7F1BA079C54F804CB002D3FF47E
:10F04000E2AD059B0794013305930023CCF8003013
:10F05000FFF7E2BADAF80420002A92DCDAF830107E
:10F06000002900F04E810AF14002914202D003983B
:10F0700004F046FFDAF83C20CAF804200023CAF85E
:10F080003030002A00F03D81DAF83820CAF800203C
:10F09000AFE70022099271E7DAF80430002B3FF75E
:10F0A00002AFDAF83010002900F019810AF14003AC
:10F0B000994202D0039804F023FFDAF83C30CAF8F2
:10F0C00004300022CAF83020002B00F00881DAF862
:10F0D0003830CAF800303FE70DAB0993E1E60492FF
:10F0E000FFF730BB414B08930A2306930492032396
:10F0F000FFF7D8BA079B1B68188055E5A3F8009066
:10F10000FFF78ABA861CC7D0099B1E68701C7FF463
:10F11000F9AE0BE710F1020F9CD00328A14402D1F5
:10F120002A68042A00D0013F0A9B002B3FF459AF04
:10F130005AE7DBF80030042B7FF401AF00E715F845
:10F14000011C03985246013DFFF7E4F860E4BAF869
:10F150000C30DDF8249043F02003AAF80C30DAF8E4
:10F160001030CAF800305C460023DDF828B0CAF839
:10F170000430002C3FF430ADA144FFF74DBAB17814
:10F1800044F002040236FFF7A2B9B944FFF744BACB
:10F19000831C00F0C7802868FEF708FF002840F0B5
:10F1A000C380099B032E99447FF464AD2268042A2E
:10F1B0007FF460AD5FE5C3F80090FFF72DBA0593CB
:10F1C000FFF7ECB900245CE506961E46BAF80C3051
:10F1D00043F02003AAF80C30DAF81030CAF80030F7
:10F1E0000023CAF804300EE43411001035C90000C1
:10F1F000AB46002C3FF4B3AE12AB039E1D19013C8D
:10F2000015F8011D52463046FFF784F8002CF6D160
:10F21000A5E6BAF80C300998DDF81C900B9A43F07B
:10F220002003AAF80C30DAF81030CAF80030A042F7
:10F230004FF00003CAF804303FF4CEAC231ACCE5FB
:10F24000BAF80C20DDF8249042F02002AAF80C2035
:10F25000DAF81020CAF8002023460022CAF8042059
:10F260009944FFF7D9B9DAF83010002900F0858009
:10F270000AF14002914202D0039804F041FEDAF80C
:10F280003C20CAF804200021CAF83010002A74D0AB
:10F29000DAF83820CAF80020FAE4099A0799A31A84
:10F2A0009944BAF80C3043F02003AAF80C30DAF88D
:10F2B0001030CAF800300023CAF80430B3E6BAF8B8
:10F2C0000C3043F02003AAF80C30DAF81030CAF8FA
:10F2D00000300023A144CAF80430FFF79DB9BAF802
:10F2E0000C3043F02003AAF80C30DAF81030CAF8DA
:10F2F00000300023AB46CAF80430002C3FF42FAE98
:10F300006AE4BAF80C3043F02003AAF80C30DAF8BB
:10F310001030CAF800300023CAF80430002C3FF443
:10F320006AAE59E4099CACE4AC46DDE909545B469D
:10F33000079AB3461E46002D3FF4B5AC2E44079401
:10F340003446039E09926746013D14F8011D52465A
:10F350003046FEF7DFFF002DF6D1079C099ABC4628
:10F36000A1E43C46DAE414465DE609F101095AE6F7
:10F3700003F0B8FA0B46FFF773BBBAF80C30079AE4
:10F3800043F02003AAF80C30DAF81030CAF8003045
:10F39000AC4600232546B3460A9CCAF80430002D2B
:10F3A0007FF41AAC7FE400BF80EA0102844612F0C9
:10F3B000030F4FD111F0030F32D14DF8044D11F06E
:10F3C000040F51F8043B0BD0A3F101329A4312F021
:10F3D000803F04BF4CF8043B51F8043B16D100BFFA
:10F3E00051F8044BA3F101329A4312F0803FA4F18B
:10F3F00001320BD14CF8043BA24312F0803F04BF12
:10F4000051F8043B4CF8044BEAD023460CF8013B7E
:10F4100013F0FF0F4FEA3323F8D15DF8044B704728
:10F4200011F0010F06D011F8012B0CF8012B002A66
:10F4300008BF704711F0020FBFD031F8022B12F055
:10F44000FF0F16BF2CF8022B8CF8002012F47F4F10
:10F45000B3D1704711F8012B0CF8012B002AF9D118
:10F46000704700BF01F140032DE9F0410C46096BE4
:10F47000994214D0666B77003A4604F0C1FE054607
:10F4800030B300EB0608014632464046FEF7AAFCC0
:10F49000C4E90C57C4F800800020BDE8F0814FF4A7
:10F4A000806103F04FFA98B194F842304FF48062D3
:10F4B000C4E90C0280F8FF3394F8413080F8FE3341
:10F4C00094F8402080F8FD2300F2FD332360E3E749
:10F4D0004FF0FF30E1E700BF70B54C1C2BD00E465B
:10F4E0000546144610B1436B002B4CD0B4F90C30D8
:10F4F00023F020025807A28106D4D9061BD51B078A
:10F5000034D442F00402A281226B6368F6B2AAB13D
:10F51000626B9A4209DD23685A1E226003F8016C6F
:10F52000636801336360304670BD21462846FFF7AB
:10F5300099FF0028EFD04FF0FF36F4E722692168E9
:10F540002AB18A4203D211F8012CB2421ED02246BF
:10F55000C4E90E1304F1400003232063636302F83F
:10F56000426F0123C4E90023304670BD214628467E
:10F5700003F05EF80028DED1B4F90C20A06022F080
:10F580000802A061BDE7FEF75DFEAFE70139013378
:10F59000C4E90013C7E700BF10B4044C03460A4691
:10F5A00020685DF8044B1946FFF796BF0010001065
:10F5B00038B5074D0022044608462A6008F08CF84A
:10F5C000431C00D038BD2B68002BFBD0236038BD16
:10F5D000A01A00109FED010A704700BF0000C07F15
:10F5E0002DE9F04F85B092465B4A039089461E464E
:10F5F0000D46294615F8014B135D13F00803F8D1A9
:10F600002D2C7DD02B2C41D002934FF0FF326FF088
:10F610000043CDE90023002E43D1302C79D00A27B6
:10F62000B0463E46DDE900013A46434607F0A6FEF5
:10F6300000238E46834619461846A44610E08E45A0
:10F6400008BF83454CD000FB08F307FB0133A0FB48
:10F6500007010B44201843EBE471012315F801CB9B
:10F66000ACF13004092C05D9ACF14104192C1ED899
:10F67000ACF13704A64222DDB3F1FF3FEED0834563
:10F680007EEB0103DBD24FF0FF33E7E72C780293E8
:10F690008D1C6FF000434FF0FF31CDE90013002EB9
:10F6A000BBD0102E3ED037464FEAE678BAE7ACF131
:10F6B0006104192C03D8ACF15704A642DCDC5A1CB7
:10F6C00013D0029A12B1404261EB4101BAF1000F2E
:10F6D00003D0002B3DD1CAF8009005B0BDE8F08FF3
:10F6E000A242B0DA4FF0FF33B8E7039A2223136047
:10F6F000BAF1000F28D0DDE9000105F1FF39EAE792
:10F7000000934FF0004001232C78CDE901038D1CBC
:10F7100081E72B7803F0DF03582B0ED00827B04683
:10F720003E467FE7302C03D037464FF0000879E79C
:10F730002B7803F0DF03582BF6D110276C784FF0AD
:10F74000000802353E466DE7DDE9000105B0BDE881
:10F75000F08FCDE90001CEE79D97030040E700BFA1
:10F7600010B4044C8446134620685DF8044B0A46E6
:10F77000614635E70010001010B4044C844613466F
:10F7800020685DF8044B0A46614629E70010001026
:10F7900070B50C785E2C864624D00023481C9C460D
:10F7A000002263F3070263F30F2263F3174263F34C
:10F7B0001F620EF58071734643F8042B8B42FBD118
:10F7C00074B18CF001010EF80410451C15F8013CD1
:10F7D0002D2B0ED05D2B0AD01BB11C462846F2E71C
:10F7E000013870BD01234C78881C9C46D8E7284618
:10F7F00070BD90F801C0BCF15D0FEED06445ECDC4B
:10F80000661C02300EEB060202F8011BA2EB0E038F
:10F81000013B9C45F8DCACEB0403013B6445A8BF0D
:10F8200000230235F418D1E72DE9F843074688464E
:10F8300016464FF00009D6E90154013D10D4A389C2
:10F84000012B08D9B4F90E3001332146384602D0D5
:10F85000C04749EA0009013D6B1C04F16804EED180
:10F860003668002EE7D14846BDE8F883F03070478F
:10F8700000487047241200100048704724120010FE
:10F880002DE9F04F2DED028B9DB0884600210792A7
:10F89000189100220021CDE90412834641461791B8
:10F8A0000F4611F8012B2D2A5ED801A050F822F046
:10F8B00083FA000069F9000069F9000069F90000A5
:10F8C00069F9000069F9000069F9000069F90000B0
:10F8D00069F900009FF800009FF800009FF8000001
:10F8E0009FF800009FF8000069F9000069F9000026
:10F8F00069F9000069F9000069F9000069F9000080
:10F9000069F9000069F9000069F9000069F900006F
:10F9100069F9000069F9000069F9000069F900005F
:10F9200069F9000069F9000069F9000069F900004F
:10F930009FF8000069F9000069F9000069F900000A
:10F9400069F9000069F9000069F9000069F900002F
:10F9500069F9000069F9000069F900002B00010055
:10F9600069F900003F00010000210891302A00F0F1
:10F970009780002309932F2A144640F202854FF006
:10F98000000938464E464D4613E00130082D1790C9
:10F99000C8BF09EB89090478C6BF02EB4902A2F18E
:10F9A0003009A3F130062F2C05F10105224640F362
:10F9B000B88006EB8603392C02EB4303E5DDB04942
:10F9C000012202F06FFE00287BD1179A1346013204
:10F9D00017925C78002D40F0A285302C40F09C8579
:10F9E00013461846013317931C78302CF9D0C2F116
:10F9F00001031844A4F13103082B36D8179F431C88
:10FA0000A4F1300E0D9301253C464FF0000A06EBA1
:10FA100086060EEB46060020631C17936478A4F15B
:10FA20003002092A00F2F182179C01309646002A22
:10FA3000F2D00128D8BF05F1010C40F3FB8600EBA2
:10FA4000050C0CF1FF3103E05E00A94200F0F286E4
:10FA5000082D06EB860305F10105F5DD102DDCBF51
:10FA600009EB89094FEA4909EFE7652C40F0EA8282
:10FA700000230122CDE90C239A46099B034340F061
:10FA8000D282079B9FED7C8B0BB1C3F80080B0EE58
:10FA9000480AF0EE680A1DB0BDEC028BBDE8F08F9D
:10FAA0007A7802F0DF02582A00F02E840137179787
:10FAB0003A78302AFAD0002A00F08F820123099385
:10FAC00059E70020CDE90C00AA46652C36D0452C1C
:10FAD00034D000230E93002D7CD1099B034340F0CA
:10FAE0007C820C9B002BCCD1692C00F0778400F336
:10FAF0007084492C00F072844E2CC2D1614917A841
:10FB000004F062FD0028BCD0179B1B78282B00F066
:10FB100083855D4804F05CFEB0EE408AF0EE608ABA
:10FB20005DE25749012202F0BDFD0028C9D1179BB3
:10FB30000D905A1C17925C78AA4670E7002D9CD055
:10FB4000DDF85C8008F10103179398F801402B2C35
:10FB500000F066822D2C00F05B824FF0000CA4F1C7
:10FB60003001092900F24C82302C179B0AD1013355
:10FB700017931C78302CFAD0A4F13102082AA8D8A7
:10FB8000A4F130015A1C17925C782F2C40F30D849D
:10FB900096460E9308E0013217929EF801402F2CF2
:10FBA000A3F1300106DD964601EB8103392C04EB0D
:10FBB0004303F0DD0E9BD21A082A40F3F68344F685
:10FBC0001F630E93BCF1000F85D00E9B5B420E931A
:10FBD000002D82D0DDE90D23BAF1000F08BFAA463F
:10FBE0009B1A102D30460C932C46A8BF102407F00A
:10FBF00003F8092D02460B46CDE9042316DD234BFD
:10FC000003EBC40353E9122307F070F80246484699
:10FC10009046894606F0F0FF02460B4640464946AC
:10FC200006F0AEFE0F2DCDE9040131DC0C9B002B5C
:10FC300000F039830C9B40F36882162B40F3BC83A1
:10FC40000C9AC5F12503934222DB104CC5F10F0538
:10FC500004EBC501DDE90423D1E9000107F046F812
:10FC60000C9B5D1B04EBC504D4E9002307F03EF8B0
:10FC700041EC180BB3E100BF0000000000000000E1
:10FC800088B103001CB0030000B10300489A0300D0
:10FC90000C9B2C1B1C44002C40F3DA8114F00F0049
:10FCA0000AD03B4901EBC001DDE90423D1E90001A1
:10FCB00007F01CF8CDE9040134F00F034BD0B3F585
:10FCC0009A7F00F3A083102BDFF8D8E04FEA2314CB
:10FCD00040F3E884DDE904234FF0000C0997F04677
:10FCE000E146774614F0010F1046194607D0D8E9CF
:10FCF000002306F0FBFF4FF0010C02460B46641098
:10FD0000012C09F1010908F10808EBD1BE46099F51
:10FD1000BCF1000F01D0CDE90423059BA3F154737E
:10FD20000EEBC9010593DDE90423D1E9000106F0DA
:10FD3000DDFF184BCDE904010B400A4616498B4202
:10FD400000F2618315498B4240F24484144C4FF019
:10FD5000FF33CDE904340023099300962B46524625
:10FD60003946584604F0E2FD1290002800F04B831B
:10FD7000DDE90D329B1A0C9A002AA8BF00230D93CF
:10FD80004FF0000922EAE2731393CA46E6E000BF8F
:10FD9000489A03000000F07F0000A07C0000907CE7
:10FDA000FFFFEF7F389B0300D21A1F2AA4EB020447
:10FDB00000F33B82012303FA02F500231093099B11
:10FDC00026444444A0451E444346A8BF2346B342AC
:10FDD000A8BF3346002B03DDE41AF61AA8EB03088C
:10FDE0000D9B002B00F3CA81002C00F3E0810C9BDB
:10FDF000002B00F31082002E00F30282B8F1000FF6
:10FE000008DD51464246584604F07AFF82460028F3
:10FE100000F0FF8118993A46584605F00BF88146E4
:10FE2000002800F0F6810023C268C36051460E929C
:10FE300004F0DEFF0028C0F20284059E00F07C83FF
:10FE40005146484605F0A2F955EC104B00224FF000
:10FE500080432046294607F0C5F9002800F07E813E
:10FE60000E9B002B40F0EE81049B002B40F078822B
:10FE7000C6F31303002B40F01982B14B0022204639
:10FE8000294607F0A5F9002840F04D83AD4B00222C
:10FE90002046294606F02AFF0A460146CDE91012FF
:10FEA00002F100430A900B93DFF8A082A64B06EA0A
:10FEB00008089845DDE90A4500F0CB81099B1BB392
:10FEC000B8F1D46F20D89AA3D3E90023DDE910015B
:10FED00007F088F9A0B1DDE9100107F0DFF901288A
:10FEE00038BF012006F088FE0E9BCDE91001002BE3
:10FEF00040F08F8201F1004314901593DDE9144521
:10FF000005F1D663A3EB0805B0EE480AF0EE680AE7
:10FF100005F04CF8204653EC102B294606F0E6FE7F
:10FF200053EC182B06F02CFDCDE904010C46099B7F
:10FF300023B9864B2340984500F0C1811899584653
:10FF400004F09AFC3946584604F096FC514658464F
:10FF500004F092FC4946584604F08EFC129C584628
:10FF6000616804F063FC0746002800F052812269B2
:10FF70000232920004F10C010C30FDF733FF9DEDCD
:10FF8000048B1AAA19A95846B0EE480AF0EE680A7E
:10FF900005F09CF81890002800F0128101215846C5
:10FFA00004F070FD8246002800F03381199B002B7D
:10FFB000C0F221810D9A139E03EB0208099A1A9C44
:10FFC0009B1A2344624A013B9342C4F13604FFF674
:10FFD000EBAE002310930125F1E69FED578B079AB6
:10FFE0000AB1179B1360089B002B3FF450AD18EE2D
:10FFF000901A18EE102A01F1004343EC182B46E545
:020000021000EC
:100000000023CDF85C800E9365E501230C935CE53D
:100010004FF0010C08F10203179398F802409EE597
:100020004FF0000CF6E700258AE500220892791CC3
:1000300017917A78002A3FF424AD0F4696E4012206
:100040000892F4E7452C3FF413AD01230C9344E5EB
:100050003FF481AE644214F00F020AD03D4B03EB33
:10006000C203DDE90401D3E9002306F069FFCDE90D
:10007000040124113FF46FAE1F2C40DC14F0100378
:1000800018BF6A230993DDE90423DFF8CC804FF021
:10009000000C14F0010F1046194607D0D8E90023D0
:1000A00006F024FE4FF0010C02460B46641008F1E6
:1000B0000808EED1BCF1000F01D0CDE90423099B63
:1000C000A3B1DDE90401C1F30A52C2F16B03002BB5
:1000D0000ADD1F2B40F327830020342B049040F3CC
:1000E0008E834FF05C7305936A230993DDE9040165
:1000F0000022002307F062F800283FF42EAE2223EE
:100100009FED0D8BCBF8003069E71633FFF6C0ADDD
:10011000DDE90D329A1A0F4B03EBC203DDE904014E
:10012000D3E9002306F00CFF41EC180B57E700BFA2
:100130000000C0FFFFFFDF410000000000000000E2
:100140000000F03F0000E03F0000E07F0000F07F93
:1001500002FCFFFF489A0300F0980300BE4B2046C4
:100160002946002206F0C2FD0E9BCDE91001002BAE
:1001700063D101F100430A900B9395E651461A466C
:10018000584604F063FD8246002842D00146189A82
:10019000584604F0A5FC00283BD00E90189958460C
:1001A00004F06AFB0E9B1893002C7FF720AE189981
:1001B0002246584604F0A4FD189000287FF417AE9C
:1001C00005469FED978B2223CBF8003029465846F1
:1001D00004F052FB3946584604F04EFB514658464F
:1001E00004F04AFB1299584604F046FB494658462B
:1001F00004F042FBF3E6139ADDF83480D61ADDE60C
:1002000039463246584604F07BFD074600287FF405
:10021000F5AD189DD5E73946139A584604F016FDFA
:10022000074600287FF4E7ADF3E78C4AD31A012292
:1002300002FA03F310931546C1E59DED107B8DED99
:100240000A7B31E69FED787B8DED0A7B8DED107B8F
:100250002AE6A6F154730593DDE9044545EC104BFD
:1002600004F0A4FEDDE90A2351EC100B06F03EFD7C
:1002700022462B4606F084FB794A7A4B0A409A4282
:10028000CDE9040179D918EE902A03F154739A420A
:1002900003D118EE103A0133BBD0734C4FF0FF334B
:1002A000CDE904344AE69DED048B98E69FED607B32
:1002B0008DED0A7B9FED5C7B8DED107BF4E5DDE938
:1002C00010562846314607F071F806F0E1FC024668
:1002D0000B462846314606F051FB0E9D049EC4F3A2
:1002E0001304354302460B462543CDE90E2325D1A1
:1002F00051A3D3E9002306F06BFF00283FF41EAEA4
:100300009DED048B189D61E70293089B019318AB48
:100310000093564A19AB17A9584601F007FE10F092
:100320000F0504463FF459AE062D40F0A980013771
:1003300000239FED438B1797089350E642A3D3E920
:10034000002306F045FF0028DAD1DDE90E0140A3C5
:10035000D3E9002306F05AFF00283FF4EFADCFE7C2
:10036000049B012BA2D1002EA0D1189C22239FED2B
:10037000348B2546CBF8003028E701F154740594FE
:10038000D5E53B490122384602F08CF9002800F0FF
:10039000BA804FF000094E464846CDF834904D469D
:1003A000CDF83090CA46FFF792BB44F61F639942DE
:1003B000A8BF19460E9105E40C982E4901EBC00127
:1003C000DDE90423D1E9000106F090FC41EC180BB3
:1003D00005E66E2C3FF492ABFFF753BB264917A8F6
:1003E00004F0F2F800283FF44CAB179B2349013B83
:1003F00017A8179304F0E8F810B9179B0133179367
:100400009FED078BEBE522239FED058BCBF80030AA
:10041000E5E59DED107B8DED147B6FE5AFF300807E
:10042000000000000000F07F000000000000F03F2E
:10043000000000000000F0BF9535A094FFFFCF3F03
:1004400000000000000000009535A094FFFFDF3F92
:1004500035E5AF350000E03F0000E03FE2FBFFFF85
:100460000000F07FFFFF9F7CFFFFEF7FC898030035
:1004700088B10300489A030010B0030014B00300D1
:10048000189A3AB135211AA804F0D0FE18995846A6
:1004900004F0F2F9013D199B042D00F2DE81DFE842
:1004A00005F0032C291E03001A9A049203F233422A
:1004B0001B9B23F4801343EA02530593E20502D504
:1004C00043F000430593B64A1A409DED048B002A81
:1004D0007FF485AD02F02CF9222303607FE54FF015
:1004E000FF326FF00043CDE90423E3057FF5DBAE77
:1004F000059BE5E7AA4B0593F7E7DDE91A121B9B7D
:10050000CDE90412DAE7179A1346013217925C78A4
:1005100006468146FFF761BA0020FFF76BBAAA468C
:100520000D90FFF77CBA9FED9A7B8DED0A7B9FEDD6
:100530009A7B8DED107BB7E40E9BDDF840C09949A6
:10054000A846C6F31302002B49D08A4200F0F3807C
:10055000BCF1000F37D1049B1D4237D0B0EE480AE2
:10056000F0EE680A04F022FD099B51EC100B002B01
:1005700000F04D81C6F30A53C3F16B03002B07DD76
:100580001C0504F17F53002203F5401306F0AEFB77
:1005900002460B4651EC180B06F0F2F941EC180B31
:1005A000814B51EC180B002206F0A0FB41EC180B1C
:1005B0007B4B18EE902A1340002B7FF4A3AE22232E
:1005C000CBF800309EE61CEA060FC7D1099B002B32
:1005D000E6D197E602F154730593FFF7BCBB002AFE
:1005E00064D1DDE90401002840F09680099B002BCE
:1005F00040F0F48021F00044240D2405A4F580147B
:100600006FEA14536FEA035305934FF0FF330493DB
:100610009DED048B189DD9E5644917A81AAA03F02B
:10062000EFFF05287FF475AA1B9B43F0FF4343F4BB
:10063000E00305931A9B04939DED048BCFE4DDE961
:1006400004010E9B0343C1D1C1F31303002BBDD1A1
:1006500021F00044240D2405B4F1D66F2546B5D908
:10066000D9F814301BB9D9F81030012BAEDD49464A
:100670000122584604F044FB5146814604F0B8FB81
:100680000028A3DD099B002BB8D0A5F580156FEAE3
:1006900015536FEA035305934FF0FF3304939DED19
:1006A000048B7DE74FF00009FFF737BBBCF1000F6B
:1006B0002DD1049B1D4289D0B0EE480AF0EE680AA5
:1006C00004F074FC099B51EC100B002B72D0C6F3A4
:1006D0000A53C3F16B03002B07DD1C0504F17F53A4
:1006E000002203F5401306F001FB02460B4651ECD5
:1006F000180B06F043F902460B4643EC182B002278
:10070000002306F05BFD00283FF44AAF2DE61CEA0B
:10071000060F3FF45BAFCFE7BCF1000FF7D12842E3
:100720003FF454AFC8E74FF0FF3202FA03F3049AE4
:100730001A400492D8E4099B0499B3B1184A324094
:10074000B2F1D46F11D8120DC2F16B024FF0FF302D
:1007500000FA02F291420BD0BCF1000F7FF433AFEC
:1007600011EA080F3FF432AFF8E64FF0FF32F1E73D
:100770000F4A964255D00A4A324002F5801305933B
:10078000002304939DED048B20E700BFAFF30080AE
:10079000000000000000E0BF000000000000E03F9B
:1007A0000000F07FFFFF0F0000005039DC980300CD
:1007B000FFFFEF7F02460B4651EC180B06F0DEF808
:1007C000189C02460B4643EC182B002200232546BA
:1007D00006F0F4FC00283FF4F9ACC7E5244D3540A1
:1007E000B5F1D66F3FF651AFB5F15C7F3FF6D8AEAD
:1007F00022239FED1B8B189DCBF80030E6E4C2F15D
:100800004B024FF0FF3393400B4005936CE40246DC
:100810000B4651EC180B06F0B3F8189D41EC180B81
:10082000D4E40131A7D122239FED0F8B189DCBF883
:100830000030CBE40D9B082D03440D9302DC65468C
:10084000FFF7E5B8BCF1100FDCBF09EB890902EB3B
:10085000490965460020FFF7DFB800232EE600BFF8
:100860000000000000000000000000000000F07F19
:100870000000F07F014BFFF703B800BF34110010F8
:1008800010B4054C8446134620685DF8044B0A46B4
:100890006146FEF7F5BF00BF0010001010B4054C14
:1008A000054B84460A4620685DF8044B6146FEF716
:1008B000E7BF00BF00100010341100102DE9F04117
:1008C000DFF8A480044613462DED028B0A46D8F8C3
:1008D00000002146FEF7D4FF55EC104B22462B4674
:1008E0002046294606F09CFC50BB2046294606F0CF
:1008F000F5FC08EE100ADFED197AB0EEC87AB4EE16
:10090000677AF1EE10FA15DD25F00047144B4FF031
:10091000FF322046394606F083FC38B9104B4FF0C1
:10092000FF322046394606F05DFC18B1D8F8003099
:1009300022221A60B0EE480ABDEC028BBDE8F081BD
:10094000002D084804DAFEF745FEB1EE408AF1E7D3
:10095000BDEC028BBDE8F041FEF73CBEFFFF7F7FA0
:10096000FFFFEF7F00B10300001000102DE970437E
:100970002C4E2D4B04460A462DED028B2146306845
:10098000FEF77EFF55EC104B22462B4620462946AB
:1009900006F046FCC0BB2046294606F09FFC08EE48
:1009A000100ADFED227AB0EEC87AB4EE677AF1EE83
:1009B00010FA1ADD25F000491D4B4FF0FF3220469A
:1009C000494606F02DFC38B9194B204649464FF0F0
:1009D000FF3206F007FC40B1336822221A60B0EE05
:1009E000480ABDEC028BBDE8708318EE103A13F094
:1009F000FF4FF4D10F4B2B40002BEDD1B0EE480A46
:100A0000BDEC028BBDE87083002D0B4804DAFEF7C5
:100A1000E1FDB1EE408AE2E7BDEC028BBDE8704338
:100A2000FEF7D8BD0010001034110010FFFF7F7FCB
:100A3000FFFFEF7F0000F07F00B1030042B110B56F
:100A40000B4910461446FBF76BFD18B9094810BD59
:100A50000848704707492046FBF762FD0028F5D09B
:100A600005492046FBF75CFD0028EFD0002010BDB3
:100A700024B0030020B0030000B10300014B93F841
:100A8000280170473411001041B110B50C462046C2
:100A90000A49FBF745FD18B9094810BD08487047D9
:100AA00007492046FBF73CFD0028F5D005492046C4
:100AB000FBF736FD0028EFD0002010BD24B0030066
:100AC00020B0030000B103002DE9F04FBFB00C4689
:100AD0000791924609930890FEF7CAFE03681093A7
:100AE0001846FBF78DFBA3890F901E0603D52369DB
:100AF000002B00F0A8869FEDA47B0023CDE92233D4
:100B0000CDE911338DED0C7B2EAA0E9321929146E7
:100B10000593D3469BF80030002B00F042815C46E1
:100B200004E014F8013F002B00F01981252BF8D1C7
:100B3000B4EB0B0540F016812378002B00F03181D7
:100B40004FF000038DF8673000276378049704F1B5
:100B5000010B4FF0FF3A0BF1010B9846A8F120036F
:100B6000582B00F22B81DFE813F0520229012901F2
:100B70004D02290129012901290129012901150213
:100B80004702290120022502290142025900590089
:100B900059005900590059005900590059002901BC
:100BA00029012901290129012901290129012901F5
:100BB00029016800A4012901A401290129012901B1
:100BC00029017D0229012901950029012901290115
:100BD00029012901A6002901290146062901290127
:100BE00029012901290129012901290129012901B5
:100BF0006F026A00A401A401A4016A026A0029012B
:100C000029015D022901B9029700A802A302290166
:100C100082022901A800290129016606A8F13003F2
:100C200000221BF8018B02EB820203EB4202A8F1C7
:100C30003003092BF5D9049290E747F01007BD0661
:100C400040F17781099B073323F007031A4659685F
:100C500052F8083B09920A460029C0F29581BAF180
:100C6000000F9DF8674007DB27F08001029153EAEF
:100C7000020100F0B283029F0A2B72F1000180F0A2
:100C80006D8630338DF8B7300123029706930DF14E
:100C9000B70550E047F0100717F0200200F0608120
:100CA000099B073323F0070319465A6851F8083B9C
:100CB000099100210FE047F0100717F0200200F023
:100CC0004581099B073323F0070319465A6851F8F9
:100CD000083B099101210024BAF1000F8DF867400B
:100CE00007DB27F08000029053EA020000F07683D1
:100CF000029F0129C0D0022900F0F1822EAD03F03D
:100D00000701DB0843EA4273D208303153EA020696
:100D1000284605F8011DF2D1FB0740F1EE8230298B
:100D200000F0EB823023023805F8013C2EAB1B1A91
:100D3000029706930546069B5345B8BF5346039357
:100D400000230B9314B1039B01330393029B13F015
:100D5000020345D0039B02330393022340E0B4EB2C
:100D60000B051ED0239B2B442393229B0133072B7F
:100D7000C9E900B522930BDC09F10809059B2B4456
:100D80000593D9E6AFF300800000000000000000EA
:100D9000DDE9071021AA03F0D9FB30B90DF1B8093C
:100DA000ECE7239B002B40F03C87079B9B895B066D
:100DB00001F10C8005983FB0BDE8F08FB8F1000F4D
:100DC000EFD000238DF8673001238DF890800393D6
:100DD000069324AD4FF0000A0297CDF82CA053469D
:100DE000029A239C12F084020A9205D1DDE90312D3
:100DF000561A002E00F304839DF867208AB1229AC8
:100E00000DF1670101320134C9F80010072A4FF0D3
:100E1000010123942292C9F8041000F32A8309F1F6
:100E2000080983B1229A1AA901320234C9F80010C4
:100E3000072A4FF0020123942292C9F8041000F30C
:100E4000268309F108090A9B802B00F0BD81069BCF
:100E5000AAEB0306002E00F3F981029BDE0500F1E8
:100E60004A81069BC9F804301C44229BC9F80050F3
:100E70000133072B2394229300F3588209F10809C8
:100E8000029B5A0705D5DDE903239D1A002D00F3C7
:100E90000A83DDE9042303998A42ACBF9B185B18DF
:100EA0000593002C40F02E82002322930DF1B80907
:100EB00030E6099B073323F00703B3EC027B55ECC4
:100EC000174B099325F0004315938DED147ADDE956
:100ED0001401B74B4FF0FF328DED0C7B06F0A0F9FB
:100EE000002840F01084DDE91401B14B4FF0FF32CF
:100EF00006F078F9002840F00684002200232046FE
:100F0000294606F065F9002840F025869DF86740DF
:100F1000A84D27F080030293A74BB8F1470FD8BF25
:100F20001D464FF0000A032303930693CDF82CA02F
:100F300008E7099AFC0652F8043B09921FD4780688
:100F40001DD543F3C03211461BB285E6099951F80D
:100F5000043B099117F0100100F0CD830121BAE69E
:100F6000099951F8043B099117F010017FF4A1AEE3
:100F700017F040023FF49DAE0A469BB299E6DA179D
:100F800011460029BFF66BAE5B4262EB42022D2494
:100F90000121A1E6099B53F8042B0492002A80F258
:100FA000A283049A0993524204929BF8003047F0BE
:100FB0000407D0E55A4612F8018BB8F12A0F00F069
:100FC0004E87A8F13003092B98BF4FF0000A00F2BA
:100FD000B98612F8018B0AEB8A0A03EB4A0AA8F1D8
:100FE0003003092BF5D94AEAEA7A9346B6E59BF82D
:100FF000003047F08007AEE52B238DF867309BF873
:101000000030A8E59BF8003047F00107A3E59DF804
:1010100067209BF80030002A7FF49DAD20228DF8D8
:10102000672098E59BF800306C2B03BF9BF80130DC
:1010300047F020070BF1010B47F010078BE59BF8F9
:10104000003047F0400786E5099B00228DF86720B5
:1010500053F8042B099301238DF8902003930693F2
:1010600024ADB7E69BF8003047F0080773E5099C0C
:1010700054F8045B00268DF86760002D00F012859F
:10108000BAF1000FC0F21A8452463146284604F0E5
:101090002FF9002800F04586431B069323EAE373EB
:1010A0000994B2469DF86740029703930B9649E670
:1010B0009BF8003047F020074DE5099A52F8043BB1
:1010C000099247F63002ADF868203C4A119247F089
:1010D0000207002202214FF07808FCE5BD0640F12E
:1010E0008183099B059A1B681A60D2175A60099B75
:1010F000043309930EE5B8F1650F40F32381DDE970
:101100000C010022002306F059F8002800F00782A5
:10111000229B2B4AC9F80020013301340122072BFE
:1011200023942293C9F8042000F3958409F1080957
:101130001B9B0E9A934203DB029BDD077FF5A0AE5B
:101140000F9B109A1C44C9E90023229B239401336E
:10115000072B229300F3998409F108090E9B5D1E69
:10116000002D7FF78DAE102D229B164F40F3D380BC
:10117000DDE907A8102605E009F10809103D102D4A
:1011800040F3C98001331034072BC9E90076CDE95B
:101190002234F1DD21AA5146404603F0D7F9002858
:1011A0007FF403AEDDE922340DF1B809E6E700BFB4
:1011B000FFFFEF7F30B003002CB0030050B00300FE
:1011C0006CB0030028990300DDE903239E1A002E6A
:1011D0007FF73DAE102E229BB74F24DD4A462146B5
:1011E000A946DDE9075404E0103E102E02F1080282
:1011F00016DD013310311020072BCDE922311760A5
:101200005060F1DD21AA2946204603F09FF900280D
:101210007FF4CBAD103E102EDDE922312EAAE8DCA2
:101220004D460C46914601333444072BCDE9223418
:10123000C9F80070C9F8046000F31A84069BAAEB91
:101240000306002E09F108097FF707AE102E229B36
:10125000994F2CDD4A462146B1464FF0100A2E46E2
:10126000DDE9075406E0A9F11009B9F1100F02F108
:10127000080218DD013390481031072BC2E9000A3B
:10128000CDE92231EFDD21AA2946204603F05EF99F
:1012900000287FF48AADA9F11009B9F1100FDDE93A
:1012A00022312EAAE6DC35460C464E4691460133E5
:1012B0003444072BCDE92234C9F80070C9F8046022
:1012C00000F3EA8109F10809C7E50129029F4FF0FF
:1012D00000033FF4D6AC02291A467FF40FAD1198F3
:1012E0002EAD03F00F011B09415C05F8011D43EA17
:1012F0000273120953EA0201F3D12EAB5B1B029772
:10130000069318E5DDE9071021AA03F01FF900286C
:101310003FF4CAAD49E501332C44072BC9F80070EE
:10132000C9F80450CDE922347FF7A8ADDDE90710F4
:1013300021AA03F00BF900287FF437AD239C0DF1AF
:10134000B8099DE50E9B229E012B04F1010406F1D4
:10135000010609F1080840F35B810123072ECDE95E
:101360002264C9F80050C9F8043000F3A2810F9B31
:10137000109A01361C44072EC8E90023CDE92264E7
:1013800000F3A48108F108080E9BDDE90C0103F1CC
:10139000FF390022002305F011FF002840F053819F
:1013A000013601354C44072ECDE92264C8F80050BF
:1013B000C8F8049000F33A8108F10808129BC8F8B5
:1013C000043001361C44072E1DABCDE92264C8F859
:1013D0000030ABDC08F1080952E50121BAF1000F39
:1013E0007FF473AF002940F00E8117F001030693DC
:1013F00000F07E8130238DF8B7300DF1B7059AE407
:10140000102E229A2D4F26DD49462046A9461393D9
:10141000DDE9075404E0103E102E01F1080116DD4D
:10142000013210301023072ACDE922200F604B60D3
:10143000F1DD21AA2946204603F088F800287FF430
:10144000B4AC103E102EDDE922202EA9E8DC139B5F
:101450004D460446894601323444072ACDE9222408
:10146000C9F80070C9F8046000F3B28209F10809F4
:10147000C2E4DDE9071021AA139303F067F80028FE
:101480007FF493AC239C139B0DF1B809C9E4DDE90B
:10149000071021AA03F05AF800287FF486AC239C99
:1014A0000DF1B809CFE4102D229B044F24DDDDE9B6
:1014B00007A8102609E000BF289903001899030027
:1014C000103D102D09F1080916DD01331034072BEA
:1014D000C9E90076CDE92234F2DD21AA5146404621
:1014E00003F034F800287FF460AC103D102DDDE9E6
:1014F00022340DF1B809E8DC01332C44072BC9E98B
:101500000075CDE922347FF7C4ACDDE9071021AACC
:1015100003F01CF800287FF448AC239CB9E41B9925
:10152000002940F364820B9F0E9B9F42A8BF1F4679
:10153000002F0BDD229B01333C44072BC9E90057E8
:101540002394229300F3CF8309F108090B9E002F07
:10155000A8BFF61B002E00F385811B9B0E9A9342B9
:1015600080F26C810F9A10991444C9E90012229AF2
:1015700023940132072A229200F3F28209F108092A
:101580000E9A0B99D31A561A9E42A8BF1E46002ED9
:101590000EDD229AC9F8046001320D443444072A52
:1015A000C9F800502394229200F3A98309F1080995
:1015B000002EACBF9D1B1D46002D7FF761AC102D8A
:1015C000229BBB4F7FF7A7AEDDE907A8102605E0F9
:1015D00009F10809103D102D7FF79DAE013310343D
:1015E000072BC9E90076CDE92234F1DD21AA514665
:1015F000404602F0ABFF00287FF4D7ABDDE9223490
:101600000DF1B809E6E7CDF818A02EADFFF793BBB2
:10161000029BD9073FF5A1AE0123072ECDE9226435
:10162000C9F80050C9F804307FF7C8AEDDE90710EB
:1016300021AA02F08BFF00287FF4B7ABDDE922641A
:101640000DF1B808BAE60E9B012B7FF7B7AE112B50
:10165000974F40F36582DDF820A0102507E008F1E0
:101660000808A9F11009B9F1100F40F359820136A9
:101670001034072EC8E90075CDE92264EFDD079923
:1016800021AA504602F062FF00287FF48EABDDE90C
:1016900022640DF1B808E4E7DDE9071021AA02F0A1
:1016A00055FF00287FF481AB239C0DF1B809FFF7AB
:1016B000D4BBDDE9071021AA02F048FF00287FF41F
:1016C00074ABDDE922640DF1B80850E6DDE90710DE
:1016D00021AA02F03BFF00287FF467ABDDE922641A
:1016E0000DF1B80850E609939BF80030FFF733BAC4
:1016F0002EADFFF720BB17F040021CBF0A469BB27D
:101700000121FFF7E8BADDE90C0102460B4605F0BE
:1017100087FD002840F05F83BAF1FF3F28F02006E4
:1017200000F0FC82472E04D1BAF1000F08BF4FF041
:10173000010ADDE90C0147F4807200290292C0F22F
:1017400029829DED0C7B8DED167B00230A93B8F169
:10175000650F00F0F28200F32482B8F1450F00F02B
:10176000EC821FAB01931CAB009302219DED160B85
:1017700008981BAB524601F025FCF907054640F1DD
:10178000A88000EB0A04DDE916010022002305F021
:1017900015FD002840F025821F9BA34206D2302170
:1017A0005A1C1F9219701F9B9C42F9D81B9A0B92CE
:1017B0005B1B472E0E9300F09180B8F1660F40F04E
:1017C00093800B9A07F00103002A43EA0A0340F3CF
:1017D0006182002B40F019830B9B039306934FF01B
:1017E000660814E2FC066FD478066DD5099B059A4D
:1017F0001B681A807BE42F4B119317F0200200F036
:101800009F80099B073323F0070319465A6851F854
:10181000083B0991F90740F1908053EA020100F07A
:101820008C8030218DF868108DF8698047F00207B0
:101830000221FFF750BA204B1193DEE7029AD0073E
:101840007FF59EAE8EE60898402101F07BF8079B5D
:1018500018601861002800F0B682079A402353618F
:10186000FFF749B9102E229B114F40F366812246A3
:101870004FF01008DDE9074A05E009F10809103EBC
:10188000102E40F3598101331032072BC9E900783B
:10189000CDE92232F1DD21AA2146504602F056FE62
:1018A00000287FF482AADDE922320DF1B809E6E7CB
:1018B000289903003CB0030050B003002846FAF713
:1018C0009FFC0346FFF7E9BB099B059A1B681A605A
:1018D0000DE41F9B1B1A0E931B9B0B930B9BDA1C97
:1018E00080F28381A8F102080B9B8DF87480591E49
:1018F00000291B91B6BFC3F101012B232D23092918
:101900008DF8753000F39C81302330318DF87630BE
:1019100004238DF8771012930E9A129B012A134418
:10192000069340F31482069B0F9A1344069323EA0E
:10193000E373039300230B9369E10221FFF7CBB913
:10194000099951F8043B099117F010017FF462AF37
:1019500017F040021CBF9BB20A465BE7CDE9028745
:10196000B34E2EAD4FF0050E991841F10001A6FBC4
:10197000010727F0030000EB9700091A581A984650
:10198000944662F100034FF0CC3202FB00F206FBFA
:101990000322A0FB063003F001070244A7FB0E0759
:1019A0004018B8F10A0F4FEA530300F130007CF100
:1019B000000C43EAC27305F8010D4FEA5202D3D27C
:1019C000DDE902872EAB5B1B02970693FFF7B3B9E5
:1019D000DDE9071021AA139302F0B8FD00287FF477
:1019E000E4A9239C139B0DF1B809FFF705BA229BCC
:1019F000904AC9F80020013301340122072B2394B7
:101A00002293C9F8042000F3B88009F108090029DD
:101A100052D1029B0E9A03F0010313433FF430AA04
:101A20000F9B10991A19C9E90013229B23920133C5
:101A3000072B229300F3378109F108090E99C9F8A1
:101A4000005001338C18072BCDE92234C9F804105B
:101A50007FF714AA6AE4DDE9071021AA02F076FDF7
:101A600000287FF4A2A9239C0DF1B809FFF760BB01
:101A7000DDE9071021AA02F069FD00287FF495A98D
:101A8000239C0DF1B809FFF7E2B9DDE9071021AA9F
:101A900002F05CFD00287FF488A9239C0DF1B809B1
:101AA000FFF75CBB5346062B28BF0623624D069307
:101AB00009940393FFF78EB90F9B10981A19C9E97F
:101AC0000003229B23920133072B229300F3EB8028
:101AD00009F108090029B1DA4E421031574F80F25E
