:020000040000FA
:10C00000E812001001C100001FC10000C5C20000FD
:10C0100021C1000023C1000025C100000000000074
:10C0200000000000000000000000000027C1000028
:10C0300029C10000000000002BC100002DC100003C
:10C040002FC100002FC100002FC100002FC1000030
:10C050002FC100002FC100002FC100002FC1000020
:10C060002FC100002FC100002FC100002FC1000010
:10C070002FC1000045EE000011EE00007D1401000C
:10C080002FC100002FC100002FC100002FC10000F0
:10C090002FC100002FC100002FC100002FC10000E0
:10C0A0002FC100002FC100002FC100002FC10000D0
:10C0B0002FC100002FC100002FC100002FC10000C0
:10C0C0000000000000000000000000000000000070
:10C0D0000000000000000000000000000000000060
:10C0E0000000000000000000000000000000000050
:10C0F0000000000000000000000000000000000040
:10C100004EF68850CEF20000016841F470010160E3
:10C11000BFF34F8FBFF36F8F05480047FEE7FEE781
:10C12000FEE7FEE7FEE7FEE7FEE7FEE7FEE7FEE7E7
:10C1300035C1000000F002F800F0B4F80AA090E861
:10C14000000C82448344AAF10107DA4501D100F0D2
:10C15000A9F8AFF2090EBAE80F0013F0010F18BFEB
:10C16000FB1A43F001031847542C0200742C020000
:10C170000A444FF0000C10F8013B13F0070408BF0D
:10C1800010F8014B1D1108BF10F8015B641E05D0AB
:10C1900010F8016B641E01F8016BF9D113F0080F60
:10C1A0001EBF10F8014BAD1C0C1B09D16D1E58BFF2
:10C1B00001F801CBFAD505E014F8016B01F8016B29
:10C1C0006D1EF9D59142D6D370470000002300249C
:10C1D00000250026103A28BF78C1FBD8520728BF97
:10C1E00030C148BF0B6070476E2900F0B1847029E0
:10C1F00000F0F38566291FF05A8465291FF05784E3
:10C2000067291FF0548461291FF0538403681B0AB7
:10C2100028BF41F08001692900F05E84642900F0A4
:10C220005B84752900F058846F2900F08085782997
:10C2300000F0BF85E92900F01B85E42900F018858E
:10C24000F52900F01585EF2900F07D85F82900F02B
:10C25000BE850368DB0928BF41F08001632901F036
:10C260006583732901F06A83E32901F07583F3295B
:10C2700001F07A83002070471FB51FF00EFC00F01C
:10C280002CFA00F011FF0400002000211FF05AFBDF
:10C29000401C6060002000211FF06AFBE0601FBDB1
:10C2A00010B510BD01F03EFD1146FFF7E5FF10F09F
:10C2B00025F901F00FFE03B4FFF7F2FF03BC01F014
:10C2C00013FE000001B51EF0040F0ABFEFF3088053
:10C2D000EFF3098010F1080005F008F901BD8000B6
:10C2E0004018006870470000EFF3108062B6704796
:10C2F000EFF3108072B6704780F31088704700002B
:10C300000B49D1F800C04A685CF8043B1068184437
:10C3100042F8040B8C4528BFA1F1DC0C8A4228BFEF
:10C32000A1F1DC02C1F800C04A6020F00040704773
:10C33000D076001002480349014A034B70470000C1
:10C3400038770010E8120010E8020010B2F1200364
:10C350000AD5C2F1200301FA02F120FA03F300FA30
:10C3600002F041EA0301704700FA03F14FF00000C8
:10C370007047B2F120030AD5C2F1200320FA02F07F
:10C3800001FA03F321FA02F140EA0300704721FAAF
:10C3900003F04FF0000170471CB50C46064B7B4480
:10C3A00069460090204600F0ECFB044600206946F8
:10C3B00000F0FAFB20461CBD070800000FB400B5D2
:10C3C0008DB010A9099000910B904FF0FF300A90AA
:10C3D00000200C90064878440690064878446A4647
:10C3E00007900F9909A800F0DBFD0DB05DF814FB74
:10C3F000E70B0000FF0B00002DE9FF5F1D464FF02B
:10C40000FF3B91464FF000085F46D5E90146A96918
:10C4100001987F1C8847296A824688470028F6D100
:10C42000BAF1FF3F0CD0002E24F4C06419DD600681
:10C4300014D5BAF12B0F09D0BAF12D0F0ED103E0AC
:10C44000584604B0BDE8F09F44F48064A96901989F
:10C450007F1C8847761E8246002E02DDBAF1300F1F
:10C4600003D0B9F1000F26D032E0A969761E0198F9
:10C470007F1C44F400748847002E824605DDBAF123
:10C48000780F06D0BAF1580F03D0B9F1000F10D0D1
:10C490001EE0B9F1000F02D0B9F1100F18D1A9694F
:10C4A000761E01987F1C24F4007488478246102071
:10C4B00002E0082000E00A20814609E0A96908FBA3
:10C4C0000908761E01987F1C44F400748847824650
:10C4D000002E05DD4946504600F04EFD0028EDDAFD
:10C4E000E96901988847A00502D46FF00100A8E728
:10C4F000E00725D1600613D5600502D5C8F100001C
:10C5000000E0404629680A1D2A600968220501D515
:10C51000087015E0220701D5088011E008600FE0DF
:10C520002868011D29600068210502D580F8008077
:10C5300006E0210702D5A0F8008001E0C0F80080E5
:10C5400038467EE72DE9FF5F4FF000089946144614
:10C5500046469169D2E901A7DDF838B001988847CD
:10C56000054659EA0B0005D009E0A1690198761C3F
:10C5700088470546216A284688470028F5D1681C67
:10C5800003D05FEACA7005D015E04FF0FF3004B069
:10C59000BDE8F09F2068011D2160D0F800800AE00E
:10C5A0005FEACA7001D108F8015BA169761C0198A5
:10C5B0007F1E88470546002F1ADD681C18D0B9F188
:10C5C000000F0DD0E81705EBD060421120F01F00DE
:10C5D00059F822102A1A012090400142E0D107E0C8
:10C5E000BBF1000FDCD12846216A88470028D7D04C
:10C5F000E16901988847BBF1000F07D1002E05DDE6
:10C600005FEACA7002D1002188F80010A068B84221
:10C6100003DDBBF1000F03D017B16FF00100B6E7E7
:10C620003046B4E770B5064600F0E2F90468054606
:10C6300030460A22002100F002F82C6070BD2DE97E
:10C64000F04791460F4680460446002614F8015BE9
:10C650002DB100F0C5F90068405DC007F6D12B2D63
:10C6600002D02D2D18D0641E4A463946204600F0CF
:10C67000C7FC27B13968A14201D1C7F800804FF04B
:10C68000020471050BD54042002803DD00F0B0F92B
:10C690000460A007BDE8F08746F48066E4E7002860
:10C6A000F8DA00F0A5F904606FF00040F2E700004E
:10C6B0000B4910B5A1F17C020A4CC2E937123721AF
:10C6C00006E000EB104342F82130074B00FB03402B
:10C6D0000B1EA1F10101F4DC10BD0120E8E7000010
:10C6E00070760010E119D666CD0D0100401ECAB269
:10C6F00010F8011F8A4202D00029F9D100207047AA
:10C7000040EA0103024630B59B0710D14FF00134D7
:10C7100000E008C208C91D1B9D4315EAC41FF8D0DC
:10C7200013F0FF0102F8011B0DD01B0AF8E711F806
:10C73000013B002B02F8013B05D011F8013B002B17
:10C7400002F8013BF3D130BD2DE9F0410E4605461C
:10C75000002400E0641C285D00F04EF90746305DBF
:10C7600000F04AF9381A02D1295D0029F2D1BDE85A
:10C77000F0810022CBB210F8011B994200D1421E79
:10C780000029F8D11046704710B5431C02E010F89C
:10C79000011B71B18107FAD14FF0013202C88C1A26
:10C7A0008C4314EAC211F9D0C01A0A0603D0C01E85
:10C7B00010BDC01A10BD0A0401D0801E10BD0902B0
:10C7C000FCD0401E10BD032A40F2308010F0030C54
:10C7D00000F0158011F8013BBCF1020F624498BFD4
:10C7E00011F801CB00F8013B38BF11F8013BA2F171
:10C7F000040298BF00F801CB38BF00F8013B11F0EC
:10C80000030300F02580083AC0F0088051F8043B8B
:10C81000083A51F804CBA0E80810F5E7121D5CBFF8
:10C8200051F8043B40F8043BAFF30080D20724BF2B
:10C8300011F8013B11F801CB48BF11F8012B24BFBF
:10C8400000F8013B00F801CB48BF00F8012B70470E
:10C8500010B5203AC0F00B80B1E81850203AA0E89B
:10C860001850B1E81850A0E81850BFF4F5AF5FEACF
:10C87000027C24BFB1E81850A0E8185044BF18C982
:10C8800018C0BDE810405FEA827C24BF51F8043B29
:10C8900040F8043B08BF7047D20728BF31F8023B7D
:10C8A00048BF11F8012B28BF20F8023B48BF00F811
:10C8B000012B704702F0FF0343EA032242EA0242DF
:10C8C00000F002B84FF000020429C0F0128010F00E
:10C8D000030C00F01B80CCF1040CBCF1020F18BF5C
:10C8E00000F8012BA8BF20F8022BA1EB0C0100F0EF
:10C8F0000DB85FEAC17C24BF00F8012B00F8012BC2
:10C9000048BF00F8012B70474FF0000200B51346F6
:10C9100094469646203922BFA0E80C50A0E80C505F
:10C92000B1F12001BFF4F7AF090728BFA0E80C5010
:10C9300048BF0CC05DF804EB890028BF40F8042B09
:10C9400008BF704748BF20F8022B11F0804F18BF76
:10C9500000F8012B704700004FF0013C50F8042B09
:10C9600051F8043B9A4221D1A2EB0C03934313EA02
:10C97000CC1317D150F8042B51F8043B9A4215D12F
:10C98000A2EB0C03934313EACC130BD150F8042B06
:10C9900051F8043B9A4209D1A2EB0C03934313EAEA
:10C9A000CC13DBD04FF00000704700BFD01A01BAA3
:10C9B000B1FA81F101F0180122FA01F0CB40C1F186
:10C9C0002001DBB2C0B2C01A2CFA01F3D11A914394
:10C9D00011EAC311E6D170477047704770470000F5
:10C9E00010B500F061FB001D10BD00BF59EF010044
:10C9F00000487047D876001010B50446FFF7F0FFE6
:10CA00000068005DC00602D504F1200010BD20467C
:10CA100010BD70B5044685690068C10601D5302691
:10CA200000E02026C00707D070BDD4E901213046C0
:10CA30009047206A401C20626D1EF6D570BD70B50F
:10CA4000044685690078C00707D170BDD4E901218B
:10CA500020209047206A401C20626D1EF6D570BDD4
:10CA600009684A0501D540B27047C905FCD500B236
:10CA7000704709684A0501D5C0B27047C905FCD5A1
:10CA800080B2704770B50C460546012A05D028785B
:10CA9000800600D5EA69002302E0012305E05B1C63
:10CAA000934202D2E05C0028F9D1A869E618C01AC6
:10CAB000A861286A184428622846FFF7AAFF04E004
:10CAC000D5E9012114F8010B9047B442F8D3284668
:10CAD000FFF7B5FF70BD00002DE9F04106460024C8
:10CAE00010687529314616A510D0FFF7B9FF002848
:10CAF00002DA404213A507E031688A0701D512A582
:10CB000002E0490704D511A5012401E0FFF7B1FFB8
:10CB100000210A2206F1240709E0B0FBF2FCB0FB79
:10CB2000F2F302FB1C00303078541846491C0028F0
:10CB3000F3D123462A463046BDE8F04100F006BB5B
:10CB4000000000002D0000002B000000200000006D
:10CB500011680268006A530501D508700AE0D30520
:10CB600001D5088006E0130603D5C217C1E900020B
:10CB700000E008600120704701694A1C02610878E2
:10CB8000704700B58FB0CDE901310021059105490D
:10CB90007944CDE903101146684600F029F90FB039
:10CBA00000BD0000E5FFFFFF0A6802F8010B0A6004
:10CBB000704700002DE9FF5F15468A460446DFF8FE
:10CBC000AC80F8440027D8E900103E46CDE90010BB
:10CBD00010E03AF816106A4602A801F083F8411CEA
:10CBE00007D02178890603D5E269391891420DD81A
:10CBF0000744761C2078800602D5E069B84205DD3E
:10CC0000AE42E6DB3AF816000028E2D1A069C01B6C
:10CC1000A0612046FFF7FDFED8E90010CDE9001025
:10CC2000002017E03AF818106A4602A801F05AF8F6
:10CC3000B0F1FF3F81460BD000250DF1080B05E058
:10CC4000D4E901211BF8050090476D1C4D45F7D331
:10CC500008F10100B0428046E4DB206A38442062DB
:10CC60002046FFF7ECFEBDE8FF9F0000AA16020079
:10CC70002DE9F0418046D21D22F007020025D2E9BD
:10CC80000002F52915A614D0011E72F1000106DA82
:10CC90000023D0EB030063EB020211A608E0D8F8F2
:10CCA00000108B0701D50FA602E0490701D50EA69B
:10CCB00001251146002408F1240704E000F0F8F9EA
:10CCC00030323A55641C50EA0102F7D12B46324605
:10CCD00021464046BDE8F04100F038BA00000000AF
:10CCE0002D0000002B0000002000000030B40021C7
:10CCF00000F1240408E002F00705D208303542EACA
:10CD00004372DB086554491C52EA0305F3D10468F9
:10CD1000002310A2250707D5A40600D421B1C469B9
:10CD200001230DA2641EC46130BC00F00FBA10B51F
:10CD3000044621461068FFF79CFE02462046BDE8E7
:10CD400010400023D2E7D21D22F00701D1E90023D1
:10CD5000CCE700000000000030000000F0B40D46F9
:10CD60000188090502D5214C7C4402E01F4C7C441B
:10CD70000E34002100F1240608E002F00F0712092A
:10CD8000E75D42EA03721B097754491C52EA030724
:10CD9000F3D102780023120704D5702D06D009B113
:10CDA000022311342246F0BC00F0D0B90123103424
:10CDB000F8E770B504460D4621461068FFF759FEA6
:10CDC000024629462046BDE870400023C6E7D21D32
:10CDD00022F00703D3E90023C0E70368126843F099
:10CDE000200303600823C3610023B7E70C1502008A
:10CDF0002DE9F05F894604464FF0000ADFF874B170
:10CE0000FB44C0F820A02046E1688847002874D081
:10CE1000252806D0D4E901219047206A401C2062D1
:10CE2000F1E700265F462046E1688847202805464E
:10CE300007DB312D05D2781910F8200C08B1064314
:10CE4000F1E7B00701D526F00406C4F81CA00027BE
:10CE5000C4F818A02A2D09D0284601F0FFFE38B3E7
:10CE600004EB8708303DC8F8185019E059F8041B46
:10CE7000204604EB87029161E1688847012F05464F
:10CE800018D1E069002820DA26F020061DE0D8F845
:10CE9000180000EB800005EB40003038C8F818009F
:10CEA0002046E1688847054601F0D8FE0028EED10B
:10CEB000012F0AD02E2D08D12046E16888477F1C1B
:10CEC0000546022F46F02006C4DBA069002803DADD
:10CED000404246F00106A061F00701D026F010069E
:10CEE0006C2D0BD0682D09D04C2D39D06A2D35D042
:10CEF000742D35D07A2D33D016E038E0E1682F4616
:10CF000020468847B842054609D16C2F26D04FF4F9
:10CF10008060E168064320468847054604E06C2FA0
:10CF20001AD04FF4807006430DB3A5F141001928C3
:10CF300002D8203546F400664A4629462046266037
:10CF40004E46FFF751F980B101280BD0F61D26F0AF
:10CF5000070000F1080956E74020E4E78020D8E701
:10CF60000020D6E706F104094DE7284652E7206A7B
:10CF7000BDE8F09F9C1402003A2800D2303820F01F
:10CF80002002412A01D3A2F13700884201D34FF099
:10CF9000FF307047026811441378016018467047EB
:10CFA000D1600549794451610449794411620021F5
:10CFB0001161114600F0DCBCEDFFFFFF8D010000A8
:10CFC000426842B1016811F8013B23B1521EC0E929
:10CFD0000012184670470121C160881E70474268E0
:10CFE0005AB1C368016843B983688B4205D0491EB2
:10CFF000521CC0E90012002070474FF0FF3070470C
:10D000002DE9F05F824615468B4600270AF10104A0
:10D01000B9460078302801D09DB113E014F8010B17
:10D020000127782803D0582801D045B10AE00DB176
:10D03000102D07D1002714F8010B102502E0082558
:10D0400000E00A250026B0460EE005FB080005FBBF
:10D0500006F101271FFA80F801EB1046B6F5803F74
:10D0600000D3B94614F8010B2946FFF785FF0028C5
:10D07000EBDABBF1000F05D00FB1641E00E054469F
:10D08000CBF80040B9F1000F06D0FFF7B1FC022148
:10D090000160C81EBDE8F09F48EA0640FAE70000BC
:10D0A00000487047D876001000487047F8760010A6
:10D0B00030B5B0F10A024FEA900E71F100034EEA6A
:10D0C000817EB0EB0E0061EB91014FEA101E4EEA3B
:10D0D000017E10EB0E0041EB11114FEA102E4EEACB
:10D0E000016E10EB0E0041EB11214FEA104E4EEA9B
:10D0F000014E10EB0E0041EB1141401841F10001CF
:10D100004FEAD00040EA41704FEAD10110EB8005B0
:10D110004FEA810444EA907444EB01046D1944EB36
:10D120000404521BA3414FF0000348BF0A3200D54C
:10D1300030BD401C41F1000130BD10B50446FFF781
:10D140004FFC0068005D00F0010010BD2DE9F047C4
:10D150000D4699469246044600F124080168880667
:10D1600004D5E06921F01001216000E00120A8420F
:10D1700001DD471B00E00027A1697A1902EB0900D5
:10D18000081AA0612078C00602D42046FFF741FCAF
:10D19000002608E0D4E901211AF806009047206A29
:10D1A000401C761C20624E45F4DB2078C0060AD570
:10D1B0002046FFF72EFC06E0D4E9012130209047FD
:10D1C000206A401C2062381EA7F10107F4DC07E04A
:10D1D000D4E9012118F805009047206A401C20621C
:10D1E000281EA5F10105F3DC2046FFF728FC207876
:10D1F000000602D50220BDE8F0870120FBE770475A
:10D200002DE9FF4F0C461E464FF0FF378BB0D2E999
:10D210000001DDF860800A908A46C1F30A5505B91D
:10D220003D46002108464FF00000BAF1000F00F41F
:10D23000400005DA00EB80004FF4400101EA5000A5
:10D240004FEA9059B9F1010F00DDB9460A9850EA4A
:10D250004A000ED044F61050A5F2FF3545432F1476
:10D26000B8F1000F1ED07542291E1EDDC9F1000263
:10D270001CE0B8F1010F4FF0000001D0302103E0B5
:10D28000F24305E02154401CB042FBDB3046002253
:10D29000002121540B99C1F80880C1E900200FB08A
:10D2A000BDE8F08FBD1B6D1CDEE74A4600DA69421F
:10D2B00006A800F09DFD06AB93E8070003AB83E8EA
:10D2C000070050460A9900F015FE8DE80700A0F50A
:10D2D00000501F3800900398002D0ADD42F21F0114
:10D2E0004A460844002303A90390684601F07EF8EB
:10D2F00009E0A0F500504A461F38002303A9039017
:10D30000684601F088F88DE807000004000C03D09F
:10D310004FF0FF30410800E01046B8F1000F03D095
:10D320000022009215461EE0751E05D4FFF7C0FED0
:10D33000303262556D1EF9D5B3460122084302D042
:10D3400000227F1C04E02078302801D100227F1EBB
:10D35000002A099784D01DE0112D07DAFFF7A8FEF7
:10D36000303262556D1C50EA0102F5D1084302D0FB
:10D370000098C8B10EE00021681E05E0235C625CE5
:10D3800063542254401E491C8142F7DBAB46A81B64
:10D39000401E0990002004F80B000B98099AC0F871
:10D3A0000880C0E9002B7AE711264FF0000857E704
:10D3B0002DE9F04F88460446D21D22F0070191B0B6
:10D3C000D1E90001CDE90A0101F0C4FB02460B9846
:10D3D000C00F01D02D2007E02068810701D52B2048
:10D3E00002E0202101EAC000032A099001D0072AA7
:10D3F00005DB03464146204600F0BAFC0BE12078ED
:10D40000800601D5E06900E00620B8F1650F81468D
:10D4100006D0B8F1660F18D0B8F1670F70D131E0BF
:10D420000020B9F1110F009001DB112301E009F197
:10D4300001030AAA01A90CA8FFF7E2FEDDE90C70BE
:10D44000002609F10105834647E001204B46009084
:10D450004FF000470AAA01A90CA8FFF7D1FEDDE9A9
:10D460000DB00C995D46002610B909F101000D18A8
:10D47000B9EB050003D4C0F1FF3609F10105A5EBB6
:10D4800009002BE0B9F1010F01DA4FF0010900208A
:10D49000B9F1110F0090484601DD112300E0034669
:10D4A0000AAA01A90CA8FFF7ABFEDDE90C704D46F6
:10D4B00000268346207800070AD4AB4500DA5D4693
:10D4C00001A8012D04DD411911F8011C302907D0F4
:10D4D0004F4502DA17F1040F04DA012082460FE00B
:10D4E0006D1EEEE7002F02DCED1B3E4403E0781CCE
:10D4F000A84200DD7D1CB81B00F1010A4FF0004777
:10D500002078000703D4AA4501DB4FF0FF3A002141
:10D51000B7F1004F0DF143088DF8431024D00220DD
:10D520002B23002F01DA7F422D230A21021EA0F1B6
:10D53000010000DC5FB197FBF1FC97FBF1F201FB0E
:10D540001C7C17460CF1300C08F801CDEEE7A8F171
:10D55000010003702188090501D5452100E06521FE
:10D56000A0F1010800F8011C09980FA9A1EB080718
:10D57000FF1D00B10120411901EBEA70A169384497
:10D58000081A401EA0612078C00602D42046FFF78A
:10D5900040FA099828B1D4E901219047206A401C3B
:10D5A00020622078C00622D52046FFF732FA1EE01E
:10D5B000002E04DBB34502DD01A8805D00E03020D1
:10D5C000D4E901219047206A401C2062761CAAF110
:10D5D00001005FEA000A0AD1FFF766FDC068016832
:10D5E000405CD4E901219047206A401C2062281E3B
:10D5F000A5F10105DCDC07E0D4E9012118F8010BF5
:10D600009047206A401C2062381EA7F10107F3DC16
:10D610002046FFF714FA032011B041E62DE9F04F40
:10D6200004460D46D21D22F0070089B0D0E90097CC
:10D630004846394601F08EFA0246F80F01D02D23F4
:10D6400007E02068810701D52B2302E0202101EAB1
:10D65000C0038DF820300BB1012000E00020032A28
:10D66000824601D0072A04DB2946204600F080FBD1
:10D670003FE12078800601D40D2500E0E569C7F37D
:10D680000A560D2D49DA00214FEA175B08464FF084
:10D690000000002F00F4400007DA00EB80004FF498
:10D6A000400100EBD07001EA60008115012901DD25
:10D6B0004FF0FF3100224FEA850CBCF1180F06D362
:10D6C0001346ACF118004FF08052C24003E04FF413
:10D6D000801323FA0CF30CF10C0CBCF1200F04D3D3
:10D6E000ACF1200C09FA0CF001E007FA0CF000296B
:10D6F0004FF0004801DD18B90FE00ED140450CD3C2
:10D7000019EB02095F4121B9404502D19F4329EA43
:10D710000209BBEB175F00D0761C2088000502D5FC
:10D720007B48784402E07A487844193808AA3023C4
:10D7300002F80A30037C0AF10101002E0AF1020A04
:10D7400053546A4602DC4FF0300101E04FF03101E2
:10D750004FF001088DF8001002D0A6F2FF3603E06A
:10D7600059EA470100D06B4E002D02DC21780907F1
:10D7700004D54FF002082E218DF80110C446002177
:10D780000BE0C7F303433F01C35C491C6D1E02F865
:10D790000830052908F1010801DA002DF1DC00212B
:10D7A0000CE000EB1973491C1B786D1E082902F868
:10D7B00008304FEA091908F1010801DA002DF0DC00
:10D7C00021688B0602D516E0A8F10108E04505DDC9
:10D7D00002EB080313F8013C302BF5D0B8F1000F31
:10D7E00009DD02EB080313F8013C2E2B03D10907D6
:10D7F00001D4A8F10108002D05DD3E2102F8081032
:10D800006D1E08F10108407C002E02F8080008F1A6
:10D81000010804DA2D20764202F8080002E02B20ED
:10D8200002F808000A214FF47A70864208F10108D4
:10D830000BDB96FBF0F3303302F8083096FBF0F385
:10D8400008F1010800FB136601E0642E0CDB642084
:10D8500096FBF0F3303302F8083096FBF0F308F152
:10D86000010800FB136601E00A2E06DB96FBF1F0CF
:10D87000303002F8080008F1010896FBF1F001FBD6
:10D880001060303002F80800A16908F1010808EBC7
:10D89000050202EB0A00081AA0612078C00602D433
:10D8A0002046FFF7B6F8216A08AE01EB0A002062B5
:10D8B00004E0D4E9012116F8010B9047BAF1010AFE
:10D8C000F7D22078C00602D52046FFF7A2F86E46B0
:10D8D00009E016F8010B3E280FD0D4E9012190474A
:10D8E000206A401C2062B8F10108F2D22046FFF7FE
:10D8F000A6F809B00320BDE8F08F206A2844206212
:10D9000003E0D4E90121302090476D1EEBD3F8E706
:10D910009E0B020002FCFFFF10B5436913B1AFF389
:10D92000008001E0FFF7AEF8012010BD127800F191
:10D9300024010A7000224A700122EDE711684FF0BD
:10D94000FF32E9E710B5436913B1AFF3008001E09E
:10D95000FFF730F9012010BD128800F12401828404
:10D960000022C2840122EDE711684FF0FF32E9E79F
:10D970002DE9F34F4FF0000A0C4656468DB00120BA
:10D980000C9001F10C000B9062690B9801219047FB
:10D99000051E2DD0252D2CD0216A8847C0B1626983
:10D9A0000B9801219047216A88470028F7D16269C6
:10D9B000411E0B98904700E0761CA1690D9888479E
:10D9C000216A88470028F7D1E1690D988847DBE78D
:10D9D000A1690D988847A842074601D1761CD3E774
:10D9E000E1690D9888477F1C02D1BAF1000F6FD012
:10D9F0006BE162690B9800273D46394690472A281B
:10DA000004D162690B98012190470125DFF8D0828B
:10DA100062690B9801219047A0F130010A290AD2CE
:10DA20004745E5DC07EB870100EB4107303FDFD4DA
:10DA300045F01005ECE7E90601D46FF000476C28CB
:10DA40000AD04C2814D0682815D06A280DD0742824
:10DA50001CD07A281AD01DE062690B9801219047EA
:10DA60006C2802D045F0040514E045F002050DE0F5
:10DA700045F020050AE062690B980121904768286B
:10DA800002D045F0080505E045F4006562690B9891
:10DA900001219047C4E9015765283DD019DC582879
:10DAA0007AD00CDC452837D004DC252826D0412844
:10DAB0009ED131E046282FD0472899D12CE05B2811
:10DAC00077D0612828D063287CD0642823D15AE0FD
:10DAD000F6E06F2848D008DC66281DD067281BD0E8
:10DAE000692821D06E2816D127E0702845D07328E8
:10DAF00068D0752847D078280DD14DE0A1690D98E0
:10DB00008847252805463FF469AFE1690D988847A5
:10DB10006D1C3FF46AAFD8E00D9923466A466FF05A
:10DB20000100AFF30080C5E045F0400023464FF010
:10DB300000026060A80736D43EE0E8077FF447AFF4
:10DB40002068011D21600068290501D506701BE7CA
:10DB5000290701D5068017E7A90703D5F117C0E902
:10DB6000006111E706600FE745F0400023464FF0E3
:10DB700008026060A80716D41EE040F60E0125EAF0
:10DB80000100606016E045F0400023464FF00A02B5
:10DB90006060A80707D40FE045F040006060A80768
:10DBA00008D5234610220D996FF00100AFF30080D5
:10DBB00080E007E0102223460D996FF00100FEF788
:10DBC0001BFC77E04FF0000963284F46C8464B46E0
:10DBD000CB4602D05B2806D038E0E80601D401200D
:10DBE000A060012732E06269D4F80CB00B980121E3
:10DBF00090475E2807D14FF0010949466269D4F881
:10DC00000CB00B989047216939B900210A4603AB43
:10DC100043F82120491C0829FADBD8B3216949B30C
:10DC200008F1010862690B98012190475D28F4D141
:10DC3000B9F1000F09D0002003A951F82020D243E8
:10DC400041F82020401C0828F7DB03AB206900289E
:10DC500020794FEA40701ED05B462246CDF8008006
:10DC6000CDE901970D9900286FF0010020DAAFF39C
:10DC700000801FE0C11703AA00EBD1614B1121F016
:10DC80001F0102EB8302411A1368012088400343FD
:10DC90001360C7E719E00D99224600286FF00100D4
:10DCA000009702DAAFF3008004E0FEF74BFC01E0DE
:10DCB000AFF3008000280ADA401C06D10C9820B18E
:10DCC0004FF0FF300FB0BDE8F08F5046FAE7E9079C
:10DCD00001D10AF1010A064400200C9054E600002C
:10DCE000CCCCCC0C70B516460C460546FEF778FE3B
:10DCF000036893F80101012806D0FF2C0FD8185DA6
:10DD000068B101202C7070BDD3F80701324621465E
:10DD100003F2071303442846BDE8704018474FF04C
:10DD2000FF3070BD7546FFF7BBF9AE46050069468A
:10DD3000534620F00700854618B020B5FEF7FAFAE2
:10DD4000BDE820404FF000064FF000074FF00008FC
:10DD50004FF0000B21F00701AC46ACE8C009ACE87D
:10DD6000C009ACE8C009ACE8C0098D4670470000A6
:10DD70002DE9F0411F46044603260168072A01F4F5
:10DD8000006004DB08B116A505E016A503E008B1A4
:10DD900015A500E015A521F010002060A069C01EA7
:10DDA000A0610FB1401EA0612046FEF732FE4FB1C8
:10DDB000D4E9012138469047206A401C2062C01CEB
:10DDC000206206E0206AFAE7D4E9012115F8010B88
:10DDD0009047761EF8D22046FEF731FEBDE8F0816E
:10DDE0004E414E006E616E00494E4600696E6600FF
:10DDF0002DE9F047814616468AB0354878440DC86B
:10DE00008DE80D0032487844801C03AC0DC884E8CE
:10DE10000D0041F69B300844372190FBF1F290FB56
:10DE2000F1F5A5F1800501FB12041B3C02D564420B
:10DE3000012000E00020DFF898A080460027FA4487
:10DE4000AAF1BE0A0EE0E0070AD03246684607EBA8
:10DE5000470101230AEB810100F0DDFA8DE807009C
:10DE600064107F1C002CEED1194F7F44AE3F19E0A7
:10DE7000E80715D007EB04100DF1180A90E80E0022
:10DE80008AE80E00C068F04201D198190890324625
:10DE9000012306A903A800F0BEFA03AB83E807003C
:10DEA0006D10641C002DE3D14FF00103324669462A
:10DEB000B8F1000F03A802D000F098FA01E000F0DA
:10DEC000AAFAC9E90001C9F808200AB0BDE8F0873C
:10DED0005405020010B50446AFF300802046BDE8AB
:10DEE0001040FEF7E8B9704701491820ABBEFEE7C5
:10DEF000260002005FEA400C08BF91F0000F4FEAD5
:10DF00008C234FEAC12243EA51514FEA1C5018BFFB
:10DF100000F5F0404FEA300018BF41F000415FEAE1
:10DF20006C5C00F02980BCF1FF3F08BF40F08040EE
:10DF30007047130C06BF12044FF0100C4FF0000C8A
:10DF4000130E04BF12020CF1080C130F04BF1201D0
:10DF50000CF1040C930F04BF92000CF1020CD30FD0
:10DF600004BF52000CF1010C11464FF00002A0F169
:10DF70001F00A0EB0C00704711F0004F08BF704766
:10DF800031F000413FF4D5AF0B0C06BF09044FF050
:10DF9000100C4FF0000C0B0E04BF09020CF1080C22
:10DFA0000B0F04BF09010CF1040C8B0F04BF890097
:10DFB0000CF1020CCB0F04BF49000CF1010CCCF1A9
:10DFC0002003A0EB0C0022FA03F302FA0CF241EA60
:10DFD000030100F10100704720F07F4C80EA03004C
:10DFE00023F07F47ACEB070303F57C5300F00040C0
:10DFF00003F1FF032DE980494FEA154B09B44FEABD
:10E00000144325EA0B4E24EA03480FF2042606EBDC
:10E01000132749083E785FEA320203FB0667C7F51B
:10E02000000707FB06F64FEA54374FEAD64606F1DB
:10E03000020607FB066CCCF1005C4FEA1C472CEA99
:10E04000074C07FB06F40CFB06F504EB15464FEAFC
:10E05000961634BF00204FF000404FEAD13706FB40
:10E0600007FC4FEA1C4C0CFB0BF7D21B03FB0CF715
:10E0700061EB07010CFB0EF7B0EB074072EB1742A8
:10E080000CFB08F734BFA2EB0742B2EB074261EB8F
:10E0900017414FEA0C444FEA910706FB07FC4FEA91
:10E0A0001C4C0CFB0BF7B0EBC74072EB573203FB79
:10E0B0000CF734BFA2EBC742B2EBC74261EB57315A
:10E0C0000CFB0EF7B0EBC70072EB57720CFB08F7B6
:10E0D00034BFA2EBC702B2EBC70261EB5771039FDB
:10E0E0004FEA816141EA921104EBCC044FEAD13747
:10E0F0004FEA826206FB07FC42EA90124FEA806018
:10E100004FEA1C4C0CFB0BF7D21B03FB0CF761EB2B
:10E1100007010CFB0EF7B0EB074072EB17420CFB4C
:10E1200008F734BFA2EB0742B2EB074261EB17419D
:10E130004FEA8C554FEA910704EB9C2406FB07FC41
:10E140004FEA1C4C0CFB0BF7B0EBC74072EB57329D
:10E1500003FB0CF734BFA2EBC742B2EBC74261EB43
:10E1600057310CFB0EF7B0EBC70072EB57720CFB8C
:10E1700008F734BFA2EBC702B2EBC70261EB5771DD
:10E1800015EB4C254FEA816141EA92114FEA826218
:10E190004FEAD13742EA901206FB07FC44F1000433
:10E1A0004FEA80604FEA1C4C0CFB0BF7D21B03FBC1
:10E1B0000CF761EB07010CFB0EF7B0EB074072EBBD
:10E1C00017420CFB08F734BFA2EB0742B2EB074241
:10E1D00061EB174115EB1C154FEA813141EA924181
:10E1E0004FEA823242EA90424FEA80304FEA0C76A0
:10E1F00044F1000448EA03434EEA0B484FF0000E96
:10E20000B2EB080C71EB030724BF624639464EEBB4
:10E210000E0E4FF0000B0018524149414BEB0B0B17
:10E22000B2EB080C71EB03077BF1000B24BF6246D5
:10E2300039464EEB0E0E4FF0000B0018524149418B
:10E240004BEB0B0BB2EB080C71EB03077BF1000BF4
:10E2500024BF624639464EEB0E0E51EA020718BF44
:10E2600046F0010616EB0E7655F1000254F100015E
:10E2700003D5BDE88901BDE80088BDE88901BDE896
:10E280000048B619524141EB0101A3F10103704767
:10E2900080807F7E7D7C7B7A7978777676757473E3
:10E2A000727171706F6E6E6D6C6C6B6A6A696868A2
:10E2B000676666656464636362616160605F5F5E38
:10E2C0005E5D5D5C5C5B5B5A5A59595858575756AE
:10E2D0005655555554545353525252515150505013
:10E2E0004F4F4F4E4E4D4D4D4C4C4C4B4B4B4A4A65
:10E2F0004A494949484848474747474646464545A9
:10E3000045444444444343434342424242414141E1
:10E31000002B9C4630D477002BD01CB54FEA370732
:10E3200003B44FF010004FF01001BAF1000F06D007
:10E33000BCF1000FDCBF40F0080040F008014FF0D6
:10E3400000000FBCBDE810400BF1010BBBF1010F49
:10E3500008BF5FEA170722BF12F1010211F10101A4
:10E360004FF0004143F1000300F0004043EA000099
:10E370007047F9D35708D0E746EA064613F1400F35
:10E380004FEA16461FDD13F1200FDFBF16430A4682
:10E39000002120335B42BED0C3F1200746EA064687
:10E3A00002FA07F74FEA164646EA0706C3F12007C6
:10E3B00022FA03F201FA07F721FA03F14FF0000302
:10E3C00042EA0702A7E746EA020646EA06464FEA9D
:10E3D000164646EA0106BCBF46EA0646360C4FF032
:10E3E00000034FF000024FF0000194E72DE9804C4C
:10E3F0009A46934670B491E8380007C831EA400C59
:10E4000048BF34EA430C03D5FFF7E6FDFFF780FF72
:10E41000F0BCBDE8008C2DE9804C9A46934670B460
:10E4200091E8380007C810F0804F08BF13F0804F04
:10E4300003D100F005F8FFF76BFFF0BCBDE8008CDE
:10E4400020F07F4780EA030023F07F4C07EB0C03AA
:10E45000A3F57C5300F00040A3F1FE0392F0000FFF
:10E4600000F0B38095F0000F00F077802DE90149AE
:10E470004FEA11404FEA144621EA004800FB06FC2F
:10E4800024EA064708FB06F607FB08F800FB07F737
:10E4900018EB06484CEB164C4FEA124B18EB0748AA
:10E4A0004FEA15464CEB174022EA0B4E0BFB06FCDD
:10E4B00025EA06470EFB06F607FB0EFE0BFB07F7E9
:10E4C0001EEB064E4CEB164C4FF000061EEB074EB3
:10E4D0004CEB174B18EB0B0840F1000018EB0E0B40
:10E4E00058EB000840F100008F1A4FF000013CBFCC
:10E4F000C943661B14BFB5EB040C00213CBFC943E4
:10E50000F61B4FEA17444EEA8E0E27EA04454FEAFF
:10E510001C4704FB07622CEA074C05FB07F70CFBC2
:10E5200005F604FB0CFC16EB074642EB174216EB14
:10E530000C4642EB1C421BEB060658EB0202414123
:10E5400046EA9E0601D5BDE80189B619524141EB64
:10E550000101A3F10103BDE801894FEA14454FEA27
:10E56000114724EA054621EA074C05FB07F406FBA0
:10E5700007F70CFB06F105FB0CFC11EB074144EB24
:10E5800017444FEA124711EB0C4144EB1C4422EABA
:10E59000074C05FB07F206FB07F70CFB06F605FB2D
:10E5A0000CFC16EB074642EB174216EB0C4642EB0F
:10E5B0001C456A1854F1000148BF7047B619524112
:10E5C00041EB0101A3F10103704795F0000F37D033
:10E5D0004FEA11424FEA144721EA024624EA074C67
:10E5E00002FB07F106FB07F70CFB06F402FB0CFC31
:10E5F00014EB074441EB17414FEA154714EB0C4469
:10E6000041EB1C4125EA074C02FB07F506FB07F727
:10E610000CFB06F602FB0CFC16EB074645EB174518
:10E6200016EB0C4645EB1C42121951F1000148BF94
:10E630007047B619524141EB0101A3F10103704744
:10E640004FEA14454FEA114724EA054621EA074CF0
:10E6500005FB07F106FB07F70CFB06F24FF000067F
:10E6600005FB0CFC12EB074241EB174112EB0C428D
:10E6700051EB1C4148BF7047921841EB0101A3F1D7
:10E680000103704730B589B005460C46002005905F
:10E69000069007900890224605A905A800F0EDFA1B
:10E6A0009DF8140000F08000E8B100BF00200AE0EF
:10E6B00005A9095C4A0005AB411C595C42EAE1111D
:10E6C00005AA1154401C0F28F2DB9DF823104906BF
:10E6D000090E8DF8231000BF9DF8230080F08700FD
:10E6E0008DF8230016E000BF00200AE005A9095CB0
:10E6F0004A0005AB411C595C42EAE11105AA1154DC
:10E70000401C0F28F2DB9DF823104906090E8DF8F6
:10E71000231000BFD4F8140110280FD100BF00202F
:10E7200009E004F20111095C05AA125C514004F2EF
:10E7300001121154401C1028F3DB5DE09DF8140019
:10E7400000F08000E8B100BF00200AE005A9095CE4
:10E750004A0005AB411C595C42EAE11105AA11547B
:10E76000401C0F28F2DB9DF823104906090E8DF896
:10E77000231000BF9DF8230080F087008DF8230050
:10E7800016E000BF00200AE005A9095C4A0005ABBD
:10E79000411C595C42EAE11105AA1154401C0F28A2
:10E7A000F2DB9DF823104906090E8DF8231000BFF7
:10E7B000802104F20110D4F81421815405E00021D5
:10E7C00004F20110D4F814218154D4F81401401C2F
:10E7D000C4F814011028F2D300BF002009E004F2AD
:10E7E0000111095C05AA125C514004F20112115496
:10E7F000401C1028F3DB00BF00BF00200AE004F13A
:10E80000F101095C04F20112125C514004F1F102C1
:10E810001154401C1028F2DB00BF102204F1F1015A
:10E8200001A8FDF7D0FF2246294601A800F025FAED
:10E830000020059006900790089009B030BD10B5F3
:10E840000446102104F1F100FEF73CF80020C4F862
:10E850001401F0212046FEF757F810BD70B50446AC
:10E860000D4622461021284600F034FA70BD2DE9ED
:10E87000FF4104460F461546D4F81401002846D03F
:10E88000D4F81401C0F11000A84204D2D4F8140145
:10E89000C0F1100000E02846064604F20111D4F849
:10E8A0001421501832463946FDF78DFFD4F8140173
:10E8B0003044C4F81401D4F81401102801D3B5422F
:10E8C00001D1BDE8FF8100BF00200AE004F1F101A1
:10E8D000095C04F20112125C514004F1F10211547E
:10E8E000401C1028F2DB00BF102204F1F101684641
:10E8F000FDF769FF22466946684600F0BEF910221E
:10E90000694604F1F100FDF75EFF3744AD1B21E0DD
:10E9100000BF002008E004F1F101095C3A5C5140BD
:10E9200004F1F1021154401C1028F4DB00BF102246
:10E9300004F1F1016846FDF746FF22466946684644
:10E9400000F09BF91022694604F1F100FDF73BFF4E
:10E950001037103D102DDBD82A46394604F201103D
:10E96000FDF731FFC4F8145100BFAAE710B58AB013
:10E9700028216846FDF7C8FF0F240122694620467A
:10E9800007F046FB06A0009903F022F807F052FFBB
:10E9900007F068FF07F0D2FF07F080FF0AB010BD54
:10E9A00052414B31393034204944203078253032BF
:10E9B000580A000010B58AB028216846FDF7A4FF68
:10E9C0000F24272401226946204607F021FB0098E6
:10E9D00000F0080008B107F0A9FE0AB010BD024619
:10E9E0000B46002105E0505C08B100207047481C30
:10E9F000C1B29942F7DB0120F8E770B50346CC17A6
:10EA000001EB1474241133F814400A46CD1701EBBE
:10EA100015752D11A1EB05160125B540AC4308462F
:10EA2000CD1701EB15752D1123F8154070BD70B58C
:10EA30000346CC1701EB5474E4101C5D0A46CD1755
:10EA400001EB5575ED10A1EBC5060125B540AC43B2
:10EA50000846CD1701EB5575ED105C5570BD30B50E
:10EA600004460A46C81701EB1070001134F8100074
:10EA70000B46CD1701EB15752D11A1EB051528419E
:10EA800000F0010030BD30B504460A46C81701EB5E
:10EA90005070C010205C0B46CD1701EB5575ED1082
:10EAA000A1EBC505284100F0010030BD70B5054659
:10EAB0000E46144604F0010020B13146284600F00D
:10EAC00017F803E031462846FFF797FF70BD70B591
:10EAD00005460E46144604F0010020B13146284692
:10EAE00000F020F803E031462846FFF7A0FF70BD94
:10EAF00070B50346CC1701EB1474241133F814409D
:10EB00000A46CD1701EB15752D11A1EB0516012550
:10EB1000B5402C430846CD1701EB15752D1123F890
:10EB2000154070BD70B50346CC1701EB5474E4106A
:10EB30001C5D0A46CD1701EB5575ED10A1EBC5061E
:10EB40000125B5402C430846CD1701EB5575ED1056
:10EB50005C5570BD03B401984100009850EAC12093
:10EB600018BF04204A0D18BF40F0010040F2FF72A8
:10EB7000B2EB515F08BF40F00200012808BF05203A
:10EB800002B0704700280DDB00BF00BF00F01F027D
:10EB9000012191404209920002F1E022C2F80011E5
:10EBA00000BF00BF704700280DDB00BF00BF00F0B2
:10EBB0001F02012191404209920002F1E022C2F8B5
:10EBC000001100BF00BF704710B5002804DB4A07E2
:10EBD000130E054A135406E04A07140E034A00F0C8
:10EBE0000F031B1FD45410BD00E400E018ED00E03B
:10EBF00010EE100AC0F3C7517F391729A8BF70471C
:10EC0000DFED140A002970EE200A0CDAF5EEC00AD6
:10EC1000F1EE10FA1ADD0028C8BF4FF07E50B8BFE1
:10EC20004FF0004012E00C4A22FA01F2104208BFF5
:10EC30007047F5EEC00AF1EE10FA07DD002804DD9A
:10EC40004FF4000323FA01F10844904300EE100A48
:10EC500070470000CAF24971FFFF7F0030380A2870
:10EC600001D2012070470020704770B504460D4660
:10EC7000294620461CF024FE70BD2DE9FF410646C2
:10EC80000F46154695F8F000F0B12A463146684621
:10EC900003F04EFF012409E068460DF0FDFC05EB92
:10ECA00004116846FFF7E1FF601CC4B295F8F0005C
:10ECB000A042F1DC684613F073FC05EB04126946D0
:10ECC000384603F035FF03E0FF2004B0BDE8F081D3
:10ECD0000020FAE72DE9F05F81460E461446102E1B
:10ECE00004D0182E03D0202E03D101E000BF00BFB6
:10ECF00005E0002084F8F000FF20BDE8F09F00BF91
:10ED000032464946204603F076FF06F11C00800695
:10ED10004FEA10680120C0EB2810C0B284F8F00060
:10ED2000354601276EE0A5F1040A14F80AC0A5F1E2
:10ED3000030A14F80A10A5F1020A14F80A20A5F132
:10ED4000010A14F80A3095FBF6FA06FB1A5ABAF1D2
:10ED5000000F19D16046DFF8B4A01AF801A08AEAC2
:10ED6000070CDFF8A8A01AF802101AF803201AF806
:10ED700000304FEAD71A4FF01B0B0AFB0BFA8AEA56
:10ED8000470A0AF0FF0712E0182E10DD95FBF6FA8D
:10ED900006FB1A5ABAF1100F09D1DFF870A01AF861
:10EDA0000CC01AF801101AF802201AF80330A5EB6B
:10EDB000060A0AF0FF0014F800A08AEA0C0A04F818
:10EDC00005A000F1010A14F80AA08AEA010A05F177
:10EDD000010B04F80BA000F1020A14F80AA08AEA59
:10EDE000020A05F1020B04F80BA000F1030A14F863
:10EDF0000AA08AEA030A05F1030B04F80BA0281DF8
:10EE0000C0B2054645458EDB002076E701C9020009
:10EE100010B5012000F00AFB044604F0010030B1F7
:10EE2000012000F0F5F904F0010000F0E5FA04F02B
:10EE3000040030B1042000F0EBF904F0040000F00D
:10EE4000DBFA10BD1CB56946002000F073FCDDE95B
:10EE5000000100F0EDFBDDE9000100F023FC4FF4C0
:10EE60000043DDE9000118400021484049400843C3
:10EE70000DD00748C06B50B10548C06B806830B1F9
:10EE8000034AD26B5068024AD26B916888471CBD16
:10EE9000E816001038B50446FDF72AFA0F4D009029
:10EEA000286820F4407028600098FDF725FAA078C3
:10EEB000022101EA40002178F02202EA0111084310
:10EEC00061784FF4407202EA0121084340F4806007
:10EED00040F480102860002038BD00000080014010
:10EEE0000348016841F00101016000207047000003
:10EEF0000080014010B50C4639490A6812B9394AF8
:10EF000012680A600A2869D2DFE800F0051B15279D
:10EF1000210C403A47604FF04020472141610021D9
:10EF2000816106E04FF0402047214161012181616C
:10EF30000021416150E04FF04020C16821F0020102
:10EF400029E04FF04020C16821F0010123E04FF09B
:10EF50004020C16841F002011DE02348C168C9B2E8
:10EF6000212907D1D0F8201121F4407101F58071D9
:10EF7000C0F820114FF04020C16841F001010AE0C3
:10EF80004FF04020C16841F0800104E04FF0402084
:10EF9000C16821F08001C1601EE01348C168C9B298
:10EFA000212909D1D0F8201141F44071C0F8201175
:10EFB0004FF47A5000F0CEFA002C0CBF0B482068BA
:10EFC00040F001004FF04021086205E04FF0402082
:10EFD000016A21F001010162002010BD062010BD70
:10EFE000BC02001000F0FF4F0000024001B82500F5
:10EFF000002804BF062070474FF040218A6912F0B4
:10F00000010F14BF054A064A0260C96901F00102F6
:10F01000C1F34001426001720020704700366E016A
:10F02000006CDC0200281CBF016811F0807F04D056
:10F030000B4B21F07F429A4201D00220704711F021
:10F04000007F04BF00207047416A09680A6822F007
:10F0500001020A60016821F0007101600020704720
:10F06000CDCDCD0000281CBF016811F0807F04D0F9
:10F070000B4B21F07F429A4201D00220704711F0E1
:10F08000007F1CBF00207047416A09680A6842F08F
:10F0900001020A60016841F00071016000207047C0
:10F0A000CDCDCD00082824BF0520704700291EBF04
:10F0B0004B68002B002A04D0D1F800C0BCF1020F2D
:10F0C00001D20620704730B400EB40032E4C03EB16
:10F0D000C00354F8235015F0807F1EBF072030BCBA
:10F0E000704704EB83034FEACC0CC3F818C0D1F887
:10F0F00004C0C3F804C0C3F80CC0C3F814C0C3F8FC
:10F1000010C0D1E9004C0CEBC40CC3F808C0D3F814
:10F1100000C01E4C2CF0007C4CF0807C64F3170C7B
:10F12000C3F800C0DFF868C000EB80000CEBC00043
:10F1300058620020D8611862D3F824C0DCF808C0F7
:10F14000CCF80000D3F824C0DCF80CC0CCF80000E8
:10F15000586AD0F810C0DCF8004040692043CCF871
:10F160000000D3F824C04868DCF804C0CCF80000E4
:10F17000087A022101EA4000596A096808601360B0
:10F1800030BC00207047000094740010CDCDCD003D
:10F19000CCDE0200F8B507461B4816460C4600EBCD
:10F1A0004715FDF7A5F80090286804F008210843EA
:10F1B00028600098FDF7A0F8FDF79AF800902868FD
:10F1C00014F5803F08BF3604A0433043B4F1FF3F3D
:10F1D00008BF40F0004028600098FDF78DF814F556
:10F1E000803F08BF012008D0B4F1FF3F1BBFA4F54A
:10F1F0007F40B0F1FF000020F8BDC6F34401034A90
:10F2000002EB47021154F8BD0C800040AC02001024
:10F2100038B50446FDF76CF800900448C0F8084281
:10F220000098BDE83840FDF767B800000080004056
:10F2300038B50446FDF75CF800900548D0F8001298
:10F240002143C0F800120098BDE83840FDF754B8DB
:10F250000080004070B500240D46B0F5004F08BF97
:10F260000F2400F0A6804CDC802808BF072400F0A3
:10F27000A08020DC082808BF03246ED00EDCB0F18B
:10F28000004F0CBF1F24012867D0022808BF0124AB
:10F2900063D0042808BF02245FD084E0102808BF90
:10F2A00004245AD0202808BF052456D0402808BF7F
:10F2B00006247ED077E0B0F5006F08BF0B2478D02D
:10F2C0000FDCB0F5807F08BF082472D0B0F5007F56
:10F2D00008BF09246DD0B0F5806F08BF0A2468D03C
:10F2E00061E0B0F5805F08BF0C2462D0B0F5005F2C
:10F2F00008BF0D245DD0B0F5804F08BF0E2458D054
:10F3000051E0B0F5000F08BF172452D026DCB0F54D
:10F31000002F08BF13244CD00FDCB0F5803F08BF8E
:10F32000102446D0B0F5003F08BF112441D0B0F5FD
:10F33000802F08BF12243CD035E0B0F5801F08BFF5
:10F34000142436D0B0F5001F08BF152431D0B0F515
:10F35000800F08BF16242CD025E02AE0B0F1006F02
:10F3600008BF1B2425D00FDCB0F1807F08BF182414
:10F370001FD0B0F1007F08BF19241AD0B0F1806F00
:10F3800008BF1A2415D00EE0B0F1805F08BF1C241E
:10F390000FD0B0F1005F08BF1D240AD0B0F1804F3C
:10F3A00008BF1E2405D005A24FF4E9710DA000F09E
:10F3B000CFF8104840F8245070BD00004354696DE8
:10F3C000657220696E74657272757074206E756DE9
:10F3D000626572206F7574206F662072616E67655A
:10F3E0002E000000616D5F68616C5F6374696D651C
:10F3F000722E6300DC3D0010002808BF704770B516
:10F40000094E04464FF00045B4FA84F025FA00F1A5
:10F41000C0F11F008C4356F82000002818BF804719
:10F42000002CF1D170BD0000DC3D001038B5044661
:10F43000FCF75EFF08490090002C08BFD1F8044299
:10F4400005D0D1F80402D1F8001201EA00040098B6
:10F45000FCF752FF204638BD008000402DE9F843FC
:10F460000E461B491D4601EB40191A49144601EB93
:10F470004017091D01EB4018FCF73AFF0090D9F83E
:10F48000000016F5803F08BF000C00F4E0708028F3
:10F4900017BFC028651B25460024A6F57F40FF380E
:10F4A00004BFC5EA044038600CD016F5803FC5EAB9
:10F4B000044005D03860280C6FF30F04C0EA040044
:10F4C000C8F800000098BDE8F843FCF715BF00003D
:10F4D0000C80004004800040F8B5064610480C46F9
:10F4E00000EB4615FCF704FF0090286804F00821A3
:10F4F000884304F00111014314F5803F07BF012048
:10F50000C1F344420020C1F34402064B03EB46031F
:10F510001A5429600098BDE8F840FCF7EDBE0000E1
:10F520000C800040AC02001038B50D46074901EBD5
:10F530004014FCF7DDFE0090206805F001118843BF
:10F5400020600098BDE83840FCF7D6BE0C80004033
:10F55000FEE700004FF04021496B11F0040F1ABF85
:10F5600040000E210B21884298BF7047401A014984
:10F57000084700009D0000082DE9F047DFF850A083
:10F58000DDF820801C4615460E4607464FF0402900
:10F590003068B8F1000F00EA050002D0A04202D0A6
:10F5A00004E0A04202D00020BDE8F0877F1E0BD30C
:10F5B000D9F83410102011F0040F1ABF20200E21AA
:10F5C0000B21401AD047E3E70420BDE8F087000094
:10F5D0009D000008004B1847510000082DE9F84332
:10F5E0001C46804601EB8405104EA5F1805017465D
:10F5F000B0F5C02005D001B04046B446BDE8F043A8
:10F600006047012C06D9631E4046B047002818BF4A
:10F61000BDE8F88355F8040C009007EB8400021F46
:10F62000012369464046B047BDE8F883550000080D
:10F6300038B5054608466FF311000C4600001CBFA4
:10F64000052038BDFCF754FE00900548C0F808526C
:10F65000C0F818420098FCF74FFE002038BD0000AB
:10F660000000014038B5054608466FF311000C460E
:10F6700000001CBF052038BDFCF73AFE0849009089
:10F68000D1F800022843C1F80002D1F8100220434B
:10F69000C1F810020098FCF72FFE002038BD0000D2
:10F6A000000001402DE9F05F074608464FF00008D2
:10F6B0006FF311000E4658EA00001CBF0520BDE89C
:10F6C000F09F57EA060004BF0120BDE8F09F002527
:10F6D000DFF85CA04FF001090AF1C80B2A46384652
:10F6E0003146FCF746FE04001CD060422040B0FAD0
:10F6F00080F0C0F11F0009FA00F12A188C435AF873
:10F700002200002808BF4FF0070809D010F0010FB1
:10F7100001D0804704E040F001015BF822008847F7
:10F72000002CE2D12035212DD8D34046BDE8F09FF2
:10F730005C3E0010002904BF06207047F8B54FF06A
:10F74000FF340E4607462546FCF7D2FD00900D48D3
:10F75000D0F81412D0F804320022134311433FB101
:10F76000D0F810C2D0F8000242EA0C0540EA0204C8
:10F7700003EA04002940C6E900010098FCF7BCFD3B
:10F780000020F8BD000001402DE9F04F00258BB0AE
:10F790000446322822BF06200BB0BDE8F08F0022BD
:10F7A00001F007038B4FC1F3C10C42EAC30011F013
:10F7B000E00F21D0C1F34216A6F10209DFF818824A
:10F7C00040F00100B9F1030F09D86FF07F0909EB90
:10F7D000861630433E5D16F0010F0DD116E0062E61
:10F7E00004D0012E08BF142C10D005E0142C1EBF2D
:10F7F0007A480BB0BDE8F08FBCF1000F12D0BCF11D
:10F80000010F07D0BCF1020F3AD041E00BB04046E7
:10F81000BDE8F08F17F804C01CF0020F18BF40F0CD
:10F82000400035D0DFF8B8C11CF804604FF0010C7F
:10F830000CFA03FC16EA0C0C18BF4FF0020C4CEA51
:10F840000000DFF8A0C11CF804C09C4532D1C1F310
:10F850000243062B82BF64480BB0BDE8F08FC1F3B2
:10F86000C14C4CEA0316DFF884C100230CEB840C76
:10F870001CF80370B7420FD05B1C042BF8D30DE0CB
:10F8800017F804C01CF0040F18BF40F08000C9D165
:10F890000BB05748BDE8F08F042B03D30BB055488D
:10F8A000BDE8F08F5B00C1F3405C43EACC0C4CEA4E
:10F8B000020322E0C1F30033C1F3812C40EA43008C
:10F8C0004FEA4C06C1F3403346EAC303C1F3413665
:10F8D00043EA5603BCF1010F05D0DFF81CC1DCF888
:10F8E00000C0614500D1012511F4C04F05D123F0BE
:10F8F0000103C1F3C03C4CEA0303C1F3012179B118
:10F90000012908BF40F004000AD0022908BF42F0D4
:10F91000010205D0032904BF40F0040042F00102B7
:10F920006FF00301DFF8D4C001EA540101EB0C09C8
:10F9300024F00301DFF8C8C001F1804801EB0C0797
:10F9400061074FEAD16CA107C90E0F2606FA0CF623
:10F950006FEA060AFF268E408840009002FA01F006
:10F9600008F58038F64303FA0CFB0290FCF7C0FC64
:10F97000039065B104F01F0101208840042101EAD1
:10F98000D40101F1804101F58031C1F8B4001D4876
:10F9900073210166D8F8001001EA060200991143AC
:10F9A000C8F80010D9F8001001EA0A0141EA0B0179
:10F9B000C9F80010396801EA06020299114339605A
:10F9C000002101660398FCF797FC0BB00020BDE80E
:10F9D000F08F00001ADD020000010008010100089C
:10F9E000E8DC02004CDD0200030100087EDD0200BD
:10F9F0000201000804010008E4DC020040000140AC
:10FA0000E0000140000001404FF0FF339AB132287E
:10FA100022BF13600520704700F01F034FF0040C55
:10FA20000CEAD00000F1804000F5803029B10129B6
:10FA300009D002290DD006207047D0F88000D840A8
:10FA400000F001000AE0D0F88800D84000F0010082
:10FA500004E0D0F8A000D84000F0010010600020C1
:10FA60007047F8B500270D460646322824BF05200A
:10FA7000F8BD052D84BF0620F8BD06F01F0001214A
:10FA800001FA00F4FCF734FC0090042000EAD600F0
:10FA900000F1804000F58030062D1CD2DFE805F033
:10FAA000060309120F15C0F8904015E0C0F8984001
:10FAB00012E0D0F888106140C0F888100CE0C0F85F
:10FAC000A84009E0C0F8B44006E0D0F8B4106140A6
:10FAD000C0F8B41000E006270098FCF70DFC38468B
:10FAE000F8BD00002DE9F04F85B00C46B0F10008DC
:10FAF0004FF000071CBFD8F8000010F0807F04D042
:10FB0000BA4920F07F40884203D005B00220BDE80A
:10FB1000F08F002C02BF062005B0BDE8F08F207CDE
:10FB200001287DD8D4F80C90B9F1000F04BF002053
:10FB300020740122214640461BF0FAFD00281CBF1C
:10FB400005B0BDE8F08F98F82C08022868D0D4E9F9
:10FB5000010BD8F804500290207F94F810A00028E0
:10FB600018BF01200190BAF1000F0CBF6669A669A9
:10FB70000120009000235A1E08F12401D8F86008E3
:10FB8000FFF7FAFC00281CBF05B0BDE8F08F01208C
:10FB900000909748042300EB053103910622D8F822
:10FBA0006008FFF7E9FC00281CBF05B0BDE8F08F36
:10FBB000280300F1A04505F58045D5F80002049022
:10FBC0000020C5F80002D5F8800220F00100C5F839
:10FBD00080024FF0FF30C5F808022068C5F8040421
:10FBE00098F80800002811BF0020206808F50A6175
:10FBF000405CC5F81C0298F8080000280CBF20687B
:10FC000000204FF4401303EA00507A4BDDE9012154
:10FC100003EA09231843DFF8E091BAF1010F00E08D
:10FC200048E00CBF40F0020040F001004FF08003BC
:10FC300003EAC21242EA00004FF0600240EA0B60A1
:10FC400002EA411141EA0001CBF30F20C5F820027E
:10FC5000E46808D0BAF1000F04BFD5F80001C0F382
:10FC600007205AD08DE0C5F81812002C47D000BFED
:10FC7000D5F80001C0F30743042B38BF4FF0010A49
:10FC80003BD2002F18BF9C4211D81020FFF762FC16
:10FC9000D5F8040200F00107D5F80001C0F30743CE
:10FCA000042B2AD251460AF1010A4945E9D3042B13
:10FCB00067D322E005B00720BDE8F08FD5F8081122
:10FCC0001B1F042C03D346F8041B241F13E0012C34
:10FCD000D8BF0124721E14F0010F02D002F8011FD8
:10FCE000090A601006D05170090A02F8021F090AB9
:10FCF000401EF8D10024042B02D3002CDED140E0BA
:10FD0000002CB5D13DE000BF56F8042BC5F80C21FE
:10FD1000001F042C2CBF241F0024042804D3002C13
:10FD2000F2D1C5F818122CE0C5F818124CB3D5F86A
:10FD300000010027C0F30720042814D2D5F80412CC
:10FD400011F0010F1DD139467F1C494509D2102001
:10FD5000FFF700FCD5F80001C0F307200428EDD31D
:10FD600001E004280DD364B156F8041BC5F80C114A
:10FD7000001F042C2CBF241F00240428F3D2002CC5
:10FD8000D5D1012000900423062248460399FFF7AD
:10FD9000F3FB060011D000BFD5F80412404606F070
:10FDA00095F800BF4FF0FF30C5F808020498C5F879
:10FDB000000205B03046BDE8F08FD5F8040210F01F
:10FDC0006C0F18BF4FF00066E6D110F4007F18BF2B
:10FDD0000A4EE1D110F0100F18BF094EDCD110F41B
:10FDE000904F0CBF002C0126D6D1DBE75634120011
:10FDF000B4420050FFFF0F0020A1070001000008DF
:10FE0000020000082DE9F04F021E1CBF136813F01A
:10FE1000807F05D0DFF864C223F07F40604502D0C8
:10FE20000220BDE8F08F00291CBF506806282DD2A3
:10FE300013F0007F1CBF0720BDE8F08F0B78000394
:10FE400000F1A046137206F5804641F21003C6F891
:10FE500004310878E8B101281CBF0520BDE8F08F07
:10FE60004868A0F5D460B0F5C03004BF844B854825
:10FE70007CD0A0F59F50B0F5902004BF824B834802
:10FE800074D0A0F51F50B0F5102F70D00620BDE83B
:10FE9000F08F0F7A032FF9D87D484B688342F5D84D
:10FEA000C7F34009002B7DD0B0FBF3FCB0FBF3F4AB
:10FEB00003FB1400002818BF01200CEB0004604273
:10FEC0002040B0FA80F0C0F11F0CBCF1060F6ADCD4
:10FED000B3F5376F09D9A3F574056E48A5F510552C
:10FEE000854288BF4FF0000A01D84FF0010A012077
:10FEF00000EB4A0808FA0CF0B4FBF0F5B4FBF0FB99
:10FF000000FB1B40002818BF01202844B0FA80F5F0
:10FF1000C5F11F05072D84BFAC44ACF1070C0CF1F3
:10FF2000010CBCF1070F88BF002371D8072D0ED933
:10FF3000ED1F20FA05FB4FF0010E0EFA05F5B0FBA0
:10FF4000F5FE05FB1E00002818BF01205844524D45
:10FF5000AB4207D2ACF101050123AB40A34218BF6D
:10FF6000012400D10024B9F1000F01E055E057E071
:10FF700014BF831E431E5B084FF4E06505EA0C299D
:10FF80004FF4006505EACA254FF4805A49EA050591
:10FF90000AEA043A45EA0A054FF47F0A0AEA0343EB
:10FFA0002B4301E034E065E04FF07F4505EB006551
:10FFB000ACF1010C08FA0CF8401E2B436043344DA1
:10FFC000401C08FB00F0B5FBF0F8B5FBF0F400FBBB
:10FFD0001858B8EB500F8CBF0120002004442F4864
:10FFE000B4FBF0F800FB1848B8F1000F10D1B4FBD7
:10FFF000F0F068B1A0F1010810EA080F08D1032061
:020000040001F9
:1000000000FA0CF0B5FBF0F3B5FBF0FC49F400632B
:1000100007F00300C6F8000306E0C6F8000403E09A
:100020001F4B2048C6F8000443F00100C6F8100238
:1000300017484B68B0FBF3F0C2F864084FF47A70CD
:10004000C2F86008C868D06008691061800016496D
:100050002038A1FB00108009C2F85808B0F5807F55
:1000600088BF4FF48070C2F858080020C2F8A0087A
:10007000BDE8F08F4FF0060C2AE70000563412005E
:1000800001123B7770F0030001120E1D70F20300A5
:10009000006CDC02FF117A00001BB70090D0030057
:1000A0000113030640302100ABAAAAAA10B5040030
:1000B00084B04FF000001CBF216811F0807F04D095
:1000C000384B21F07F429A4202D004B0022010BD8A
:1000D00011F0007F1EBF002004B010BD227A6168BD
:1000E000002A14BF01230023090301F1A04202F5F5
:1000F0008042D2F81412C1F3420C01219C450EBF7C
:10010000C2F814121023C2F81432E268002A43D055
:1001100000206062E0616368234A1B0303F1A0438F
:1001200003F58043C3F8A422C4F8540884F83C08BB
:10013000C4F83808C4F84408C4F8400884F82C0807
:10014000C4F8300884F82D18D4E9032394F804C0C7
:10015000C4F828082062C4F85C085808CDE90002F9
:100160008DF808100CF0FF0004F628026946FEF72F
:1001700099FF002804BF4FF4807222624FF0020101
:1001800062684FEA023202F1A04202F58042C2F8F0
:1001900040121CBF04B010BD216841F00071216005
:1001A00004B010BD5634120040008000062824BF61
:1001B00005207047002904BF0620704710B440F2A4
:1001C000292200FB02F30C4A52F823C01CF0807F66
:1001D0001EBF072010BC70472CF0007C4CF0807CC8
:1001E000064C64F3170C42F823C002EB8302506004
:1001F0000A6010BC00207047EC3F0010563412001B
:1002000070B51546041E1CBF206810F0807F04D016
:10021000BB4B20F07F429A4201D0022070BD0029E2
:100220007DD001291EBF0229062070BD10F0007F7D
:1002300010D060684FEA003000F1A04000F5804027
:10024000D0F8B40200F00600042807BF606A002856
:10025000032070BD002D7CD06068000300F1A04039
:1002600000F58040D0F80401C4F86C086068000311
:1002700000F1A04000F58040D0F81002C4F87408E6
:100280006068000300F1A04000F58040D0F814023F
:10029000C4F878086068000300F1A04000F58040D1
:1002A000D0F89402C4F87C086068000300F1A04014
:1002B00000F58040D0F89802C4F880086068000318
:1002C00000F1A04000F58040D0F8A002C4F88408F6
:1002D0006068000300F1A04000F58040D0F8A8025B
:1002E000C4F888086068000300F1A04000F5804071
:1002F000D0F8AC02C4F88C086068000300F1A0409C
:1003000000F58040D0F8B002C4F89008606800039F
:1003100000F1A04000F58040D0F8000300E03CE090
:10032000C4F894086068000300F1A04000F5804024
:10033000D0F80004C4F898086068000300F1A040F9
:1003400000F58040D0F80002C4F89C086068000303
:1003500000E019E000F1A04000F58040D0F8400234
:10036000C4F870086068000300F1A04000F5804008
:10037000D0F8940210F0010F1CBFD4F82808FEF743
:1003800051FE012084F868082079801CC0B200F07A
:10039000A9FA00287ED0092070BD2DB194F8680814
:1003A000002804BF072070BD2079801CC0B200F077
:1003B000F7FA0028EFD1002D6CD06168D4F86C08F2
:1003C000090301F1A04101F58041C1F80401616810
:1003D000D4F87408090301F1A04101F58041C1F886
:1003E00010026168D4F87808090301F1A04101F511
:1003F0008041C1F814026168D4F88008090301F152
:10040000A04101F58041C1F898026168D4F88808DC
:10041000090301F1A04101F58041C1F8A80261681A
:10042000D4F88C08090301F1A04101F58041C1F81D
:10043000AC026168D4F89008090301F1A04101F50C
:100440008041C1F8B0026168D4F89408090301F151
:10045000A04101F58041C1F800036168D4F8980813
:10046000090301F1A04101F58041C1F80004616870
:10047000D4F89C08090301F1A04101F58041C1F8BD
:1004800000026168D4F87008090301F1A04101F588
:10049000804100E032E0C1F84002616894F88408CD
:1004A000090301F1A04101F58041C1F8A40261688E
:1004B000D4F87C08090301F1A04101F5804120F046
:1004C0000100C1F8940294F87C0810F0010F12D0DA
:1004D000606A60B96168080300F1A04000F58040DF
:1004E000D0F89802074A02EB0131C0E90010D4F8B5
:1004F0002808FEF7B7FD002084F86808002070BDCA
:1005000056341200984200502DE9F04F87B00D4646
:100510004FF0000A039000281CBF006810F0807F95
:1005200004D09C4920F07F40884203D007B00220CD
:10053000BDE8F08F002D02BF062007B0BDE8F08FA8
:10054000287C02281EBF072007B0BDE8F08F0122DB
:10055000294603981BF0ECF800281CBF07B0BDE843
:10056000F08F03984468D5E901060290287F95F83A
:100570001090D5F80CB0002818BF01200190D5E9E3
:10058000058701200090039803990023D0F86008A4
:100590005A1E2431FEF7F0FF00281CBF07B0BDE84B
:1005A000F08F012000907C48042300EB0431039875
:1005B00004910622D0F86008FEF7DEFF00281CBF79
:1005C00007B0BDE8F08F200300F1A04404F580449B
:1005D000D4F8000205900020C4F80002401EC4F8C0
:1005E00008022868C4F804040398296800F50A6022
:1005F000085CC4F81C020398007A002814BF00218C
:1006000029684FF4401303EA0151644BDDE90120EE
:1006100003EA0B231943B9F1010F0CBF41F00201AA
:1006200041F00101802303EAC2121143602241EA32
:10063000066102EA40100843C6F30F21C4F82012F5
:10064000D4F8001341F00401C4F80013C4F81802F0
:10065000EE68DFF84CB1351E62D000BFD4F800015F
:100660004FF00009D4F80011C0F30720C1F307418F
:1006700018E04A4609F101095A4517D2BAF1000FAC
:1006800018BF8D424CD81020FEF764FFD4F8040246
:1006900000F0010AD4F80001D4F80011C0F30720DB
:1006A000C1F30741042838BF0429E2D3BAF1000F8F
:1006B00036D104280DD204292DD231E058F8042B6C
:1006C000C4F80C21001F042E2CBF361F002604285E
:1006D0001FD3F6B1F2E700BFD4F80801091F042DBB
:1006E00003D347F8040B2D1F13E0012DD8BF0125BC
:1006F0007A1E15F0010F02D002F8010F000A6B10EC
:1007000006D05070000A02F8020F000A5B1EF8D1F2
:100710000025042901D3002DDED156EA05009DD124
:10072000012000900423062258460499FEF724FF76
:10073000050016D0D4F80412039805F0C7FB00BFDB
:10074000D4F8000320F00400C4F800034FF0FF3099
:10075000C4F808020598C4F8000207B02846BDE8AE
:10076000F08FD4F8040210F06C0F18BF4FF0006542
:10077000E0D110F4007F18BF0A4DDBD110F0100F4C
:1007800018BF094DD6D110F4904F0CBF002E012593
:10079000D0D1D5E756341200B4420050FFFF0F000D
:1007A00020A10700010000080200000829B1454A05
:1007B00028B1012817D0022869D006207047906917
:1007C000C0F380130B70C0F380004870D2F8A00112
:1007D000C0F3816008715069C0F340028A7000F074
:1007E0000100C8706BE01068086053684B60936844
:1007F0008B60D368CB6013690B6152694A6100F06A
:1008000001028A613C2202EA9043DFF8BCC002EA9E
:1008100090300CF140025CF80330CB611058086254
:100820002A4800682A4AC0B24862136803F00F03DE
:1008300040EA032048621068121DC0F3031088626A
:10084000136803F00F0340EA031088621068C0F3D6
:1008500003100001121DC8621268C2F30312104394
:10086000C8621C4800681C4A000608631268D2B2BD
:1008700040EA0240194A08631268D2B240EA0220F4
:10088000174A08631268D2B21043086317E0D2F81F
:10089000CC0100F001030B70C0F340030B72C0F3F6
:1008A00080000874D2F8C401C8604868D2F8C0312A
:1008B000184348604869D2F8C821104348610020B5
:1008C00070470000000002404CDE0200E00F00F024
:1008D000E40F00F0FC0F00F0F80F00F0F40F00F050
:1008E000F00F00F02DE9F8430446FBF701FDDFF8B7
:1008F000A8800090D8F80800284F04EB440557F86A
:1009000025108843C8F808000098FBF7F5FC002480
:1009100007EB8506A020FEF71DFED8F818007168C9
:10092000084202D00A34142CF4D3D8F818000A462E
:10093000104008BFBDE8F8830120D8F80810042A49
:1009400010D0082A1DD0102A18BFBDE8F88311F076
:10095000700F08BFBDE8F88357F825200A420DD074
:10096000BDE8F88340F28152114208BFBDE8F88328
:1009700057F825200A4218BFBDE8F8830020BDE8DB
:10098000F88311F00E0F08BFBDE8F88357F8252053
:100990000A42F3D0BDE8F883001002400CE00200E8
:1009A0002DE9F8430546FBF7A3FC174C0090A0681F
:1009B000DFF8588005EB450658F826100843A0607C
:1009C0000098FBF799FC002508EB8607A020FEF7AE
:1009D000C1FDA0697968084202D10A35142DF5D30A
:1009E000A06908421CBF0020BDE8F883FBF780FC2B
:1009F0000090A06858F826108843A0600098FBF784
:100A00007BFC0120BDE8F883001002400CE00200EE
:100A10004FF0000CC0F800C0C0F804C0C0E90421C9
:100A2000C0E902C37047F8B5044600690D4600FBF3
:100A300002F60027FBF75CFC0090D4E90210401A94
:100A4000B0423DD3002E37D0681E16F0010F0DD0F6
:100A50001DB1236862694178D1542168E268491C5C
:100A6000B1FBF2F302FB1311401C2160710823D08B
:100A7000002D05D0D4F800C06369427803F80C203B
:100A80002268E36802F10102B2FBF3FC03FB1C22C3
:100A9000226005D0D4F814C083780CF802302268A4
:100AA00000F1020002F10103E268491EB3FBF2FC0F
:100AB00002FB1C322260DBD1A06801273044A06019
:100AC0000098FBF719FC3846F8BDF8B504460069F4
:100AD0000D4600FB02F60027FBF70AFC0090A06819
:100AE000B04239D3002E33D0681E16F0010F0DD05E
:100AF0001DB162686169895C41706168E268491C86
:100B0000B1FBF2F302FB1311401C616071081FD0AE
:100B1000002D03D063686269D25C42706268E3684A
:100B200002F10102B2FBF3FC03FB1C22626003D062
:100B300063699A5C82706268E36802F10102B2FB49
:100B4000F3FC03FB1C2200F102006260491EDFD1AE
:100B5000A068801B0127A0600098FBF7CDFB3846FA
:100B6000F8BD00002DE9F84304000E46606A1CBF82
:100B7000216811F0807F05D0DFF8348221F07F41B9
:100B8000414502D00220BDE8F8830027000300F1B0
:100B9000804505F5E0352F6394F86400062824BFEE
:100BA0000620BDE8F88300280EBF4FF00109401E63
:100BB00000F0FF09FBF79CFB0090286B40F0080059
:100BC0002863286B69F3061028630098FBF794FBF1
:100BD000FBF78EFB0090286B20F001002863286B48
:100BE00020F400702863286B20F48070286300983C
:100BF000FBF782FB6F483168C268D3B26E4A122B92
:100C000002D1B1F5612F1BD8C068C0B2212824BF22
:100C10006A48814214D8286BC0F30210012808BF2B
:100C2000674810D0022808BF66480CD0032808BFC8
:100C3000654808D004281ABF2766644A644802D071
:100C40001046BDE8F8830901B0FBF1F34FEA801CC0
:100C5000BCFBF1F14FEA831CB1EB0C01002B08BF88
:100C60002766EDD06B626B62A9621A0102EB9101FB
:100C7000B0FBF1F12166286B20F480402863286BDB
:100C800020F400402863286B3169084328637069A9
:100C90006863D6E901010843F16841F01001084397
:100CA000E862FBF725FB0090286B40F00100286309
:100CB000286B40F400702863286B40F48070286330
:100CC0000098FBF719FB183620686ACE10F0807F79
:100CD0006BD020F07F40404567D14FF001090029DB
:100CE00018BF002B19D084F828904FF0010204F1AE
:100CF0002C00FFF78DFE2068616A10F0807F54D0D1
:100D000020F07F40404550D1080300F1804000F5BD
:100D1000E030816B41F0200112E084F828702068F7
:100D2000616A10F0807F40D020F07F4040453CD188
:100D3000080300F1804000F5E030816B21F02001D4
:100D40008163002D18BF002E1BD084F844903346D9
:100D50004FF00102294604F14800FFF759FE2168CF
:100D6000606A11F0807F20D021F07F4141451CD185
:100D7000000300F1804000F5E030816B41F050014C
:100D800012E084F844702168606A11F0807F0CD012
:100D900021F07F41414508D1000300F1804000F57A
:100DA000E030816B21F0500181630020BDE8F883C1
:100DB000069EEA00000002400300000860E31600FF
:100DC00000366E01001BB700808D5B00020000083A
:100DD000C0C62D00002A12BF0028062070474FF021
:100DE000000329B91178062938BF80F8641000D3B0
:100DF0000623184670470000022824BF05207047CC
:100E0000002904BF0620704710B400EB800202EBFB
:100E1000C0030C4A52F833C01CF0807F1EBF07206D
:100E200010BC70474CF0807C074C64F3170C42F800
:100E300033C002EBC30250620020107110660A60DA
:100E400010BC7047C4730010069EEA00426A002876
:100E50001CBF006810F0807F04D0074B20F07F405B
:100E6000984201D002207047100300F1804000F545
:100E7000E030416400207047069EEA002DE9F04F03
:100E800004008BB0D4F824801746894606461CBF60
:100E9000206810F0807F04D0514920F07F408842C4
:100EA00004D00BB04FF00200BDE8F08F19F0500FE6
:100EB0001CBF96F84400002832D0FBF719FA0890BE
:100EC0000020616A2023090301F18041EC460DF105
:100ED000240A054601F5E0318A6912F0100F0CD1A1
:100EE0000A6812F4706F02D04FF0006505E00CF84C
:100EF000002000F101009842EED3BAF1000F18BFB4
:100F000009901DB10898FBF7F7F924E0614604F158
:100F10004800099AFFF787FDC8B10898FBF7ECF97C
:100F200019F0200F4FF000091CBF96F82800002888
:100F300030D0656AFBF7DCF90190280300F18045A9
:100F400005F5E035A86910F0200F08D01FE0254D09
:100F50000898FBF7D1F90BB02846BDE8F08F0122C5
:100F6000694604F12C00FFF7B0FD80B1606A000310
:100F700000F1804000F5E030816911F0200F04BFDE
:100F80009DF800100160A86910F0200FE7D00198CB
:100F9000FBF7B2F9EFB196F82810012061B1716B3F
:100FA000B9B94FEA083101F1804101F5E0318969B1
:100FB00011F0080F0DD111E04FEA083101F1804125
:100FC00001F5E031896911F0080F18BFC7F80090EA
:100FD00004D00BB04FF00000BDE8F08F3860F8E7A8
:100FE000069EEA0001000008436A00281CBF006852
:100FF00010F0807F05D0DFF828C020F07F406045EA
:1010000001D0022070474FEA033000F18040002AEF
:1010100000F5E03014BF006CC06B08600020704722
:10102000069EEA002DE9F843456A041E05F108030F
:1010300003F0FF081CBF206810F0807F04D0394FF8
:1010400020F07F40B84202D00220BDE8F88300269D
:1010500000293ED001291EBF02290620BDE8F883E1
:10106000D2B1FBF745F90090280300F1804000F56C
:10107000E030016AA160416AE160816A2161C16A70
:101080006161016BA161416BE161806B20620120B4
:1010900020710098FBF730F92268616A4FF0FF3049
:1010A00012F0807F09D022F07F42BA4205D10903B5
:1010B00001F1804101F5E0314864280300F18040EE
:1010C00000F5E03006634046FFF70CFC0020BDE869
:1010D000F8831AB32079002804BF0720BDE8F883FD
:1010E0004046FFF75DFCFBF703F90090280300F191
:1010F000804000F5E030A1680162E1684162216949
:1011000081626169C162A1690163E1694163216A28
:10111000816326710098FBF7EFF8D7E74046FFF7A9
:101120003FFCD3E7069EEA002DE9F04F0A689FB026
:101130000B46AAB1012A1EBF07201FB0BDE8F08FE1
:101140000446D3E901A2D1F80C901F69B9F1000F50
:1011500076D000261500B04600F0738100F06EB91D
:101160000446586801909A680026D1F80C901F69CF
:101170001546B046B9F1000F19D0002D7ED0C845F4
:101180007CD20020019907AB0790B4F1000A3144EA
:101190002A460D931CBFDAF8003013F0807F04D08C
:1011A00023F07F4CB34B9C4509D0022175E00146EA
:1011B0003B4620461AF0FCFA1FB0BDE8F08F002035
:1011C0000790002A68D094F82800C0B3D4E90D0332
:1011D000181A824228BF024604F12C000A92FFF737
:1011E00022FCDAF824B0FBF783F80E904FEA0B30BC
:1011F00000F1804B0BF5E03BDBF8180010F0200FFE
:1012000019D1012202A90AF12C00FFF75EFC90B16E
:10121000DAF82400000300F1804101F5E03188692B
:1012200010F0200F04BF9DF808000860DBF81800DC
:1012300010F0200FE5D00E98FBF75EF827E000E0F5
:1012400046E053460020D3F824C00DF1280AB2F13D
:10125000004F80F0FB800123012A14DB4FEA0C3C95
:101260000CF1804C0CF5E03CDCF818B01BF0200FC2
:1012700009D111F800B0CCF800B000E022E0401C29
:101280005B1C9342F0DDBAF1000F18BF0A900D9875
:1012900000281CBF0A9807900021079806442D1AC1
:1012A00031B1002F18BF3E6008461FB0BDE8F08F77
:1012B00045B11020FEF74EF9B9F1FF3F18BF08F114
:1012C00001085CE7002F7DD11FB00020BDE8F08F42
:1012D0003B4651460EF010FC1FB0BDE8F08F00BF3A
:1012E0004FF0000B0AEB0600CDF81CB0029007A8E7
:1012F0000F90002C1CBF206810F0807F04D020F0DD
:101300007F415C48814202D04FF0020B52E0ADB306
:1013100094F8440098B3A3461C94FAF7E9FF4FF001
:10132000000CCDF86CC01890DBF8240020220003DC
:1013300000F1804110AB0DF1640E01F5E0318869D8
:1013400010F0100F0DD1086810F4706F03D04FF03B
:1013500000601B9005E003F80C000CF1010C9445B3
:10136000EDD3BEF1000F18BFCDF864C0DDF86CB04E
:10137000BBF1000F04D01898FAF7BEFF1AE02EE078
:101380001C9819464830199AFFF74DFB08B3189876
:10139000FAF7B2FF226D2846954238BF02460892FE
:1013A00004F148000299FFF790FB0F9800281CBF3A
:1013B000089807905FEA0B0007990E44A5EB01051A
:1013C00033D000E040E0002F18BF3E601FB0BDE802
:1013D000F08FDFF8A4B01898FAF78EFFEAE708A8B4
:1013E0000D90DDF808C04FF00000616A2B008646C2
:1013F0001EBF090301F1804202F5E0320FD091696E
:1014000011F0100F0BD1116811F4706F02D04FF072
:10141000006E04E00CF80010401C9842EFD30D99C8
:10142000002918BF0890F346BFE755B11020FEF71A
:1014300091F8B9F1FF3F18BF08F10108C1453FF627
:101440004FAF002F3FF440AF3E603DE74FEA0C3313
:1014500003F1804303F5E033D3F818C01CF0200FEC
:101460007FF411AF11F800C0C3F800C0401C9042D7
:10147000F2D308E7069EEA00010000081CB501222D
:1014800001A908480068FFF7AFFD06480199006808
:10149000FFF7DCFC6A46034801990068FFF7EEFCA1
:1014A0001CBD000000000010FEB504466846FDF7B4
:1014B0009FFD009E40F6B830B6FBF0F000FB04F54F
:1014C0002846FEF747F8FEBDFEB504466846FDF720
:1014D0008FFD009E0448B6FBF0F000FB04F52846A3
:1014E000FEF738F8FEBD0000C0C62D0092B00546DC
:1014F00018216846FBF708FA002410947148006828
:1015000010901098C0B28DF844001098000A8DF821
:10151000450010984FF6FF7101EA1040ADF8460003
:101520006848103000680F909DF8450000F00200F8
:1015300020B129460620FAF7D2FE01E04FF0FF3035
:101540000E9029460020FAF7CAFE0690294601208F
:10155000FAF7C5FE079029460220FAF7C0FE089068
:1015600029460320FAF7BBFE099029460420FAF722
:10157000B6FE0A9029460520FAF7B1FE0B902946DF
:101580000620FAF7ACFE0C9029460720FAF7A7FED2
:101590000D9069460220FFF709F94BA000F018FAF8
:1015A000069950A000F014FA079953A000F010FA21
:1015B000089956A000F00CFA099959A000F008FA11
:1015C0000A995CA000F004FA0B995FA000F000FA01
:1015D0000C9962A000F0FCF90D9965A000F0F8F9F3
:1015E00068A000F0F5F90E996CA000F0F1F90F99E0
:1015F00071A000F0EDF99DF8441079A000F0E8F931
:101600009DF8451082A000F0E3F9BDF846108BA0CC
:1016100000F0DEF9802437E09DF8450020401028D6
:101620001BD008DC012828D0022822D004281CD096
:10163000082826D115E020280BD0402805D0802886
:101640001FD189A000F0C4F91CE08FA000F0C0F900
:1016500018E095A000F0BCF914E09AA000F0B8F9E9
:1016600010E09FA000F0B4F90CE0A5A000F0B0F9E4
:1016700008E0ABA000F0ACF904E0B1A000F0A8F9DC
:1016800000E000BF00BF6408002CC5D1B3A000F08B
:101690009FF99DF8000018B1B5A0019900F098F9E4
:1016A0009DF8080018B1BAA0039900F091F99DF8CF
:1016B000100018B1BEA0059900F08AF900BF00BF64
:1016C000FEE7000028ED00E0486172642046617585
:1016D0006C7420737461636B656420646174613A37
:1016E0000A00000020202020523020203D203078A9
:1016F000253038580A0000002020202052312020B8
:101700003D203078253038580A0000002020202065
:10171000523220203D203078253038580A00000011
:1017200020202020523320203D203078253038588A
:101730000A00000020202020523132203D20307845
:10174000253038580A000000202020204C5220204C
:101750003D203078253038580A0000002020202015
:10176000504320203D203078253038580A000000B2
:1017700020202020505352203D20307825303858EA
:101780000A0000004F746865722048617264204648
:1017900061756C7420646174613A0A002020202015
:1017A0004661756C742061646472657373203D20BA
:1017B0003078253038580A002020202042464152F7
:1017C0002028427573204661756C742041646472F0
:1017D0002052656729203D203078253038580A008E
:1017E000202020204D4D535220284D656D204D67FF
:1017F0006D74204661756C74205374617475732028
:1018000052656729203D203078253032580A000083
:1018100020202020424653522028427573204661E2
:10182000756C742053746174757320526567292038
:101830003D203078253032580A000000202020203A
:101840005546535220285573616765204661756C73
:1018500074205374617475732052656729203D208C
:101860003078253034580A002020202020202020E5
:101870004246535220626974373A204246415256DA
:10188000414C49440A000000202020202020202034
:101890004246535220626974363A205245534552AB
:1018A0005645440A0000000020202020202020204F
:1018B0004246535220626974353A204C5350455287
:1018C000520A00002020202020202020424653528F
:1018D00020626974343A2053544B4552520A000036
:1018E000202020202020202042465352206269746C
:1018F000333A20554E53544B4552520A00000000D3
:10190000202020202020202042465352206269744B
:10191000323A20494D5052454349534552520A00EC
:10192000202020202020202042465352206269742B
:10193000313A20505245434953454552520A00001E
:10194000202020202020202042465352206269740B
:10195000303A20494255534552520A004D435520D2
:101960004661756C7420646174613A0A000000007D
:1019700020202049434F4445204661756C74204126
:101980006464726573733A203078253038580A00E1
:1019900020202044434F4445204661756C7420410B
:1019A0006464726573733A203078253038580A00C1
:1019B000202020535953204661756C742041646483
:1019C000726573733A203078253038580A00000069
:1019D0000FB438B50B48006818B9002038BC5DF862
:1019E00014FB05A800900848009A049900F024F818
:1019F00004460020009004480249096888472046B0
:101A0000ECE7000014010010FD1900100149086006
:101A1000704700001401001010B502A0FFF7D8FFB6
:101A200010BD00000A0A0A0A0A0A0A0A0A0A0A0A71
:101A30000A0A0A0A0A0A00002DE9F74F2DED028B67
:101A40008AB004460D464FF0000900200090B9E12D
:101A5000062006902878252812D06CB128780A280C
:101A600007D1DE48007820B10D2004F8010B09F100
:101A70000109287804F8010B6D1C09F10109A1E1A5
:101A80006D1C0020029003902020049028783028BC
:101A900001D104906D1C07A9284601F08FFA064673
:101AA000079805442878732802D0002E00DA764281
:101AB00028782E2807D16D1C07A9284601F07EFA48
:101AC00006900798054428786C2806D16D1C287864
