:10C0000000100010A5E800000DE9000085D7000031
:10C010000FE900000FE900000FE900000000000038
:10C0200000000000000000000000000011E9000016
:10C0300011E900000000000011E9000011E9000012
:10C0400011E9000011E9000011E9000011E9000008
:10C0500011E9000011E9000011E9000011E90000F8
:10C0600011E9000011E9000011E9000011E90000E8
:10C0700011E9000041ED0000F1EE0000CDD4000018
:10C0800011E9000011E9000011E9000011E90000C8
:10C0900011E9000011E9000011E9000011E90000B8
:10C0A00011E9000011E9000011E9000011E90000A8
:10C0B00011E9000011E9000011E9000011E9000098
:10C0C0000000000000000000000000000000000070
:10C0D0000000000000000000000000000000000060
:10C0E0000000000000000000000000000000000050
:10C0F0000000000000000000000000000000000040
:10C10000844641EA000313F003036DD1403A41D362
:10C1100051F8043B40F8043B51F8043B40F8043B21
:10C1200051F8043B40F8043B51F8043B40F8043B11
:10C1300051F8043B40F8043B51F8043B40F8043B01
:10C1400051F8043B40F8043B51F8043B40F8043BF1
:10C1500051F8043B40F8043B51F8043B40F8043BE1
:10C1600051F8043B40F8043B51F8043B40F8043BD1
:10C1700051F8043B40F8043B51F8043B40F8043BC1
:10C1800051F8043B40F8043B51F8043B40F8043BB1
:10C19000403ABDD2303211D351F8043B40F8043B51
:10C1A00051F8043B40F8043B51F8043B40F8043B91
:10C1B00051F8043B40F8043B103AEDD20C3205D361
:10C1C00051F8043B40F8043B043AF9D2043208D059
:10C1D000D2071CBF11F8013B00F8013B01D30B88CB
:10C1E00003806046704700BF082A13D38B078DD0A9
:10C1F00010F003038AD0C3F10403D21ADB071CBF7B
:10C2000011F8013B00F8013B80D331F8023B20F8E4
:10C21000023B7BE7043AD9D3013A11F8013B00F81D
:10C22000013BF9D20B7803704B7843708B788370A5
:10C2300060467047000000000000000000000000A1
:10C24000A2EB0300704700BF02780B78012A28BFD9
:10C250009A42F5D16DE9044540EA0104CDE902674F
:10C260006FF0000C4FEA447212B380EA010414F03C
:10C27000070F6AD100F0070420F0070004F003055F
:10C2800021F007014FEAC505F0E8042314F0040F7C
:10C29000F1E804670CFA05F462EA040266EA0406AF
:10C2A0000AD063EA0403624667EA0407664603E0CD
:10C2B000F0E80423F1E8046782FA4CF582EA060408
:10C2C000A4FA8CF46CBB83FA4CF583EA0705A5FA53
:10C2D0008CF595B950E9022351E9026782FA4CF5D1
:10C2E00082EA0604A4FA8CF483FA4CF583EA070583
:10C2F000A5FA8CF52543DBD09CB92DBAB5FA85F4A7
:10C3000024F0070427FA04F1DDE9026723FA04F3B5
:10C3100003F0FF0001F0FF01FDE80445A0EB010080
:10C32000704724BAB4FA84F424F0070426FA04F11E
:10C33000DDE9026722FA04F202F0FF0001F0FF01DA
:10C34000FDE80445A0EB0100704714F0030F3CD159
:10C3500010F0030428D150F8082B51F8083B82FA5A
:10C360004CF582EA0305A5FA8CF55DB950F8042C6A
:10C3700051F8043C82FA4CF582EA0305A5FA8CF5E3
:10C38000002DE8D02DBAB5FA85F424F0070423FA7D
:10C3900004F122FA04F202F0FF0001F0FF01FDE8CF
:10C3A0000445A0EB010070474FEAC40420F00300ED
:10C3B00050F8082B21F0030151F8083B0CFA04F463
:10C3C00062EA040263EA0403C9E710F003041AD026
:10C3D000A1EB040120F00300E40750F8042B06D081
:10C3E0000FD28B785FFAA2F4E41A06D12BB1CB7886
:10C3F0005FFAB2F4E41A00D11BB920465DF8104B85
:10C40000704701F1040150F8042BCC0721F003011F
:10C4100051F8043B48D824D222F07F4482FA4CF5EC
:10C4200094EA1325A5FA8CF50AD165B951F8043BB5
:10C4300084EA0204B4EB036F0ED150F8042BEBE74F
:10C440004FEA132355E035F07F454DD10878FDE8DC
:10C450000445C0F1000070474FEA126203F0FF0389
:10C4600047E002EA1C4482FA4CF594EA1345A5FA27
:10C470008CF50AD165B951F8043B84EA0204B4EBA7
:10C48000034F0CD150F8042BEBE74FEA134330E095
:10C4900015EA1C4528D10B884FEA124229E04FEAE1
:10C4A000124203EA1C4324E002F0FF0482FA4CF536
:10C4B00094EA1365A5FA8CF50AD165B951F8043BE5
:10C4C00084EA0204B4EB032F09D150F8042BEBE704
:10C4D0004FEA13630DE015F0FF0F05D10B684FEA2B
:10C4E000122223F07F4304E04FF00000FDE80445F2
:10C4F000704712BA1BBA82FA4CF482EA0304A4FA17
:10C500008CF5B5FA85F402FA04F203FA04F34FEA63
:10C510001260FDE80445A0EB1360704700000000C6
:10C52000000000000000000000000000000000000B
:10C5300000000000000000000000000000000000FB
:10C5400090F800F06DE9024520F007016FF0000C53
:10C5500010F0070491F820F040F049804FF00004FB
:10C560006FF00700D1E9002391F840F000F10800D6
:10C5700082FA4CF2A4FA8CF283FA4CF3A2FA8CF30E
:10C580004BBBD1E9022382FA4CF200F10800A4FA75
:10C590008CF283FA4CF3A2FA8CF3E3B9D1E90423C9
:10C5A00082FA4CF200F10800A4FA8CF283FA4CF300
:10C5B000A2FA8CF37BB9D1E9062301F1200182FABA
:10C5C0004CF200F10800A4FA8CF283FA4CF3A2FAC0
:10C5D0008CF3002BC6D0002A04BF04301A4612BACE
:10C5E000B2FA82F2FDE8024500EBD2007047D1E9D1
:10C5F000002304F00305C4F100004FEAC50514F060
:10C60000040F91F840F00CFA05F562EA05021CBF30
:10C6100063EA050362464FF00004A9E7000000004A
:10C6200001F0FF01102A2BDB10F0070F08D010F8E3
:10C63000013B013A8B422DD010F0070F42B3F6D1E7
:10C64000F0B441EA012141EA014122F007047FF000
:10C6500000070023F0E80256083C85EA010586EA57
:10C66000010685FA47F5A3FA87F586FA47F6A5FA93
:10C6700087F68EB9EED1F0BC01F0FF0102F007029F
:10C6800032B110F8013B013A83EA010313B1F8D14A
:10C690000020704701387047002D06BF354603382B
:10C6A000073815F0010F07D1013015F4807F02BF64
:10C6B000013015F4C03F0130F0BC0138704700BFB5
:10C6C00081F0004102E000BF83F0004330B54FEA43
:10C6D00041044FEA430594EA050F08BF90EA020FB0
:10C6E0001FBF54EA000C55EA020C7FEA645C7FEA43
:10C6F000655C00F0E2804FEA5454D4EB5555B8BF66
:10C700006D420CDD2C4480EA020281EA030382EAD6
:10C71000000083EA010180EA020281EA0303362D68
:10C7200088BF30BD11F0004F4FEA01314FF4801C3B
:10C730004CEA113102D0404261EB410113F0004F4D
:10C740004FEA03334CEA133302D0524263EB430304
:10C7500094EA050F00F0A780A4F10104D5F1200EA2
:10C760000DDB02FA0EFC22FA05F2801841F10001FD
:10C7700003FA0EF2801843FA05F359410EE0A5F1D1
:10C7800020050EF1200E012A03FA0EFC28BF4CF002
:10C79000020C43FA05F3C01851EBE37101F00045B8
:10C7A00007D54FF0000EDCF1000C7EEB00006EEBC5
:10C7B0000101B1F5801F1BD3B1F5001F0CD349084F
:10C7C0005FEA30004FEA3C0C04F101044FEA4452A6
:10C7D00012F5800F80F09A80BCF1004F08BF5FEA2D
:10C7E000500C50F1000041EB045141EA050130BD0D
:10C7F0005FEA4C0C404141EB0101013C28BFB1F51F
:10C80000801FE9D291F0000F04BF01460020B1FA69
:10C8100081F308BF2033A3F10B03B3F120020CDA3C
:10C820000C3208DD02F1140CC2F10C0201FA0CF01A
:10C8300021FA02F10CE002F11402D8BFC2F1200C7F
:10C8400001FA02F120FA0CFCDCBF41EA0C01904035
:10C85000E41AA2BF01EB0451294330BD6FEA04047E
:10C860001F3C1CDA0C340EDC04F11404C4F1200269
:10C8700020FA04F001FA02F340EA030021FA04F37B
:10C8800045EA030130BDC4F10C04C4F1200220FAD2
:10C8900002F001FA04F340EA0300294630BD21FA10
:10C8A00004F0294630BD94F0000F83F4801306BFD6
:10C8B00081F480110134013D4EE77FEA645C18BFCA
:10C8C0007FEA655C29D094EA050F08BF90EA020F61
:10C8D00005D054EA000C04BF1946104630BD91EA59
:10C8E000030F1EBF0021002030BD5FEA545C05D15C
:10C8F0004000494128BF41F0004130BD14F580049B
:10C900003CBF01F5801130BD01F0004545F0FE410E
:10C9100041F470014FF0000030BD7FEA645C1ABF43
:10C92000194610467FEA655C1CBF0B46024650EA7A
:10C93000013406BF52EA033591EA030F41F40021A6
:10C9400030BD00BF90F0000F04BF0021704730B52C
:10C950004FF4806404F132044FF000054FF0000101
:10C9600050E700BF90F0000F04BF0021704730B5C2
:10C970004FF4806404F1320410F0004548BF404297
:10C980004FF000013EE700BF42004FEAE2014FEAEC
:10C9900031014FEA02701FBF12F07F4393F07F4FC7
:10C9A00081F06051704732F07F4208BF704793F0CA
:10C9B0007F4F04BF41F40021704730B54FF46074DD
:10C9C00001F0004521F000411CE700BF50EA0102E0
:10C9D00008BF704730B54FF000050AE050EA010289
:10C9E00008BF704730B511F0004502D5404261EBF9
:10C9F00041014FF4806404F132045FEA915C3FF43A
:10CA0000D8AE4FF003025FEADC0C18BF03325FEAD6
:10CA1000DC0C18BF033202EBDC02C2F1200300FA87
:10CA200003FC20FA02F001FA03FE40EA0E0021FAAC
:10CA300002F11444BDE600BF70B54FF0FF0C4CF49A
:10CA4000E06C1CEA11541DBF1CEA135594EA0C0F4C
:10CA500095EA0C0F00F0DEF82C4481EA030621EA87
:10CA60004C5123EA4C5350EA013518BF52EA0335C2
:10CA700041F4801143F4801338D0A0FB02CE4FF074
:10CA80000005E1FB02E506F00042E0FB03E54FF0A4
:10CA90000006E1FB03569CF0000F18BF4EF0010E9C
:10CAA000A4F1FF04B6F5007F64F5407404D25FEA98
:10CAB0004E0E6D4146EB060642EAC62141EA55514B
:10CAC0004FEAC52040EA5E504FEACE2EB4F1FD0C8D
:10CAD00088BFBCF5E06F1ED8BEF1004F08BF5FEA0B
:10CAE000500E50F1000041EB045170BD06F00046BD
:10CAF00046EA010140EA020081EA0301B4EB5C046A
:10CB0000C2BFD4EB0C0541EA045170BD41F4801161
:10CB10004FF0000E013C00F3AB8014F1360FDEBF86
:10CB2000002001F0004170BDC4F10004203C35DA62
:10CB30000C341BDC04F11404C4F1200500FA05F3E5
:10CB400020FA04F001FA05F240EA020001F0004286
:10CB500021F0004110EBD37021FA04F642EB0601FC
:10CB60005EEA430E08BF20EAD37070BDC4F10C0426
:10CB7000C4F1200500FA04F320FA05F001FA04F2EA
:10CB800040EA020001F0004110EBD37041F10001D6
:10CB90005EEA430E08BF20EAD37070BDC4F12005E1
:10CBA00000FA05F24EEA020E20FA04F301FA05F249
:10CBB00043EA020321FA04F001F0004121FA04F2F1
:10CBC00020EA020000EBD3705EEA430E08BF20EAC1
:10CBD000D37070BD94F0000F0FD101F000464000FB
:10CBE00041EB010111F4801F08BF013CF7D041EA7D
:10CBF000060195F0000F18BF704703F00046520081
:10CC000043EB030313F4801F08BF013DF7D043EA51
:10CC10000603704794EA0C0F0CEA135518BF95EA07
:10CC20000C0F0CD050EA410618BF52EA4306D1D18E
:10CC300081EA030101F000414FF0000070BD50EAAD
:10CC4000410606BF1046194652EA430619D094EA37
:10CC50000C0F02D150EA013613D195EA0C0F05D121
:10CC600052EA03361CBF104619460AD181EA030175
:10CC700001F0004141F0FE4141F470014FF000002D
:10CC800070BD41F0FE4141F4780170BD70B54FF0C8
:10CC9000FF0C4CF4E06C1CEA11541DBF1CEA135548
:10CCA00094EA0C0F95EA0C0F00F0A7F8A4EB05042A
:10CCB00081EA030E52EA03354FEA013100F0888021
:10CCC0004FEA03334FF0805545EA131343EA1263EA
:10CCD0004FEA022245EA111545EA10654FEA00269F
:10CCE0000EF000419D4208BF964244F1FD0404F558
:10CCF000407402D25B084FEA3202B61A65EB0305B4
:10CD00005B084FEA32024FF480104FF4002CB6EB70
:10CD1000020E75EB030E22BFB61A754640EA0C00F0
:10CD20005B084FEA3202B6EB020E75EB030E22BF30
:10CD3000B61A754640EA5C005B084FEA3202B6EB71
:10CD4000020E75EB030E22BFB61A754640EA9C0030
:10CD50005B084FEA3202B6EB020E75EB030E22BF00
:10CD6000B61A754640EADC0055EA060E18D04FEABE
:10CD7000051545EA16754FEA06164FEAC30343EA5E
:10CD800052734FEAC2025FEA1C1CC0D111F4801F2B
:10CD90000BD141EA00014FF000004FF0004CB6E724
:10CDA00011F4801F04BF01430020B4F1FD0C88BFC3
:10CDB000BCF5E06F3FF6AFAEB5EB030C04BFB6EBCE
:10CDC000020C5FEA500C50F1000041EB045170BDC1
:10CDD0000EF0004E4EEA113114EB5C04C2BFD4EBEE
:10CDE0000C0541EA045170BD41F480114FF0000E72
:10CDF000013C90E645EA060E8DE60CEA135594EAEE
:10CE00000C0F08BF95EA0C0F3FF43BAF94EA0C0FF0
:10CE10000AD150EA01347FF434AF95EA0C0F7FF465
:10CE200025AF104619462CE795EA0C0F06D152EAB9
:10CE300003353FF4FDAE1046194622E750EA41069D
:10CE400018BF52EA43067FF4C5AE50EA41047FF4AE
:10CE50000DAF52EA43057FF4EBAE12E74FF0FF3C13
:10CE600006E000BF4FF0010C02E000BF4FF0010CE4
:10CE70004DF804CD4FEA410C7FEA6C5C4FEA430C5D
:10CE800018BF7FEA6C5C1BD001B050EA410C0CBFAC
:10CE900052EA430C91EA030F02BF90EA020F00200E
:10CEA000704710F1000F91EA030F58BF994208BF75
:10CEB00090422CBFD8176FEAE37040F00100704732
:10CEC0004FEA410C7FEA6C5C02D150EA013C07D189
:10CED0004FEA430C7FEA6C5CD6D152EA033CD3D0D4
:10CEE0005DF8040B704700BF8446104662468C46CE
:10CEF0001946634600E000BF01B5FFF7B7FF002801
:10CF000048BF10F1000F01BD4DF808EDFFF7F4FF29
:10CF10000CBF012000205DF808FB00BF4DF808EDB4
:10CF2000FFF7EAFF34BF012000205DF808FB00BFD7
:10CF30004DF808EDFFF7E0FF94BF012000205DF8F9
:10CF400008FB00BF4DF808EDFFF7CEFF94BF0120AE
:10CF500000205DF808FB00BF4DF808EDFFF7C4FFA7
:10CF600034BF012000205DF808FB00BF4FEA410CF0
:10CF70007FEA6C5C02D150EA013C0AD14FEA430CD3
:10CF80007FEA6C5C02D152EA033C02D14FF0000010
:10CF900070474FF0010070474FEA410212F500124E
:10CFA00015D211D56FF47873B3EB625212D94FEAF0
:10CFB000C12343F0004343EA505311F0004F23FADA
:10CFC00002F018BF404270474FF00000704750EA2F
:10CFD000013005D111F0004008BF6FF000407047EC
:10CFE0004FF00000704700BF4A0011D212F5001246
:10CFF00011D20DD56FF47873B3EB62520ED44FEAB1
:10D00000C12343F0004343EA505323FA02F0704730
:10D010004FF00000704750EA013002D14FF0FF306E
:10D0200070474FF0000070474FEA4102B2F1E04311
:10D0300024BFB3F5001CDCF1FE5C0DD901F0004CFF
:10D040004FEAC0024CEA5070B2F1004F40EB83004F
:10D0500008BF20F00100704711F0804F21D113F17B
:10D060003872BCBF01F00040704741F480114FEAB4
:10D070005252C2F11802C2F1200C10FA0CF320FA3D
:10D0800002F018BF40F001004FEAC1234FEAD3235A
:10D0900003FA0CFC40EA0C0023FA02F34FEA4303C4
:10D0A000CCE77FEA625307D150EA01331EBF4FF04D
:10D0B000FE4040F44000704701F0004040F0FE4068
:10D0C00040F40000704700BF53B94AB9002908BFB7
:10D0D00000281CBF4FF0FF314FF0FF3000F0AAB91D
:10D0E000ADF1080C6DE904CE00F03CF8DDF804E089
:10D0F000DDE9022304B0704738B50022002304465E
:10D100000D46FFF70BFF28B920462946BDE83840F9
:10D1100000F00AB8204605F1004100F005F8404251
:10D1200061EB410138BD00BFD0B50C4B0022064673
:10D130000F46FFF781FCFFF757FF0446FFF702FC9D
:10D14000074B0022FFF778FC02460B463046394673
:10D15000FFF7BAFAFFF748FF2146D0BD0000F03DC7
:10D160000000F0412DE9F047089D04468E46002B53
:10D170004DD18A42944669D9B2FA82F252B101FA8B
:10D1800002F3C2F1200120FA01F10CFA02FC41EA9B
:10D19000030E94404FEA1C48210CBEFBF8F61FFA20
:10D1A0008CF708FB16E341EA034306FB07F19942BB
:10D1B0000AD91CEB030306F1FF3080F01F8199426E
:10D1C00040F21C81023E63445B1AA4B2B3FBF8F048
:10D1D00008FB103344EA034400FB07F7A7420AD9CF
:10D1E0001CEB040400F1FF3380F00A81A74240F2F7
:10D1F00007816444023840EA0640E41B00261DB162
:10D20000D4400023C5E900433146BDE8F0878B4296
:10D2100009D9002D00F0EF800026C5E90001304655
:10D220003146BDE8F087B3FA83F6002E4AD18B422F
:10D2300002D3824200F2F980841A61EB03030120D9
:10D240009E46002DE0D0C5E9004EDDE702B9FFDEC5
:10D25000B2FA82F2002A40F09280A1EB0C014FEA70
:10D260001C471FFA8CFE0126200CB1FBF7F307FBCD
:10D27000131140EA01410EFB03F0884208D91CEB70
:10D28000010103F1FF3802D2884200F2CB8043460D
:10D29000091AA4B2B1FBF7F007FB101144EA0144EC
:10D2A0000EFB00FEA64508D91CEB040400F1FF317B
:10D2B00002D2A64500F2BB800846A4EB0E0440EA69
:10D2C00003409CE7C6F12007B34022FA07FC4CEA72
:10D2D000030C20FA07F401FA06F31C43F9404FEA65
:10D2E0001C4900FA06F3B1FBF9F8200C1FFA8CFE7A
:10D2F00009FB181140EA014108FB0EF0884202FACE
:10D3000006F20BD91CEB010108F1FF3A80F088808E
:10D31000884240F28580A8F102086144091AA4B24B
:10D32000B1FBF9F009FB101144EA014100FB0EFECC
:10D330008E4508D91CEB010100F1FF346CD28E45FB
:10D340006AD90238614440EA0840A0FB0294A1EB8C
:10D350000E01A142C846A64656D353D05DB1B3EBE9
:10D36000080261EB0E0101FA07F722FA06F3F14019
:10D370001F43C5E9007100263146BDE8F087C2F1C0
:10D380002003D8400CFA02FC21FA03F39140014338
:10D390004FEA1C471FFA8CFEB3FBF7F007FB103671
:10D3A0000B0C43EA064300FB0EF69E4204FA02F41D
:10D3B00008D91CEB030300F1FF382FD29E422DD970
:10D3C000023863449B1B89B2B3FBF7F607FB1633A5
:10D3D00041EA034106FB0EF38B4208D91CEB010125
:10D3E00006F1FF3816D28B4214D9023E6144C91AA5
:10D3F00046EA004638E72E46284605E70646E3E6B5
:10D400001846F8E64B45A9D2B9EB020864EB0C0EBE
:10D410000138A3E74646EAE7204694E74046D1E7CD
:10D42000D0467BE7023B614432E7304609E764447B
:10D43000023842E7704700BF82B003468DF80730DC
:10D440009DF90730002B0CDB9DF8073003F01F021D
:10D4500005499DF907305B09012000FA02F241F805
:10D46000232000BF02B0704700E100E082B0034615
:10D4700000918DF807309DF90730002B0ADB009BE7
:10D48000DAB20C499DF907305201D2B20B4483F84D
:10D4900000230BE0009BDAB207499DF8073003F048
:10D4A0000F03043B5201D2B20B441A7600BF02B004
:10D4B000704700BF00E100E000ED00E082B00190A5
:10D4C000014A019B1360FEE79C1C001000B583B06D
:10D4D0000C4B1B6801A9012218462CF0B5FB094B27
:10D4E0001B68019A114618462CF09CFB054B1B68E3
:10D4F00001996A4618462CF0F9FA00BF03B05DF8AE
:10D5000004FB00BF981C001000B58BB001900023F5
:10D5100009930023089302E0099B01330993019AC0
:10D52000099B13441B78002BF6D100230393019B26
:10D530000493099B05934FF0FF33069308AB0793C1
:10D540000C4B1B6803AA114618462CF0CFF8034673
:10D55000002B0AD0074B1B6803AA114618462CF073
:10D56000C5F803461846FFF7A9FF00BF0BB05DF8EA
:10D5700004FB00BF981C001008B500212C2001F00E
:10D5800073FB00212D2001F06FFB00BF08BD0000E0
:10D5900000B585B0002100202AF048F94C482AF057
:10D5A00017F92AF039F9002101202AF03FF94FF448
:10D5B0007A7001F03FF9002108202AF037F9454937
:10D5C00000202BF0D7FE0346002B07D04149002056
:10D5D0002BF0D0FE03461846FFF770FF3D4B1B684B
:10D5E0000022002118462BF0EDFE0346002B0AD046
:10D5F000384B1B680022002118462BF0E3FE03463F
:10D600001846FFF75BFF00238DF80E30314B1B6887
:10D610000DF10E02002118462CF032FB0346002BC0
:10D620000BD02C4B1B680DF10E02002118462CF07C
:10D6300027FB03461846FFF741FF264B1B68264988
:10D6400018462BF043FF0346002B09D0214B1B68E3
:10D65000214918462BF03AFF03461846FFF72EFFE4
:10D660000023029300230193029927202AF026FC2D
:10D67000019928202AF022FC07210F20FFF7F6FE4F
:10D680000F20FFF7D9FE2AF081FE144800F022FA9D
:10D6900001F0C8F8FFF770FF03F01CF903F00CFA73
:10D6A00000238DF80F3009F0EFFC00F019F8034665
:10D6B0008DF80F309DF80F30002BF4D002212D2073
:10D6C0002AF068FD9DF80F30184602F0D5FEEAE713
:10D6D00064070400981C00108CED030009D50000BD
:10D6E00000B58DB000230B9301230693234B0793C2
:10D6F00001230893002309930BAB0A93204B1B686B
:10D7000006AA114618462BF0F1FF0346002B0AD05B
:10D710001B4B1B6806AA114618462BF0E7FF034671
:10D720001846FFF7CBFE0B9B012B21D10023019361
:10D73000124B029301230393002304930BAB059335
:10D740000F4B1B6801AA114618462BF0CFFF03466A
:10D75000002B0AD00A4B1B6801AA114618462BF071
:10D76000C5FF03461846FFF7A9FE044B1B7800E0EF
:10D77000002318460DB05DF804FB00BFA220001086
:10D78000981C001001B51EF0040F0ABFEFF30880CB
:10D79000EFF3098010F1080000F00AF801BD00BFA6
:10D7A0001846800040180068704700BF1846000007
:10D7B00000B597B0019003AB00221A605A609A60DE
:10D7C000DA601A615A6100231593159B1393A44BD9
:10D7D0001B681393139BDBB28DF85030139B1B0A0D
:10D7E000DBB28DF85130139B1B0C9BB2ADF852305D
:10D7F0009C4B1B6812939DF85130DBB203F002037F
:10D80000002B05D001990620FFF7CBFF034601E06E
:10D810004FF0FF33119301990020FFF7C2FF034639
:10D82000099301990120FFF7BCFF03460A93019970
:10D830000220FFF7B6FF03460B9301990320FFF781
:10D84000B0FF03460C9301990420FFF7AAFF03469B
:10D850000D9301990520FFF7A4FF03460E9301994C
:10D860000620FFF79EFF03460F9301990720FFF75D
:10D8700098FF0346109303AB194602202BF062FC7D
:10D88000794800F0AFFF099B1946784800F0AAFFDD
:10D890000A9B1946764800F0A5FF0B9B1946754870
:10D8A00000F0A0FF0C9B1946734800F09BFF0D9BF6
:10D8B0001946724800F096FF0E9B1946704800F01A
:10D8C00091FF0F9B19466F4800F08CFF109B194683
:10D8D0006D4800F087FF6D4800F084FF119B1946EA
:10D8E0006B4800F07FFF129B19466A4800F07AFFF0
:10D8F0009DF85030DBB21946674800F073FF9DF881
:10D900005130DBB21946654800F06CFFBDF852306B
:10D910009BB21946624800F065FF802315937AE0B8
:10D920009DF85130DBB21A46159B1340802B4ED028
:10D93000802B6CD8202B47D8002B68D0013B1F2BA5
:10D9400065D801A252F823F007DA0000FFD90000E1
:10D950000FDA0000F7D900000FDA00000FDA00003C
:10D960000FDA0000EFD900000FDA00000FDA000034
:10D970000FDA00000FDA00000FDA00000FDA000003
:10D980000FDA0000E7D900000FDA00000FDA00001C
:10D990000FDA00000FDA00000FDA00000FDA0000E3
:10D9A0000FDA00000FDA00000FDA00000FDA0000D3
:10D9B0000FDA00000FDA00000FDA00000FDA0000C3
:10D9C0000FDA0000DFD90000402B04D01FE03548FB
:10D9D00000F008FF1CE0344800F004FF18E0334872
:10D9E00000F000FF14E0324800F0FCFE10E0314887
:10D9F00000F0F8FE0CE0304800F0F4FE08E02F489C
:10DA000000F0F0FE04E02E4800F0ECFE00E000BF65
:10DA1000159B5B081593159B002B81D1294800F0BD
:10DA2000E1FE9DF80C30002B04D0049B19462648DB
:10DA300000F0D8FE9DF81430002B04D0069B194648
:10DA4000224800F0CFFE9DF81C30002B04D0089B2C
:10DA500019461F4800F0C6FE00231593FEE700BFDD
:10DA600028ED00E038ED00E06C9F0300889F030084
:10DA70009C9F0300B09F0300C49F0300D89F030036
:10DA8000EC9F030000A0030014A0030028A00300E3
:10DA900040A003005CA0030084A00300B4A0030026
:10DAA000E0A003000CA103002CA103004CA1030083
:10DAB00068A1030084A10300A4A10300C4A1030082
:10DAC000E4A1030000A2030014A2030034A2030097
:10DAD00054A2030082B00190024A019B136000BF70
:10DAE00002B07047A42000102DE9F00F98B0CDE9E6
:10DAF0000E01DDE90E234FF000004FF00001180089
:10DB0000002150EA010300F0B080DDE90E234FF060
:10DB100000044FF00005540844EAC3745D08DDE9D1
:10DB20000E234FF000004FF00001900840EA837090
:10DB3000990814EB000A45EB010BCDE912ABDDE9C6
:10DB400012234FF000004FF00001100940EA03706B
:10DB50001909DDE91223141802944B410393DDE9FE
:10DB60000234CDE91234DDE912234FF000004FF00A
:10DB70000001100A40EA0360190ADDE912231418B3
:10DB800004944B410593DDE90434CDE91234DDE919
:10DB900012234FF000004FF00001100C40EA034048
:10DBA000190CDDE91223141806944B410793DDE9A3
:10DBB0000634CDE91234DDE912234FF000004FF0B6
:10DBC000000118000021DDE91223141808944B41CC
:10DBD0000993DDE90834CDE91234DDE912014FF093
:10DBE00000024FF00003C20842EA4172CB08CDE9BF
:10DBF0001223DDE9124522462B464FF000004FF07C
:10DC00000001990041EA9271900002460B461619F4
:10DC100043EB0507B3190A9347EB07030B93DDE9C1
:10DC20000A6730463946DDE90E23141A0C9463EB7B
:10DC300001030D93DDE90C34CDE91034DDE9102347
:10DC400012F1060843F100094FF000024FF0000303
:10DC50004FEA181242EA09724FEA1913DDE912017C
:10DC6000141800944B4101932AE00E9B1793179BC5
:10DC70005A08179B9B0813441693169B1B09169A68
:10DC800013441693169B1B0A169A13441693169B5D
:10DC90001B0C169A13441693169BDB081693169AC0
:10DCA00013469B0013445B001A46179B9B1A15935F
:10DCB000159B06331A09169B134400220093019208
:10DCC000DDE900231046194618B0BDE8F00F704793
:10DCD00000B585B0CDE90001009A019B1343002BEC
:10DCE0000CBF01230023DBB2039308E0DDE9000150
:10DCF000FFF7FAFECDE90001039B01330393DDE951
:10DD000000231343F2D1039B184605B05DF804FBD2
:10DD100030B583B0CDE90001DDE90023002B07DA3F
:10DD2000DDE900230021544261EB0305CDE9004504
:10DD3000DDE9002310461946FFF7CAFF03461846DF
:10DD400003B030BD84B0CDE90001009A019B1343BC
:10DD5000002B0CBF01230023DBB203930EE0DDE9AF
:10DD600000014FF000024FF00003020942EA017285
:10DD70000B09CDE90023039B01330393DDE9002365
:10DD80001343ECD1039B184604B0704786B0019052
:10DD9000009100238DF81730002304930023039390
:10DDA000019B1B782D2B1CD101238DF81730019B73
:10DDB00001330193039B0133039312E0039B01336F
:10DDC0000393049A13469B0013445B000493019B46
:10DDD0001B781A46049B1344303B0493019B013388
:10DDE0000193019B1B782F2B03D9019B1B78392BA7
:10DDF000E4D9009B002B02D0009B039A1A609DF887
:10DE00001730002B02D0049B5B4200E0049B1846B5
:10DE100006B0704700B591B0CDE902010192002330
:10DE20000F9300230E93DDE90201FFF75DFECDE9BC
:10DE30000C0102990C9A13469B0013445B00CB1A09
:10DE40000B930B9BDAB20F9B591C0F913032D2B25D
:10DE500040336B4403F8302CDDE90C23CDE9022379
:10DE6000DDE902231343DED10F9B0E93019B002BB0
:10DE700010D007E0019B5A1C019204A90F9A0A4492
:10DE800012781A700F9B5A1E0F92002BF2D1019B31
:10DE900000221A700E9B184611B05DF804FB8CB07E
:10DEA000CDE9020101928DF8033000230B93DDE9E7
:10DEB0000223134335D10B9B5A1C0B9230336B4416
:10DEC000302203F8202C2CE09DF8083003F00F03DB
:10DED0008DF82B309DF82B30092B0BD99DF8033092
:10DEE000002B01D0272200E007229DF82B3013449D
:10DEF0008DF82B300B9B5A1C0B929DF82B20303247
:10DF0000D2B230336B4403F8202CDDE902014FF02C
:10DF100000024FF00003020942EA01720B09CDE949
:10DF20000223DDE902231343CED10B9B0993019B0E
:10DF3000002B10D007E0019B5A1C019204A90B9AF8
:10DF40000A4412781A700B9B5A1E0B92002BF2D1C6
:10DF5000019B00221A70099B18460CB0704784B0D0
:10DF6000019000230393019B002B04D1039B09E044
:10DF7000039B01330393019B5A1C01921B78002BD6
:10DF8000F6D1039B184604B0704786B003900B4649
:10DF900001928DF80B3000230593019B002B0DDCC3
:10DFA000059B11E0039B002B05D0039B5A1C039299
:10DFB0009DF80B201A70059B01330593019B5A1E97
:10DFC0000192002BEED1059B184606B07047000069
:10DFD000F0B58FB08DED030A02900191029B1B6892
:10DFE0000993099B032B02DC6FF00203E9E0DDEDEE
:10DFF000037AF5EE407AF1EE10FA04D1029B724AF0
:10E000001A600323DDE0029B0893039B0493049BA7
:10E01000DB15DBB27F3B0793049BC3F3160343F48A
:10E020000003069300230C9300230D93079B1E2BE4
:10E0300002DD6FF00103C4E0079B13F1170F02DA52
:10E040004FF0FF33BDE0079B162B06DD079B173B08
:10E05000069A02FA03F30D931AE0079B002B0FDBDD
:10E06000079BC3F11703069A42FA03F30D93079B2C
:10E070000133069A02FA03F323F07F430C9307E07F
:10E08000069B23F07F42079BDB4342FA03F30C938A
:10E09000049B002B04DA029B5A1C02922D221A7058
:10E0A0000D9B002B05D1029B5A1C029230221A7044
:10E0B00023E00D9B002B09DD0D9BDA171E4617464A
:10E0C000029A30463946FFF7A5FE12E0029B5A1C21
:10E0D00002922D221A700D9B5B42DA171C461546E0
:10E0E000029A20462946FFF795FE02E0029B013383
:10E0F0000293029B1B78002BF8D1029B5A1C0292C0
:10E100002E221A700C9B002B05D1029B5A1C0292E6
:10E1100030221A704FE0029A089BD31A099AD31A38
:10E12000013B0593059A019B9342A8BF13460593B3
:10E1300000230A9315E00C9A13469B0013445B00DE
:10E140000C930C9B1B16DAB2029B591C02913032C5
:10E15000D2B21A700C9B23F07F430C930A9B0133BD
:10E160000A930A9A059B9A42E5DB0C9A13469B0098
:10E1700013445B001B16042B1DDD029B013B0B931C
:10E1800015E00B9B1B782E2B0ED00B9B1B78392B8D
:10E1900003D10B9B30221A7006E00B9B1B780133D6
:10E1A000DAB20B9B1A7006E00B9B013B0B930B9AA8
:10E1B000089B9A42E5D2029B00221A70029A089BA1
:10E1C000D31A18460FB0F0BD302E30002DE9F04FB5
:10E1D00097B00390029101920023119300230B93B7
:10E1E000E9E206230E93029B1B78252B1FD0039B8D
:10E1F000002B15D0029B1B780A2B0BD1A84B1B7848
:10E20000002B07D0039B5A1C03920D221A70119BFE
:10E2100001331193039B5A1C0392029A12781A70CD
:10E22000029B01330293119B01331193C3E2029BC2
:10E230000133029300238DF835309DF835308DF889
:10E24000363020238DF83730029B1B78302B05D1D8
:10E2500030238DF83730029B0133029305AB19460A
:10E260000298FFF793FD03461093059B029A13440F
:10E270000293029B1B78732B05D0109B002B02DAB4
:10E28000109B5B421093029B1B782E2B0DD1029B9F
:10E290000133029305AB19460298FFF777FD034659
:10E2A0000E93059B029A13440293029B1B786C2BDE
:10E2B0000CD1029B01330293029B1B786C2B05D17E
:10E2C000029B0133029301238DF83530029B1B78AA
:10E2D000463B322B00F25C8201A252F823F000BFD1
:10E2E00017E7000091E7000091E7000091E70000C8
:10E2F00091E7000091E7000091E7000091E700003E
:10E3000091E7000091E7000091E7000091E700002D
:10E3100091E7000091E7000091E7000091E700001D
:10E3200091E7000091E70000ABE4000091E70000F6
:10E3300091E7000091E7000091E7000091E70000FD
:10E3400091E7000091E7000091E7000091E70000ED
:10E3500091E70000ADE30000DBE5000091E700007D
:10E3600017E7000091E7000091E70000DBE50000FF
:10E3700091E7000091E7000091E7000091E70000BD
:10E3800091E7000091E7000091E7000091E70000AD
:10E3900091E70000D3E3000091E7000045E50000AD
:10E3A00091E7000091E70000A5E40000019B1A1D21
:10E3B00001921B688DF81F30039B002B05D0039B37
:10E3C0005A1C03929DF81F201A70119B0133119360
:10E3D000EEE1019B1A1D01921B6815931598FFF73A
:10E3E000BEFD0B90109B002B2EDD109B0B9A9A42CA
:10E3F0002AD2109A0B9BD31A10939DF83730109A9B
:10E4000019460398FFF7C1FD1090039B002B01D024
:10E41000109B00E00023039A13440393109B119A6E
:10E4200013441193002310930EE0039B002B05D09F
:10E43000039B5A1C0392159A12781A70159B01338C
:10E440001593119B01331193159B1B78002BECD175
:10E45000109B002B00F0A981109B5B421093109B36
:10E460000B9A9A4280F0A181109A0B9BD31A1093B9
:10E470009DF83730109A19460398FFF786FD1090E3
:10E48000039B002B01D0109B00E00023039A134450
:10E490000393109B119A134411930023109384E16A
:10E4A000A821001001238DF836309DF83530002B5F
:10E4B00009D0019B073323F0070303F108020192FF
:10E4C000D3E9004506E0019B1A1D01921B6800225A
:10E4D0001C461546CDE91245109B002B1ED0DDE9E8
:10E4E0001201FFF72FFC0246109B9B1A10939DF818
:10E4F0003730109A19460398FFF747FD1090039B99
:10E50000002B01D0109B00E00023039A13440393D7
:10E51000109B119A13441193002310939DF83630E9
:10E52000039ADDE91201FFF7BAFC0F90039B002B61
:10E5300003D00F9B039A134403930F9B119A134428
:10E54000119335E19DF83530002B09D0019B07333D
:10E5500023F0070303F108020192D3E9006706E004
:10E56000019B1A1D01921B6800221E461746CDE929
:10E570001267109B002B1ED0DDE91201FFF7A8FBEC
:10E580000246109B9B1A10939DF83730109A19463B
:10E590000398FFF7FAFC1090039B002B01D0109B0F
:10E5A00000E00023039A13440393109B119A134431
:10E5B000119300231093039ADDE91201FFF72AFC5F
:10E5C0000F90039B002B03D00F9B039A13440393DC
:10E5D0000F9B119A13441193EAE09DF83530002BFC
:10E5E00009D0019B073323F0070303F108020192CE
:10E5F000D3E9008906E0019B1A1D01921B68DA1716
:10E6000098469146CDE90889DDE90823002B0CDA0C
:10E61000DDE908230021D2F1000A61EB030BCDE90B
:10E6200012AB01238DF8343006E0DDE90823CDE993
:10E63000122300238DF83430109B002B4AD0DDE9E3
:10E64000122310461946FFF763FB0246109B9B1AE4
:10E6500010939DF83430002B11D0109B013B109388
:10E660009DF83730302B0AD1039B002B04D0039B3D
:10E670005A1C03922D221A70119B013311939DF89D
:10E680003730109A19460398FFF77FFC1090039BD0
:10E69000002B01D0109B00E00023039A1344039346
:10E6A000109B119A13441193002310939DF834305A
:10E6B000002B1ED09DF83730202B1AD1039B002B46
:10E6C00004D0039B5A1C03922D221A70119B013314
:10E6D00011930EE09DF83430002B0AD0039B002BE1
:10E6E00004D0039B5A1C03922D221A70119B0133F4
:10E6F0001193039ADDE91201FFF78CFB0F90039B46
:10E70000002B03D00F9B039A134403930F9B119A82
:10E71000134411934CE0039B002B48D0019B07331B
:10E7200023F0070303F108020192D3E90023104606
:10E730001946FEF779FC03460693039B14221A60E0
:10E740000E9903989DED060AFFF742FC0F900F9B70
:10E75000002B14DA0F9BB3F1FF3F02D11E4B0C9339
:10E7600008E00F9B13F1020F02D11C4B0C9301E048
:10E770001B4B0C93039B0C9A1A6003230F930F9B64
:10E78000119A134411930F9B039A134403930EE0C1
:10E79000039B002B05D0039B5A1C0392029A12780C
:10E7A0001A70119B0133119302E000BF00E000BF1B
:10E7B000029B01330293029B1B78002B7FF411AD67
:10E7C000039B002B02D0039B00221A70119B18465A
:10E7D00017B0BDE8F08F00BF302E3000232E23008D
:10E7E0003F2E3F000FB400B583B00C4B1B68002BCD
:10E7F00001D100230CE005AB0093009A049908486E
:10E80000FFF7E4FC0190054B1B6805489847019B06
:10E81000184603B05DF804EB04B07047A420001064
:10E82000A820001008B50248FFF7DCFF00BF08BDB4
:10E8300074A2030000B589B0019003AB184629F01B
:10E8400091F8039B0793079B074AA2FB03239A09AE
:10E85000019B02FB03F30693069829F0E9FA00BF37
:10E8600009B05DF804FB00BFF119760500B589B069
:10E87000019003AB184629F075F8039B0793079B9B
:10E88000074AA2FB03239A0C019B02FB03F30693A6
:10E89000069829F0CDFA00BF09B05DF804FB00BF6F
:10E8A000819F5E16114812490160D1F800D01148CD
:10E8B000016841F470010160BFF34F8FBFF36F8FA8
:10E8C0000D480E490E4A50F8043B41F8043B914272
:10E8D000F9DB0C480C494FF000028842B8BF40F801
:10E8E000042BFADBFEF754FE00BE00BF08ED00E08B
:10E8F00000C0000088ED00E09C0B04000010001038
:10E90000981C0010981C0010887D0010FEE7FEE7A0
:10E91000FEE7000000B585B00390029101920093DC
:10E920001C49012029F0C0FD0346002B1AD1194BC8
:10E930001B6800220021184629F04AFE0346002BDE
:10E9400010D1144B1B681449184629F023FF0346C5
:10E95000002B07D10F4B1B68184629F0CDFD03464D
:10E96000002B03D00D48FFF73DFFFEE70C4B196865
:10E97000082029F0A3FA0B4B1968092029F09EFA08
:10E98000094B19680A2029F099FA00BF05B05DF813
:10E9900004FB00BFAC2100100010001088A203008F
:10E9A000B4ED0300B8ED0300BCED030000B591B079
:10E9B00001900B46ADF8023000F0A0FC00238DF86A
:10E9C0003F3003AB2822002118461FF05DF80123D9
:10E9D000069302238DF81C300EAB08930DAB099300
:10E9E000BDF802300E930C4B1B6803AA1146184663
:10E9F0002AF0F0F90346002B02D00848FFF7F2FE98
:10EA00000D9B8DF83F3000F07DFC9DF83F309BB2B0
:10EA1000184611B05DF804FBAC210010A8A2030059
:10EA200082B003468DF807309DF90730002B0CDBD0
:10EA30009DF8073003F01F0205499DF907305B0977
:10EA4000012000FA02F241F8232000BF02B0704713
:10EA500000E100E082B003468DF807309DF90730F1
:10EA6000002B13DB9DF8073003F01F0209499DF9C5
:10EA700007305B09012000FA02F2203341F823201D
:10EA8000BFF34F8F00BFBFF36F8F00BF00BF02B057
:10EA9000704700BF00E100E082B0034600918DF8AE
:10EAA00007309DF90730002B0ADB009BDAB20C49D6
:10EAB0009DF907305201D2B20B4483F800230BE0DA
:10EAC000009BDAB207499DF8073003F00F03043BBF
:10EAD0005201D2B20B441A7600BF02B0704700BF99
:10EAE00000E100E000ED00E0F0B589B00390019393
:10EAF0000B468DF80B3013468DF80A300023079330
:10EB00009DF81C30032262F302038DF81C309DF83F
:10EB10001D3043F010038DF81D309DF80B30012B94
:10EB200007D19DF81C30032262F347138DF81C3087
:10EB300009E09DF80B30022B05D09DF81C306FF3D7
:10EB400047138DF81C309DF80A30032B2DD801A2F5
:10EB500052F823F065EB00007FEB00008DEB000026
:10EB60009DEB00009DF81D306FF346138DF81D30AE
:10EB70009DF81D306FF3C7138DF81D3022E09DF80E
:10EB80001D306FF346138DF81D301BE09DF81D30CE
:10EB9000012262F346138DF81D3013E09DF81D30FD
:10EBA00043F060038DF81D300CE09DF81D306FF3CD
:10EBB00046138DF81D309DF81D306FF3C7138DF887
:10EBC0001D3000BF019B002B02D0019800F064F8BB
:10EBD000039B0799184629F071F99DF80A30002B1C
:10EBE0003FD04FF000024FF00003CDE904234FF077
:10EBF00001024FF000030399A1F1200CC1F12000A4
:10EC000003FA01F702FA0CFC47EA0C0722FA00F0BB
:10EC1000074302FA01F6CDE904673046394629F088
:10EC20001DFB4FF001024FF000030399A1F12006F4
:10EC3000C1F1200003FA01F502FA06F6354322FA83
:10EC400000F0054302FA01F4CDE9044520462946C7
:10EC500029F0E4FA01210D20FFF71EFF0D20FFF738
:10EC6000DFFE00BF09B0F0BD00B583B00190009198
:10EC7000019B084A1168184629F020F9019B009A67
:10EC8000D2B21146184629F085FA00BF03B05DF8EC
:10EC900004FB00BFA807040082B00190019B002B79
:10ECA00009D0019B9B68002B05D0019B1B68034981
:10ECB000019A41F8232000BF02B07047B021001034
:10ECC00008B501210D20FFF7E7FE0D20FFF7A8FE94
:10ECD00000BF08BD08B50D20FFF7BCFE00BF08BD92
:10ECE00000B583B001900091019B009AD2B2114609
:10ECF000184629F04FFA00BF03B05DF804FB00B5D9
:10ED000085B00190019B03AA0021184629F00CFA56
:10ED1000039B184605B05DF804FB00B585B0019073
:10ED200002AB1946002029F0B3FADDE902231046B0
:10ED3000194629F093FA00BF05B05DF804FB000006
:10ED400030B583B06B461946002029F0A1FADDE901
:10ED500000231046194629F081FADDE90023104608
:10ED6000194629F0B5FADDE9002302F40044002534
:10ED700054EA050310D00A4BDB6B002B0CD0084B78
:10ED8000DB6B9B68002B07D0054BDB6B9B68044A51
:10ED9000D26B52681046984700BF03B030BD00BF29
:10EDA000B021001082B003468DF807309DF907307E
:10EDB000002B0CDB9DF8073003F01F0205499DF97D
:10EDC00007305B09012000FA02F241F8232000BF5E
:10EDD00002B0704700E100E082B003468DF80730D2
:10EDE0009DF90730002B13DB9DF8073003F01F025D
:10EDF00009499DF907305B09012000FA02F220332E
:10EE000041F82320BFF34F8F00BFBFF36F8F00BFC8
:10EE100000BF02B0704700BF00E100E008B5064B3C
:10EE20005B68002B05D0044B5B68034A12681046F0
:10EE3000984700BF08BD00BF7822001008B54FF406
:10EE400011724FF0FF31002028F08EFE012028F0D3
:10EE500077FF29F09BFA00BF08BD000000B585B020
:10EE600001900091009B002B05D0144B009A92E872
:10EE7000030083E80300019B40F6B83202FB03F372
:10EE80000F4AA2FB0323DB08013B03930D4901203A
:10EE900028F09EFD0E20FFF785FF0023039A4FF018
:10EEA000FF31002028F0F2FE4FF0FF31002028F063
:10EEB000A9FE00BF05B05DF804FB00BF782200107A
:10EEC000CDCCCCCC1DEE000008B54FF0FF310020BA
:10EED00028F0C6FE00BF08BD08B50E20FFF762FF90
:10EEE00000BF08BD08B50E20FFF776FF00BF08BDC4
:10EEF00000B583B0012028F049FF0190019B03F089
:10EF00000103002B08D0012028F02EFF019B03F005
:10EF10000103184628F044FD019B03F00403002B75
:10EF200008D0042028F020FF019B03F004031846BA
:10EF300028F036FD00BF03B05DF804FB82B0034645
:10EF40008DF807309DF90730002B0CDB9DF807305A
:10EF500003F01F0205499DF907305B09012000FA03
:10EF600002F241F8232000BF02B0704700E100E048
:10EF700082B0034600918DF807309DF90730002BD1
:10EF80000ADB009BDAB20C499DF907305201D2B27C
:10EF90000B4483F800230BE0009BDAB207499DF88D
:10EFA000073003F00F03043B5201D2B20B441A7630
:10EFB00000BF02B0704700BF00E100E000ED00E0DC
:10EFC0000A4B1B680133094A1360084B1B6842F265
:10EFD0001072934207D1064B1B680133044A136039
:10EFE000024B00221A6000BF704700BF842200104D
:10EFF0008022001000B583B04FF411724FF0FF3142
:10F00000012028F0B1FD012028F09AFE00210E20F9
:10F01000FFF7AEFF0E20FFF791FF144B01939DED1C
:10F02000017ADFED136AC7EE267A9FED127A67EE5A
:10F03000877AFCEEE77A17EE903A0093009B5A1E0F
:10F0400000234FF0FF31012028F020FE0A49042060
:10F0500028F0BEFC042028F073FE4FF0FF310120A1
:10F0600028F0D0FD00BF03B05DF804FBCDCCCC3D53
:10F0700000007A44001B374AC1EF0000014B1B68B7
:10F080001846704780220010054B1B6842F2107230
:10F0900003FB02F2034B1B6813441846704700BF82
:10F0A0008022001084220010074B1B684FF47A72F4
:10F0B00003FB02F2054B1B680549A1FB0313DB08A8
:10F0C00013441846704700BF8022001084220010AD
:10F0D000CDCCCCCC00B5C3B042ABA3F582731860E5
:10F0E00042ABA3F58473196042ABA3F5847242ABC3
:10F0F000A3F5827302A81268196820F0F1FA03469A
:10F10000002B03DD02AB1846FEF7FEF900BF43B04B
:10F110005DF804FB00B583B01EF008FD03460193C3
:10F12000019B184603B05DF804FB00B583B0019065
:10F130000091019A009B9A420ED8FFF7EBFF02461E
:10F140000099019BCB1A0133B2FBF3F101FB03F3EE
:10F15000D21A019B13440DE0FFF7DCFF0246019930
:10F16000009BCB1A0133B2FBF3F101FB03F3D21A7C
:10F17000009B1344184603B05DF804FB00B585B04E
:10F1800001900B468DF80330019BDB0C03F001036B
:10F190000393019B5B0B03F03F031A460399084856
:10F1A00028F014FE0290029B002B02D00548FFF7C6
:10F1B00019FB029BDBB2184605B05DF804FB00BFEB
:10F1C00021433412C0A2030000B58DB00390029118
:10F1D0000192039B089300230B9300230A930023BF
:10F1E000079300230593019B03F00303002B05D035
:10F1F000019B23F0030304330A9301E0019B0A936C
:10F20000039A0A9B1344079333E0002305930023DA
:10F210008DF8273013E09DF827200B9B1344029AAA
:10F2200013441B781A469DF82730DB009A40059B53
:10F23000134405939DF8273001338DF827309DF84E
:10F240002730032BE7D9039B089305A90123089ACC
:10F250000C4828F0BFFD0690069B002B03D00A48FF
:10F26000FFF7C0FAFEE7039B043303930B9B0433C1
:10F270000B93039A079B9A42C7D3002318460DB0FD
:10F280005DF804FB21433412E0A2030086B0039032
:10F29000029101920023059300238DF8133010E0B2
:10F2A000039A059B13441B68DBB28DF81330029A56
:10F2B000059B13449DF81320D2B21A70059B0133AD
:10F2C0000593059A019B9A42EAD300BF00BF06B09E
:10F2D00070470000BFF34F8F00BF064BDB6803F49D
:10F2E000E0620449044B1343CB60BFF34F8F00BF70
:10F2F00000BFFDE700ED00E00400FA0572B600BFB4
:10F3000000BF704762B600BF00BF704708B501215B
:10F310000B20FFF7A9FC0023002200211020FFF79B
:10F32000E3FB0023012202210F20FFF7DDFB012177
:10F330001120FFF799FC01210220FFF795FC00BF87
:10F3400008BD08B572B600BFFFF7C4FF00B583B0B3
:10F350000190019B1846FFF789FA00BF03B05DF8E2
:10F3600004FB0000BFF34F8F00BF064BDB6803F4C4
:10F37000E0620449044B1343CB60BFF34F8F00BFDF
:10F3800000BFFDE700ED00E00400FA0500B583B022
:10F390000023019301AB1946002008F0C2F8019B3D
:10F3A00003F00803002B01D0012300E000231846DE
:10F3B00003B05DF804FB000000B585B00190FFF7D5
:10F3C000E5FF03468DF80F30019B29330B491846A2
:10F3D000FCF73AFF0346002B09D19DF80F30194680
:10F3E0000748FFF7FFF90748FFF7FCF902E0064876
:10F3F000FFF7F8F900BF05B05DF804FB20A3030098
:10F4000024A303002CA3030034A3030000B589B098
:10F41000039002910192214B1B88ADF81430002318
:10F420008DF8163000238DF81630002307932CE05A
:10F43000079B5B00039A13441B788DF81430079BDD
:10F440005B000133039A13441B788DF8153004A92F
:10F4500005AB102218461EF083FD069005AB023363
:10F46000049A934205D1069B002B02DB069BFF2BDF
:10F4700002DD4FF0FF330DE0029A079B1344069A1A
:10F48000D2B21A70079B01330793079A019B9A42E5
:10F49000CED30023184609B05DF804FB40A3030057
:10F4A00000B583B0019005490548FFF79BF9054871
:10F4B000FFF798F900BF03B05DF804FB44A3030015
:10F4C00050A303002CA3030000B583B001900248B1
:10F4D000FFF788F9FFF746FF58A3030000B583B094
:10F4E00001900548FFF77EF90448FFF77BF900BF5C
:10F4F00003B05DF804FB00BF68A303002CA3030066
:10F5000000B583B001900548FFF76CF90448FFF798
:10F5100069F900BF03B05DF804FB00BF74A30300EA
:10F5200084A3030000B587B00190019B29332849CB
:10F530001846FCF789FE0346002B17D100230593DC
:10F540000AE0244A059B13441B7819462248FFF71A
:10F5500049F9059B01330593059B072BF1DD1F48F6
:10F56000FFF740F91E48FFF73DF92DE0019B2933D5
:10F570001846FCF7E5FF0346102B22D10023039326
:10F5800000230493019B293303A908221846FFF79F
:10F590003DFF0346002B03D01248FFF723F913E089
:10F5A0000C4B1A4603AB93E8030082E803000C48B7
:10F5B000FFF718F900F0C4FF0649002008F02CF806
:10F5C00002E00848FFF70EF907B05DF804FB00BF42
:10F5D00020A30300601100108CA3030094A3030078
:10F5E0002CA3030098A3030000B587B00190019BF2
:10F5F000293328491846FCF727FE0346002B18D16B
:10F60000002305930BE0244A059B134408331B7821
:10F6100019462248FFF7E6F8059B01330593059B41
:10F62000072BF0DD1E48FFF7DDF81E48FFF7DAF87C
:10F630002DE0019B29331846FCF782FF0346102B6F
:10F6400022D10023039300230493019B293303A9B0
:10F6500008221846FFF7DAFE0346002B03D01248B3
:10F66000FFF7C0F813E00C4B083303AA92E803003D
:10F6700083E803000D48FFF7B5F800F061FF0C497F
:10F68000002007F08FFF02E00748FFF7ABF807B054
:10F690005DF804FB20A30300601100108CA303009D
:10F6A00094A303002CA3030098A30300ACA30300BE
:10F6B0006811001010B588B00190019B29332949C9
:10F6C0001846FCF7C1FD0346002B18D10023079311
:10F6D0000BE0254A079B134410331B781946234837
:10F6E000FFF780F8079B01330793079B0F2BF0DD93
:10F6F0001F48FFF777F81F48FFF774F830E0019BC9
:10F7000029331846FCF71CFF0346202B25D1002384
:10F71000039304AB00221A605A609A60019B29335C
:10F7200003A910221846FFF771FE0346002B03D0F1
:10F730001148FFF757F813E00B4B03F1100403AB2C
:10F740000FCB84E80F000B48FFF74CF800F0F8FEF1
:10F750000A49002007F09AFF02E00748FFF742F845
:10F7600008B010BD20A30300601100108CA303009B
:10F7700094A303002CA3030098A3030070110010AE
:10F7800000B5ADF50B7D8AABA3F5077318608AABA6
:10F79000A3F507731B6803F1290045AB86AA41490D
:10F7A0001EF0E2F90346022B03D03F48FFF71AF898
:10F7B00073E045AB1846FCF7C3FE8790879B03F0C8
:10F7C0000103002B06D03848FFF70CF83748FFF745
:10F7D00009F862E000238993002388931DE045AA7D
:10F7E000889B134404AA324918461EF0BDF903460B
:10F7F000012B03D02F48FEF7F5FF4EE08AABA3F5AF
:10F8000006731968899B5A1C8992C9B28AAAA2F503
:10F810000572D154889B02338893889A879B9A42B9
:10F82000DDD302F0B7F80346002B21D1FFF7AEFD80
:10F830000346002B18D0204B00221A60869BD9B2B9
:10F840001E4B93F84630002B14BF01230023DAB27D
:10F85000899BDBB205A800930346002008F01BF942
:10F860001748FEF7BFFF18E01648FEF7BBFF14E08D
:10F87000869BD9B2114B93F84630002B14BF01235D
:10F880000023DAB2899BDBB205A80093034600206F
:10F8900008F001F90A48FEF7A5FF0DF50B7D5DF8AC
:10F8A00004FB00BFB4A3030098A30300BCA30300A0
:10F8B000D0A30300D8A30300902200106011001011
:10F8C0002CA30300F4A3030082B0019000BF02B098
:10F8D0007047000000B583B0019006F0F7FE0346C4
:10F8E000012B03D10648FEF77DFF05E00548FEF732
:10F8F00079FF002008F058F803B05DF804FB00BF62
:10F9000018A403002CA3030000B583B00190019B51
:10F91000293323491846FCF797FC0346002B0AD1EC
:10F92000204B93F8443019461F48FEF75BFF1F48F1
:10F93000FEF758FF31E0019B29331846FCF700FE23
:10F940000346012B26D1019B293318461EF098F857
:10F950000346DAB2134B83F84420124B93F8443039
:10F96000022B03D91248FEF73DFF16E00D4B93F82A
:10F9700044301946002007F0C3FE0346002B03D095
:10F980000C48FEF72FFF08E000F0DAFD0748FEF70D
:10F9900029FF02E00648FEF725FF03B05DF804FBEF
:10F9A00020A303006011001024A303002CA3030074
:10F9B00098A3030034A3030000B587B00590059B0E
:10F9C000293326491846FCF73FFC0346002B27D174
:10F9D000234B1B6819462348FEF704FF224B1B6884
:10F9E00019462248FEF7FEFE214B1B6819462148A6
:10F9F000FEF7F8FE204B1B6819462048FEF7F2FE82
:10FA00001F4B1B6819461F48FEF7ECFE1E4B1B6878
:10FA100019461E48FEF7E6FE1D48FEF7E3FE19E014
:10FA2000059B03F12900184B0393154B0293124BCE
:10FA300001930F4B00930C4B094A16491EF094F8A2
:10FA40000346062B03D01448FEF7CCFE02E0104814
:10FA5000FEF7C8FE07B05DF804FB00BF20A303005B
:10FA6000141000104CA403001810001060A4030030
:10FA70001C10001074A40300201000107CA40300CC
:10FA80008C22001084A40300241000108CA4030016
:10FA90002CA30300A0A4030098A30300F0B5ADF5C8
:10FAA0000F7D8EABA3F5077318608EABA3F50773BC
:10FAB0001B6829334B491846FCF7C6FB0346002B4D
:10FAC00002D14948FEF78EFE8EABA3F507731B6883
:10FAD000293349AA454918461EF046F80346012B2A
:10FAE00003D04148FEF77EFE79E049AB1846FCF7AB
:10FAF00027FD8A908A9B03F00103002B03D03C482A
:10FB0000FEF770FE6BE000238D9300238C931DE0C5
:10FB100049AA8C9B134408AA364918461EF024F8BB
:10FB20000346012B03D03448FEF75CFE57E08EAB52
:10FB3000A3F5067319688D9B5A1C8D92C9B28EAAC3
:10FB4000A2F50572D1548C9B02338C938C9A8A9BBC
:10FB50009A42DDD32948FEF745FE00238B930CE043
:10FB60008EABA3F505728B9B13441B781946244872
:10FB7000FEF738FE8B9B01338B938B9A8D9B9A42B9
:10FB8000EED32048FEF72EFE06F0A0FD0346002B24
:10FB900001D108F049FB8D9BDDB21B4B1E681B4B4E
:10FBA0001B685FB21A4B1B68DBB20693194A1268D6
:10FBB000D2B219490968C9B21848006809AC0023D3
:10FBC0000493039002910192069B00933B463246B8
:10FBD0002946204608F0D2FB1148FEF703FE0DF53A
:10FBE0000F7DF0BD20A3030098A30300B4A403007D
:10FBF000BCA30300D0A30300D8A30300B8A4030050
:10FC0000C8A4030094A303001410001018100010DF
:10FC10001C100010201000108C2200102410001066
:10FC20002CA3030000B583B0019006F04FFD0346FE
:10FC3000002B01D108F0F8FA094B1868094B1B6832
:10FC4000D9B2094B1B68DAB2084B1B68DBB208F06B
:10FC50001DFE0748FEF7C6FD00BF03B05DF804FBBC
:10FC6000141000101C100010201000108C22001026
:10FC70002CA3030000B583B0019008F05BFB00BF2C
:10FC800003B05DF804FB000000B587B00190019B54
:10FC9000293327491846FCF7D7FA0346002B0AD127
:10FCA000244B93F8453019462348FEF79BFD234823
:10FCB000FEF798FD39E0019B29331846FCF740FC1C
:10FCC0000346012B2ED1019B293318461DF0D8FE87
:10FCD0000346DAB2174B83F84520164B93F84530AC
:10FCE000052B03D91648FEF77DFD1EE00023029385
:10FCF00003AB00221A605A609A600E4B93F84530AD
:10FD0000194602AB102218461DF0BEFE02AB1A4681
:10FD10000321002007F08AFD00F012FC0748FEF7DF
:10FD200061FD02E00648FEF75DFD07B05DF804FBEB
:10FD300020A303006011001024A303002CA30300E0
:10FD400098A3030000B583B00190019B29331549A6
:10FD50001846FCF779FA0346002B09D1124B9B6C2D
:10FD600019461248FEF73EFD1148FEF73BFD16E02E
:10FD7000019B293318461DF083FE03461A460A4BA1
:10FD80009A6400F0DDFB0A48FEF72CFD064B9B6CE5
:10FD9000002B04D0044B9B6C184607F0E3FB03B028
:10FDA0005DF804FB20A3030060110010D0A4030041
:10FDB0002CA3030000B583B00190019B29330B49AC
:10FDC0001846FCF741FA0346002B09D1084B1B6883
:10FDD00019460848FEF706FD0748FEF703FD02E056
:10FDE0000648FEF7FFFC03B05DF804FB20A3030008
:10FDF0009022001024A303002CA3030034A30300CB
:10FE000000B585B0019000238DF80F30019B293398
:10FE10001D491846FCF718FA0346002B0AD11B4B64
:10FE200093F8463019461A48FEF7DCFC1948FEF7ED
:10FE3000D9FC25E0019B29331846FCF781FB0346DA
:10FE4000012B1AD1019B293318461DF019FE0346D8
:10FE50008DF80F309DF80F30012B03D90E48FEF7B7
:10FE6000C1FC0DE0094A9DF80F3082F8463000F0E1
:10FE700067FB0848FEF7B6FC02E00748FEF7B2FC55
:10FE800005B05DF804FB00BF20A303006011001063
:10FE900024A303002CA3030098A3030000B585B09E
:10FEA00001901948FEF79EFC019B19461748FEF782
:10FEB00099FC019B293319461548FEF793FC019BD9
:10FEC000D3F82C3119461348FEF78CFC002303931A
:10FED0000CE0019B039A4C3253F822301A460399E6
:10FEE0000D48FEF77FFC039B01330393019BD3F87E
:10FEF0002C31039A9A42ECDB0848FEF773FC00BFF2
:10FF000005B05DF804FB00BFD8A40300E8A403001B
:10FF1000F8A403000CA503001CA503002CA30300F8
:10FF200000B585B0019000238DF80F30019B293377
:10FF300020491846FCF788F90346002B0AD11E4BCE
:10FF400093F84D3019461D48FEF74CFC1C48FEF74F
:10FF500049FC2BE0019B29331846FCF7F1FA0346D4
:10FF6000012B1FD8019B293318461DF089FD03463C
:10FF70008DF80F309DF80F30012B03D91148FEF793
:10FF800031FC13E09DF80F30184601F00DFD0A4AD0
:10FF90009DF80F3082F84D3000F0D2FA0848FEF795
:10FFA00021FC02E00748FEF71DFC00BF05B05DF82C
:10FFB00004FB00BF20A303006011001024A3030072
:10FFC0002CA3030098A3030000B585B00190002383
:10FFD0000393019B29331D491846FCF735F9034665
:10FFE000002B09D11A4B1B6A19461A48FEF7FAFB77
:10FFF0001948FEF7F7FB26E0019B29331846FCF76A
:020000021000EC
:100000009FFA0346082B1AD1019B293303AA1349EF
:1000100018461DF0A9FD0346012B03D01048FEF73A
:10002000E1FB10E0039B0A4A1362039B184601F0B0
:10003000D7FC00F085FA0848FEF7D4FB03E0084837
:10004000FEF7D0FB00BF05B05DF804FB20A3030062
:100050006011001034A503002CA303003CA503008D
:1000600098A3030000B585B0019000238DF80F30F0
:10007000019B293327491846FCF7E6F80346002B75
:100080000AD1254B93F84C3019462448FEF7AAFBB9
:100090002348FEF7A7FB3AE0019B29331846FCF7FB
:1000A0004FFA0346022B2ED8019B293318461DF028
:1000B000E7FC03468DF80F309DF80F30102B03D965
:1000C0001848FEF78FFB22E0032001F013FC9DF897
:1000D0000F301946002007F039FD03468DF80E3029
:1000E0009DF80E30002B03D00E48FEF77BFB0EE090
:1000F000094A9DF80F3082F84C3000F021FA084888
:10010000FEF770FB02E00748FEF76CFB00BF05B08E
:100110005DF804FB20A303006011001024A303007A
:100120002CA3030098A3030010B588B00190019B95
:10013000293329491846FCF787F80346002B18D1C4
:10014000002307930BE0254A079B134424331B78B5
:1001500019462348FEF746FB079B01330793079B8D
:100160000F2BF0DD1F48FEF73DFB1F48FEF73AFB63
:1001700030E0019B29331846FCF7E2F90346202BB7
:1001800025D10023039304AB00221A605A609A60C1
:10019000019B293303A910221846FFF737F90346BC
:1001A000002B03D01148FEF71DFB13E00B4B03F1AE
:1001B000240403AB0FCB84E80F000B48FEF712FBBF
:1001C00000F0BEF90A49062019F0EAFE02E00748ED
:1001D000FEF708FB08B010BD20A30300601100105B
:1001E0008CA3030094A303002CA3030098A3030093
:1001F0008411001010B588B00190019B2933294962
:100200001846FCF721F80346002B18D1002307936A
:100210000BE0254A079B134434331B7819462348C7
:10022000FEF7E0FA079B01330793079B0F2BF0DDE6
:100230001F48FEF7D7FA1F48FEF7D4FA30E0019BBB
:1002400029331846FCF77CF90346202B25D10023DF
:10025000039304AB00221A605A609A60019B293311
:1002600003A910221846FFF7D1F80346002B03D04C
:100270001148FEF7B7FA13E00B4B03F1340403AB5C
:100280000FCB84E80F000B48FEF7ACFA00F058F9EA
:100290000A49072019F084FE02E00748FEF7A2FA97
:1002A00008B010BD20A30300601100108CA3030050
:1002B00094A303002CA3030098A30300941100103F
:1002C00000B5DDB05CABA3F5B67318605CABA3F50D
:1002D000B87319605CABA3F5B8733D2118681DF0C5
:1002E000DDFC5B905B9B002B2CD05CABA3F5B87363
:1002F0005B9A1B68D31A5A935B9B01331846FCF731
:100300001FF959905CABA3F5B87303A85A9A196802
:10031000FBF7F6FE5B9B591C03AB2933599A184631
:10032000FBF7EEFE5CABA3F5B2725A9B13440022BE
:100330001A705CABA3F5B272599B134429330022A7
:100340001A700DE05CABA3F5B87303AA19681046E8
:100350001DF00AFD5CABA3F5B273002283F82920DF
:100360005CABA3F5B6731A685CABA3F5B273104629
:1003700019464FF4AC731A46FBF7C2FE5CABA3F50B
:10038000B67318685DB05DF804FB000000B5DBB023
:100390005AABA3F5B27318605AABA3F5B0725AAB5F
:1003A000A3F5B27319681046FFF78AFF1A23589312
:1003B000002359931FE01549599A13465B001344D3
:1003C0009B000B441A6802AB114618461DF040FC16
:1003D0000346002B0CD10D49599A13465B00134478
:1003E0009B000B4404331B6802AA1046984709E09F
:1003F000599B01335993599A589B9A42DBDB044825
:10040000FEF7F0F95BB05DF804FB00BF28100010A8
:1004100034A3030000B583B01448FEF7E3F91A23B0
:1004200000930023019317E01149019A13465B00E2
:1004300013449B000B4419680D48019A13465B0056
:1004400013449B00034408331B681A460948FEF70F
:10045000C9F9019B01330193019A009B9A42E3DBA6
:1004600000BF00BF03B05DF804FB00BFC0AA0300DB
:1004700028100010DCAA030000B583B003468DF8F5
:1004800007309DF80730082B0CD1274B1B68002B39
:1004900045DD254B1B68013B234A13602348FEF7CB
:1004A000A1F93CE0204B1B68B3F5957F06DB1E4BA2
:1004B00000221A601E48FEF795F931E09DF80730DA
:1004C0000A2B03D09DF807300D2B1CD1164B1B684F
:1004D000184A0021D154184916481DF0B9FB0346AB
:1004E000002B06D0154913481DF0B2FB0346002B24
:1004F00002D1FFF78FFF02E00E48FFF747FF0A4BDC
:1005000000221A600CE0084B1B680A499DF807207E
:10051000CA54054B1B680133034A136000E000BF57
:1005200003B05DF804FB00BF94220010E8AA0300AA
:10053000ECAA0300982200100CAB030010AB0300E0
:1005400000B583B001214FF40820FEF717FE5022BA
:1005500005494FF40820FEF737FE00238DF80730D9
:1005600000BF03B05DF804FB6011001008B5502215
:1005700011494FF40820FEF789FE0F4B93F84D30D8
:10058000FF2B16D10C4B00221A620B4B002283F872
:100590004420094B002283F84520074B012283F8B1
:1005A0004620054B012283F84C20034B002283F8A0
:1005B0004D2000BF08BD00BF6011001000B5C7B0DE
:1005C00000238DF813310DF1070202AB11461846D6
:1005D00006F07CFD46ABA3F588735B78142B00F224
:1005E0001F8101A252F823F03D0601004B060100D5
:1005F0006F0601009D060100B706010055070100C6
:1006000063070100710701007F0701002108010055
:100610008D0701002108010021080100B107010038
:10062000BF070100CD070100DB070100E90701005A
:10063000F707010005080100130801008548FEF7CF
:10064000D1F88548FEF7CEF8F7E08448FEF7CAF8FF
:100650008148FEF7C7F8824B9B6C002B04D0804B7F
:100660009B6C184606F07EFF00F0D8F9E5E07D4867
:10067000FEF7B8F87848FEF7B5F87B48FEF7B2F811
:100680007548FEF7AFF8764B9B6C002B00F0D480DA
:10069000734B9B6C184606F065FFCDE07348FEF780
:1006A000A1F86D48FEF79EF87148FEF79BF86A487E
:1006B000FEF798F8C1E06F48FEF794F86648FEF739
:1006C00091F846ABA3F58873B3F8FA30DAB26A4B07
:1006D0001A70694B1B781A4602AB083319466748F3
:1006E000FBF70EFD46ABA3F58873DB79194664482A
:1006F000FEF778F8604B1B781A4662496248FEF7AD
:1007000071F80023459315E0459B03F00F03002B80
:1007100005D1459B002B02D05C48FEF763F8574A91
:10072000459B13441B7819465948FEF75BF8459BD7
:1007300001334593504B1B781A46459B9342E3D3B4
:100740005248FEF74FF84C4B1B78002B02D1514B0F
:1007500001221A605048FEF745F83F48FEF742F87C
:100760006BE04E48FEF73EF83B48FEF73BF864E08E
:100770004B48FEF737F83848FEF734F85DE0494853
:10078000FEF730F83448FEF72DF856E04648FEF7FD
:1007900029F83148FEF726F84448FEF723F82E489A
:1007A000FEF720F89DF81331184607F061F944E090
:1007B0003F48FEF717F82848FEF714F83DE03D489B
:1007C000FEF710F82448FEF70DF836E03A48FEF739
:1007D00009F82148FEF706F82FE03848FEF702F83E
:1007E0001D48FDF7FFFF28E03548FDF7FBFF1A48DD
:1007F000FDF7F8FF21E03348FDF7F4FF1648FDF759
:10080000F1FF1AE03048FDF7EDFF1348FDF7EAFF6E
:1008100013E02E48FDF7E6FF0F48FDF7E3FF0CE07D
:1008200046ABA3F588735B7819462948FDF7DAFFD4
:100830000948FDF7D7FF00E000BF46ABA3F2111354
:100840001B78002B7FF4BFAE00BF00BF47B05DF840
:1008500004FB00BF18AB03003CAB030044AB030038
:100860006011001068AB030090AB0300B4AB030051
:10087000DCAB030000AC0300C3230010C423001052
:1008800028AC030044AC030058AC03006CAC03007C
:1008900070AC03009022001078AC0300A4AC0300FD
:1008A000CCAC0300F0AC03001CAD030044AD03006E
:1008B00068AD03008CAD0300C0AD0300ECAD0300D8
:1008C00018AE030048AE030078AE0300B0AE0300DC
:1008D000E0AE030000B583B04348FDF783FF434813
:1008E000FDF780FF0023002200210020FEF712F810
:1008F000FEF780FBFEF7A2FAFEF700FDFEF706FD0D
:100900003B493C4806F05EFBFEF7FCFC062100205C
:1009100006F050FF0021002006F0DEFDFFF726FE66
:100920003549002006F078FE3449002006F03AFEF2
:100930003349002006F0AAFE2F4B93F84D3018469D
:1009400001F032F82C4B93F84D30012B26D12D4875
:10095000FDF748FF2548FDF745FF274B1B6A184662
:1009600001F03EF82849062019F01AFB0190019B7E
:10097000002B05D02548FDF735FF1C48FDF732FF59
:100980002349072019F00CFB0190019B002B05D097
:100990002048FDF727FF1548FDF724FF164B93F875
:1009A00044301946002006F0ABFE03468DF80330B4
:1009B0009DF80330002B08D09DF8033019461648E7
:1009C000FDF710FF0948FDF70DFF032000F092FF2F
:1009D000094B93F84C301946002007F0B7F800BFD8
:1009E00003B05DF804FB00BF00AF03003CAB0300A5
:1009F000BD050100C0ED030060110010681100107A
:100A0000701100102CAF03008411001044AF0300DC
:100A10009411001070AF030098AF030000B585B0CB
:100A2000234B1B78002B3ED000F0B6F80023029336
:100A30000023039301238DF8083071238DF80930CA
:100A40001C4BB3F900301B121BB25BB28DF80A309D
:100A5000184BB3F900305BB28DF80B30154BB3F97E
:100A600002301B121BB25BB28DF80C30114BB3F984
:100A700002305BB28DF80D300E4BB3F904301B120F
:100A80001BB25BB28DF80E300A4BB3F904305BB287
:100A90008DF80F3002AB08220092012201210020C4
:100AA00006F0F9FF00E000BF05B05DF804FB00BFF1
:100AB000CA240010C424001008B51B49022027F0E6
:100AC000F3FC0346002B1AD1174B1B6800220021B0
:100AD000184627F07DFD0346002B10D1124B1B68F2
:100AE0001249184627F056FE0346002B07D10E4B3D
:100AF0001B68184627F000FD0346002B03D00C4866
:100B0000FDF770FEFEE70B4B1968192027F0D6F9A8
:100B1000094B19681B2027F0D1F90848FDF762FE40
:100B200000F00EF800BF08BDCC240010B01100107A
:100B3000CCAF0300BCEE0300C0EE0300ECAF03003B
:100B400000B58DB001AB2822002118461CF09CFF97
:100B50000F230B9301AB012219460B9800F03CF8D0
:100B6000019B332B10D1019B19460948FDF73AFE32
:100B7000084B01221A7000F097F800F0B6F800F068
:100B8000D9F800F004F900E000BF0DB05DF804FBF7
:100B900000B00300CA24001000B58DB001AB2822BC
:100BA000002118461CF070FF0F230B9327230B9393
:100BB00001AB012219460B9800F00EF8019BDBB245
:100BC00003F00803DBB2002B01D000F001F900BFF5
:100BD0000DB05DF804FB000000B591B003900291E8
:100BE000019201230693039B079301238DF8243080
:100BF000019B0893029B0B9300238DF83030002358
:100C00008DF8313000230D9300230E9318230593A4
:100C1000094B1B6805AA1146184627F00FFF03462B
:100C20000F930F9B002B02D00448FDF7DBFD00BFA4
:100C300011B05DF804FB00BFCC24001014B0030019
:100C400000B591B003900291019201230693039B9A
:100C5000079300238DF82430019B0893029B0A938D
:100C600000238DF8303000238DF8313000230D93B0
:100C700000230E9318230593094B1B6805AA114600
:100C8000184627F0DBFE03460F930F9B002B02D084
:100C90000448FDF7A7FD00BF11B05DF804FB00BFDD
:100CA000CC24001014B0030000B585B000230393DA
:100CB0002323029301AB012219460298FFF78CFF10
:100CC000019B43F08003019301AB01221946029876
:100CD000FFF7B6FF01AB012219460298FFF77CFF30
:100CE000039B184605B05DF804FB00B585B00023F2
:100CF00003932023029301AB012219460298FFF7C8
:100D00006BFF019B03F00F030193019B43F0100362
:100D1000019301AB012219460298FFF791FF01AB45
:100D2000012219460298FFF757FF039B184605B0AA
:100D30005DF804FB00B585B00023039320230293E4
:100D400001AB012219460298FFF746FF019B23F0F1
:100D50000803019301AB012219460298FFF770FFC7
:100D60002323029301AB012219460298FFF734FFB7
:100D7000019B43F00803019301AB0122194602983D
:100D8000FFF75EFF039B184605B05DF804FB00B556
:100D900085B0002303932323029301AB012219465C
:100DA0000298FFF719FF019B23F03003019301AB79
:100DB000012219460298FFF743FF01AB01221946B1
:100DC0000298FFF709FF039B184605B05DF804FB86
:100DD00000B585B02823039301AB0122194603987F
:100DE000FFF7FAFE2923039301AB043301221946CE
:100DF0000398FFF7F1FE029B9BB21B029AB2019B84
:100E00009BB213439BB21AB2384B1A80374BB3F9DB
:100E10000030002B00DA0F331B111AB2334B1A804B
:100E20002A23039301AB012219460398FFF7D4FE4E
:100E30002B23039301AB0433012219460398FFF7D8
:100E4000CBFE029B9BB21B029AB2019B9BB2134347
:100E50009BB21AB2254B5A80244BB3F90230002BB7
:100E600000DA0F331B111AB2204B5A802C23039344
:100E700001AB012219460398FFF7AEFE2D23039321
:100E800001AB0433012219460398FFF7A5FE029B2C
:100E90009BB21B029AB2019B9BB213439BB21AB244
:100EA000124B9A80114BB3F90430002B00DA0F3348
:100EB0001B111AB20D4B9A800D48FDF793FC0B4B9A
:100EC000B3F900301946094BB3F902301A46074B03
:100ED000B3F904300748FDF785FC0548FDF782FCAF
:100EE00000BF184605B05DF804FB00BFC424001025
:100EF00038B0030080B0030082B001900091009BE5
:100F000001221A7000BF02B0704700B587B003908D
:100F1000029101920DF115031946002006F0BBFA6B
:100F20000346002B02D000238DF81530029B93F965
:100F300000301AB29DF915301BB21344ADF81630CB
:100F4000BDF916300D2B06DD019B0D225A70019B59
:100F50000D229A7015E0BDF9163013F1120F06DA62
:100F6000019BEE225A70019BEE229A7009E0BDF8B7
:100F700016305AB2019B5A70BDF816305AB2019B16
:100F80009A70019BE0221A7000BF07B05DF804FB65
:100F900000B587B00390029100931346ADF8063078
:100FA000039800F0B5F800210B20FDF799FE00230F
:100FB000ADF816300EE0BDF81630029A13441B78D7
:100FC0009BB219460120FDF7F1FCBDF81630013344
:100FD000ADF81630BDF81620BDF806309A42EAD3B7
:100FE0000023ADF814300EE0BDF81430009A13441D
:100FF0001B789BB219460120FDF7D8FCBDF81430D0
:101000000133ADF81430BDF81420BDF820309A42F9
:10101000EAD301210B20FDF763FE029B1B78842B92
:1010200002D000F091F802E0034B00221A70002376
:10103000184607B05DF804FBC411001000B587B076
:101040000390029100931346ADF80630039800F028
:101050005FF800210B20FDF743FE0023ADF81630AA
:101060000EE0BDF81630029A13441B789BB2194665
:101070000120FDF79BFCBDF816300133ADF81630AA
:10108000BDF81620BDF806309A42EAD30023ADF829
:10109000143010E000210120FDF788FC03461946BA
:1010A000BDF81430009A1344CAB21A70BDF8143057
:1010B0000133ADF81430BDF81420BDF820309A4249
:1010C000E8D301210B20FDF70BFE0023184607B0E3
:1010D0005DF804FB00B583B0019000211120FDF7FD
:1010E000FFFD41F28830FEF731F901211120FDF7B3
:1010F000F7FD41F28830FEF729F9044B01221A70FE
:101100000023184603B05DF804FB00BFC4110010B3
:1011100000B583B0019000F017F80023184603B023
:101120005DF804FB08B503E001212C20FDF79CFDD0
:101130001020FDF7E4FD0346012BF5D000212C2003
:10114000FDF792FD00BF08BD08B50B4B1B78002BC7
:1011500002D0FFF7E7FF0CE000210B20FDF7C0FDF8
:10116000FFF7E0FF01210B20FDF7BAFD024B012242
:101170001A7000BF08BD00BFC411001008B5FEF70B
:10118000E0F800BF08BD00BF704708B5FDF776FF67
:101190000346184608BD08B5FDF786FF0346184606
:1011A00008BD08B5FDF770FF0346184608BD08B531
:1011B000FDF76AFF0346184608BD00B587B00390E7
:1011C00002910192019B0493029B059304AB194683
:1011D0000398FDF743FE00BF07B05DF804FB08B5B8
:1011E000FDF772FE00BF08BD08B5FDF773FDFDF702
:1011F00079FE00BF08BD08B5FDF762FDFDF76CFE86
:1012000000BF08BD00B585B00346029101928DF87C
:101210000F309DF80F30032B26D801A252F823F08F
:10122000311201003F1201004D1201005B1201005A
:10123000019A02994FF40220FEF728F824E0019A5F
:1012400002994FF40020FEF721F81DE0019A02995F
:101250004FF40420FEF71AF816E0019A02994FF4B1
:101260000620FEF713F80FE009490A48FDF7BAFA1D
:101270000948FDF7B7FA0948FDF7B4FA0648FDF743
:10128000B1FAFEF75EF800BF00BF05B05DF804FBE1
:10129000C4EE0300B8B00300D4B00300DCB0030018
:1012A00000B585B00346029101928DF80F309DF88C
:1012B0000F30032B3AD801A252F823F0CD120100CF
:1012C000E5120100FD1201001513010001214FF488
:1012D0000220FDF753FF019A02994FF40220FDF717
:1012E00073FF33E001214FF40020FDF747FF019A1F
:1012F00002994FF40020FDF767FF27E001214FF42A
:101300000420FDF73BFF019A02994FF40420FDF7FA
:101310005BFF1BE001214FF40620FDF72FFF019A30
:1013200002994FF40620FDF74FFF0FE009490A48E4
:10133000FDF758FA0948FDF755FA0948FDF752FA42
:101340000648FDF74FFAFDF7FCFF00BF00BF05B0F0
:101350005DF804FBE4EE0300B8B00300D4B0030072
:10136000DCB0030030B482B00190094A019B1446FE
:101370001D4628686968AA68EB680FC4286969690E
:10138000AA69EB690FC400BF02B030BC704700BF50
:10139000887D001030B482B00190019B084A1C4641
:1013A00015460FCD20606160A260E3600FCD206123
:1013B0006161A261E36100BF02B030BC704700BF51
:1013C000887D001082B003468DF80730034A9DF8EF
:1013D0000730137000BF02B0704700BFA87D001037
:1013E000024B1B78DBB21846704700BFA87D001087
:1013F00000B583B001900091009A0199034800F074
:1014000067F84FF47A70FDF715FAFEE7F0B00300C5
:1014100008B5FDF77FFE0346184608BD00B583B04A
:101420000190009100990198FDF77FFE0346184650
:1014300003B05DF804FB000000B583B0019000919B
:10144000074B0F221A60064A019B9360044A009BD7
:1014500053600348FDF720FC00BF03B05DF804FBB8
:10146000D024001008B50F20FDF757FC00BF08BDC1
:1014700008B501210220FDF7F7FB00BF08BD00BF42
:101480007047002318467047FE231846704782B005
:101490009DF90730184602B07047000082B0002363
:1014A000ADF80630BDF80630044AA2FB03231B0941
:1014B0009BB2DBB2184602B0704700BFCDCCCCCC9B
:1014C000024B1B685BB21846704700BF88220010B1
:1014D0000FB400B583B005AB019301990498FDF7F3
:1014E000F9FD00BF03B05DF804EB04B070470000E5
:1014F00000B58BB0079000238DF8273006238DF8B8
:101500002730254B0493254B03939DF827300293F6
:1015100000230193079B0093214B224A22491E4836
:101520000FF0EAFB4FF40072204921480AF076FCE4
:10153000204B0493204B03931E4B02931F4B0193AC
:101540000A230093079B002213491A4813F0AEFFA9
:101550001B4B04931B4B0393194B02931A4B0193A0
:1015600007230093079B00220B49154815F0B0F99B
:10157000164B0293164B019306230093079B064AD2
:101580000F49124816F0D0FF124808F078FB00BF50
:101590000BB05DF804FB00BFDC240010D91501007E
:1015A000C82B0010882B0010302A0010903100103A
:1015B000302F0010AC2D00103D160100F159020033
:1015C000D02F0010DD160100BD7302004C2F00105B
:1015D0007D1701007831001000B585B00390039BA2
:1015E00003F50470039B93F80F12039B03F59A62B3
:1015F00000230AF085F80346002B18D0039B03F55F
:101600000471039B93F80F329AB2039B03F59A631C
:101610001420009007480AF060FC0346002B03D01A
:101620000548FFF755FF02E002480AF027FC05B025
:101630005DF804FB302F001010B1030000B585B039
:101640000390039B03F13900039B93F83810039B2D
:1016500003F12402039B93F86D31002B14BF012387
:101660000023DBB20AF04CF80346002B29D0039B81
:1016700003F13901039B93F838309AB2039B24336A
:101680001420009010480AF028FC0346002B15D0C7
:101690000E48FFF767FE0120FFF794FE0B490C4848
:1016A000FFF716FF0B48FFF713FF0B48FFF710FF7C
:1016B0000848FFF70DFFFFF761FD02E002480AF05E
:1016C000DDFB05B05DF804FB302F001004EF0300D4
:1016D00020B1030040B1030048B1030000B585B05C
:1016E0000390039B03F14100039B93F84010039B7D
:1016F00003F12C02039B93F88131002B14BF0123CB
:101700000023DBB209F0FCFF0346002B29D0039B2A
:1017100003F14101039B93F840309AB2039B2C33B1
:101720001420009010480AF0D8FB0346002B15D077
:101730000E48FFF717FE0120FFF744FE0B490C4847
:10174000FFF7C6FE0B48FFF7C3FE0B48FFF7C0FECE
:101750000848FFF7BDFEFFF711FD02E002480AF05E
:101760008DFB05B05DF804FB302F00102CEF03005B
:1017700020B1030040B1030048B1030000B585B0BB
:101780000390039B03F11000039B93F82910039B24
:1017900003F17002002309F0B3FF0346002B29D0A8
:1017A000039B03F11001039B93F829309AB2039B2A
:1017B00070331420009011480AF08FFB0346002B71
:1017C00015D00F48FFF7CEFD0120FFF7FBFD0C49B8
:1017D0000C48FFF77DFE0C48FFF77AFE0B48FFF739
:1017E00077FE0948FFF774FEFFF7C8FC02E00348E4
:1017F0000AF044FB05B05DF804FB00BF302F001079
:1018000054EF030020B1030040B1030048B10300CE
:1018100008B5034810F05DFA0346184608BD00BF3E
:10182000DC24001000B583B003468DF807309DF826
:1018300007301946034810F054FA0346184603B01F
:101840005DF804FBDC24001000B587B004921A4652
:1018500003468DF817300B468DF8163013468DF879
:1018600015309DF816209DF81710099B02939DF8DE
:10187000203001939DF815300093049B03480FF02E
:10188000CFFF0346184607B05DF804FBDC240010C8
:1018900000B583B003468DF807309DF80730194630
:1018A00003480FF0B8FE0346184603B05DF804FB8A
:1018B000DC24001000B583B00190019903480FF0BB
:1018C00001FE0346184603B05DF804FBDC2400105B
:1018D00008B503480FF082FE0346184608BD00BF56
:1018E000DC24001008B502480FF080FE00BF08BDE0
:1018F000DC24001000B583B003468DF807309DF856
:1019000007301946034810F059F80346184603B04B
:101910005DF804FBDC24001008B5034810F098F8CB
:101920000346184608BD00BFDC24001000B583B094
:1019300001900199034810F093F800BF03B05DF8DF
:1019400004FB00BFDC24001008B503480FF0D8FAF0
:101950000346184608BD00BFDC24001008B5024845
:1019600010F09BF800BF08BDDC24001008B5034848
:1019700010F021F90346184608BD00BFDC24001012
:1019800008B5034810F01FF90346184608BD00BF0C
:10199000DC24001008B5034810F0E0F803461846B0
:1019A00008BD00BFDC24001000B583B003468DF8ED
:1019B00007309DF807301946034810F0D7F800BFEC
:1019C00003B05DF804FB00BFDC24001008B5034839
:1019D00010F0ACF80346184608BD00BFDC24001028
:1019E00082B00190034A019BD36600BF184602B043
:1019F000704700BFDC24001000B585B001900023C3
:101A00008DF80F30019805F019F90346002B02D02C
:101A1000FF238DF80F309DF90F30184605B05DF8A3
:101A200004FB00B585B0019000238DF80F300198BC
:101A300005F0F2F80346002B02D0FF238DF80F309B
:101A40009DF90F30184605B05DF804FB00B583B072
:101A500001900199012018F0A3FA0346002B02D04F
:101A60004FF0FF330AE00199002018F099FA03467D
:101A7000002B02D04FF0FF3300E00023184603B0E4
:101A80005DF804FB00B585B0019000238DF80F30A0
:101A9000019805F0FBF80346002B02D0FF238DF8D8
:101AA0000F309DF90F30184605B05DF804FB00B506
:101AB00085B0019000238DF80F30019805F0D2F821
:101AC0000346002B02D0FF238DF80F309DF90F3015
:101AD000184605B05DF804FB08B5034812F05EF93E
