:10C0000000100010A5E800000DE9000085D7000031
:10C010000FE900000FE900000FE900000000000038
:10C0200000000000000000000000000011E9000016
:10C0300011E900000000000011E9000011E9000012
:10C0400011E9000011E9000011E9000011E9000008
:10C0500011E9000011E9000011E9000011E90000F8
:10C0600011E9000011E9000011E9000011E90000E8
:10C0700011E9000041ED0000F1EE0000CDD4000018
:10C0800011E9000011E9000011E9000011E90000C8
:10C0900011E9000011E9000011E9000011E90000B8
:10C0A00011E9000011E9000011E9000011E90000A8
:10C0B00011E9000011E9000011E9000011E9000098
:10C0C0000000000000000000000000000000000070
:10C0D0000000000000000000000000000000000060
:10C0E0000000000000000000000000000000000050
:10C0F0000000000000000000000000000000000040
:10C10000844641EA000313F003036DD1403A41D362
:10C1100051F8043B40F8043B51F8043B40F8043B21
:10C1200051F8043B40F8043B51F8043B40F8043B11
:10C1300051F8043B40F8043B51F8043B40F8043B01
:10C1400051F8043B40F8043B51F8043B40F8043BF1
:10C1500051F8043B40F8043B51F8043B40F8043BE1
:10C1600051F8043B40F8043B51F8043B40F8043BD1
:10C1700051F8043B40F8043B51F8043B40F8043BC1
:10C1800051F8043B40F8043B51F8043B40F8043BB1
:10C19000403ABDD2303211D351F8043B40F8043B51
:10C1A00051F8043B40F8043B51F8043B40F8043B91
:10C1B00051F8043B40F8043B103AEDD20C3205D361
:10C1C00051F8043B40F8043B043AF9D2043208D059
:10C1D000D2071CBF11F8013B00F8013B01D30B88CB
:10C1E00003806046704700BF082A13D38B078DD0A9
:10C1F00010F003038AD0C3F10403D21ADB071CBF7B
:10C2000011F8013B00F8013B80D331F8023B20F8E4
:10C21000023B7BE7043AD9D3013A11F8013B00F81D
:10C22000013BF9D20B7803704B7843708B788370A5
:10C2300060467047000000000000000000000000A1
:10C24000A2EB0300704700BF02780B78012A28BFD9
:10C250009A42F5D16DE9044540EA0104CDE902674F
:10C260006FF0000C4FEA447212B380EA010414F03C
:10C27000070F6AD100F0070420F0070004F003055F
:10C2800021F007014FEAC505F0E8042314F0040F7C
:10C29000F1E804670CFA05F462EA040266EA0406AF
:10C2A0000AD063EA0403624667EA0407664603E0CD
:10C2B000F0E80423F1E8046782FA4CF582EA060408
:10C2C000A4FA8CF46CBB83FA4CF583EA0705A5FA53
:10C2D0008CF595B950E9022351E9026782FA4CF5D1
:10C2E00082EA0604A4FA8CF483FA4CF583EA070583
:10C2F000A5FA8CF52543DBD09CB92DBAB5FA85F4A7
:10C3000024F0070427FA04F1DDE9026723FA04F3B5
:10C3100003F0FF0001F0FF01FDE80445A0EB010080
:10C32000704724BAB4FA84F424F0070426FA04F11E
:10C33000DDE9026722FA04F202F0FF0001F0FF01DA
:10C34000FDE80445A0EB0100704714F0030F3CD159
:10C3500010F0030428D150F8082B51F8083B82FA5A
:10C360004CF582EA0305A5FA8CF55DB950F8042C6A
:10C3700051F8043C82FA4CF582EA0305A5FA8CF5E3
:10C38000002DE8D02DBAB5FA85F424F0070423FA7D
:10C3900004F122FA04F202F0FF0001F0FF01FDE8CF
:10C3A0000445A0EB010070474FEAC40420F00300ED
:10C3B00050F8082B21F0030151F8083B0CFA04F463
:10C3C00062EA040263EA0403C9E710F003041AD026
:10C3D000A1EB040120F00300E40750F8042B06D081
:10C3E0000FD28B785FFAA2F4E41A06D12BB1CB7886
:10C3F0005FFAB2F4E41A00D11BB920465DF8104B85
:10C40000704701F1040150F8042BCC0721F003011F
:10C4100051F8043B48D824D222F07F4482FA4CF5EC
:10C4200094EA1325A5FA8CF50AD165B951F8043BB5
:10C4300084EA0204B4EB036F0ED150F8042BEBE74F
:10C440004FEA132355E035F07F454DD10878FDE8DC
:10C450000445C0F1000070474FEA126203F0FF0389
:10C4600047E002EA1C4482FA4CF594EA1345A5FA27
:10C470008CF50AD165B951F8043B84EA0204B4EBA7
:10C48000034F0CD150F8042BEBE74FEA134330E095
:10C4900015EA1C4528D10B884FEA124229E04FEAE1
:10C4A000124203EA1C4324E002F0FF0482FA4CF536
:10C4B00094EA1365A5FA8CF50AD165B951F8043BE5
:10C4C00084EA0204B4EB032F09D150F8042BEBE704
:10C4D0004FEA13630DE015F0FF0F05D10B684FEA2B
:10C4E000122223F07F4304E04FF00000FDE80445F2
:10C4F000704712BA1BBA82FA4CF482EA0304A4FA17
:10C500008CF5B5FA85F402FA04F203FA04F34FEA63
:10C510001260FDE80445A0EB1360704700000000C6
:10C52000000000000000000000000000000000000B
:10C5300000000000000000000000000000000000FB
:10C5400090F800F06DE9024520F007016FF0000C53
:10C5500010F0070491F820F040F049804FF00004FB
:10C560006FF00700D1E9002391F840F000F10800D6
:10C5700082FA4CF2A4FA8CF283FA4CF3A2FA8CF30E
:10C580004BBBD1E9022382FA4CF200F10800A4FA75
:10C590008CF283FA4CF3A2FA8CF3E3B9D1E90423C9
:10C5A00082FA4CF200F10800A4FA8CF283FA4CF300
:10C5B000A2FA8CF37BB9D1E9062301F1200182FABA
:10C5C0004CF200F10800A4FA8CF283FA4CF3A2FAC0
:10C5D0008CF3002BC6D0002A04BF04301A4612BACE
:10C5E000B2FA82F2FDE8024500EBD2007047D1E9D1
:10C5F000002304F00305C4F100004FEAC50514F060
:10C60000040F91F840F00CFA05F562EA05021CBF30
:10C6100063EA050362464FF00004A9E7000000004A
:10C6200001F0FF01102A2BDB10F0070F08D010F8E3
:10C63000013B013A8B422DD010F0070F42B3F6D1E7
:10C64000F0B441EA012141EA014122F007047FF000
:10C6500000070023F0E80256083C85EA010586EA57
:10C66000010685FA47F5A3FA87F586FA47F6A5FA93
:10C6700087F68EB9EED1F0BC01F0FF0102F007029F
:10C6800032B110F8013B013A83EA010313B1F8D14A
:10C690000020704701387047002D06BF354603382B
:10C6A000073815F0010F07D1013015F4807F02BF64
:10C6B000013015F4C03F0130F0BC0138704700BFB5
:10C6C00081F0004102E000BF83F0004330B54FEA43
:10C6D00041044FEA430594EA050F08BF90EA020FB0
:10C6E0001FBF54EA000C55EA020C7FEA645C7FEA43
:10C6F000655C00F0E2804FEA5454D4EB5555B8BF66
:10C700006D420CDD2C4480EA020281EA030382EAD6
:10C71000000083EA010180EA020281EA0303362D68
:10C7200088BF30BD11F0004F4FEA01314FF4801C3B
:10C730004CEA113102D0404261EB410113F0004F4D
:10C740004FEA03334CEA133302D0524263EB430304
:10C7500094EA050F00F0A780A4F10104D5F1200EA2
:10C760000DDB02FA0EFC22FA05F2801841F10001FD
:10C7700003FA0EF2801843FA05F359410EE0A5F1D1
:10C7800020050EF1200E012A03FA0EFC28BF4CF002
:10C79000020C43FA05F3C01851EBE37101F00045B8
:10C7A00007D54FF0000EDCF1000C7EEB00006EEBC5
:10C7B0000101B1F5801F1BD3B1F5001F0CD349084F
:10C7C0005FEA30004FEA3C0C04F101044FEA4452A6
:10C7D00012F5800F80F09A80BCF1004F08BF5FEA2D
:10C7E000500C50F1000041EB045141EA050130BD0D
:10C7F0005FEA4C0C404141EB0101013C28BFB1F51F
:10C80000801FE9D291F0000F04BF01460020B1FA69
:10C8100081F308BF2033A3F10B03B3F120020CDA3C
:10C820000C3208DD02F1140CC2F10C0201FA0CF01A
:10C8300021FA02F10CE002F11402D8BFC2F1200C7F
:10C8400001FA02F120FA0CFCDCBF41EA0C01904035
:10C85000E41AA2BF01EB0451294330BD6FEA04047E
:10C860001F3C1CDA0C340EDC04F11404C4F1200269
:10C8700020FA04F001FA02F340EA030021FA04F37B
:10C8800045EA030130BDC4F10C04C4F1200220FAD2
:10C8900002F001FA04F340EA0300294630BD21FA10
:10C8A00004F0294630BD94F0000F83F4801306BFD6
:10C8B00081F480110134013D4EE77FEA645C18BFCA
:10C8C0007FEA655C29D094EA050F08BF90EA020F61
:10C8D00005D054EA000C04BF1946104630BD91EA59
:10C8E000030F1EBF0021002030BD5FEA545C05D15C
:10C8F0004000494128BF41F0004130BD14F580049B
:10C900003CBF01F5801130BD01F0004545F0FE410E
:10C9100041F470014FF0000030BD7FEA645C1ABF43
:10C92000194610467FEA655C1CBF0B46024650EA7A
:10C93000013406BF52EA033591EA030F41F40021A6
:10C9400030BD00BF90F0000F04BF0021704730B52C
:10C950004FF4806404F132044FF000054FF0000101
:10C9600050E700BF90F0000F04BF0021704730B5C2
:10C970004FF4806404F1320410F0004548BF404297
:10C980004FF000013EE700BF42004FEAE2014FEAEC
:10C9900031014FEA02701FBF12F07F4393F07F4FC7
:10C9A00081F06051704732F07F4208BF704793F0CA
:10C9B0007F4F04BF41F40021704730B54FF46074DD
:10C9C00001F0004521F000411CE700BF50EA0102E0
:10C9D00008BF704730B54FF000050AE050EA010289
:10C9E00008BF704730B511F0004502D5404261EBF9
:10C9F00041014FF4806404F132045FEA915C3FF43A
:10CA0000D8AE4FF003025FEADC0C18BF03325FEAD6
:10CA1000DC0C18BF033202EBDC02C2F1200300FA87
:10CA200003FC20FA02F001FA03FE40EA0E0021FAAC
:10CA300002F11444BDE600BF70B54FF0FF0C4CF49A
:10CA4000E06C1CEA11541DBF1CEA135594EA0C0F4C
:10CA500095EA0C0F00F0DEF82C4481EA030621EA87
:10CA60004C5123EA4C5350EA013518BF52EA0335C2
:10CA700041F4801143F4801338D0A0FB02CE4FF074
:10CA80000005E1FB02E506F00042E0FB03E54FF0A4
:10CA90000006E1FB03569CF0000F18BF4EF0010E9C
:10CAA000A4F1FF04B6F5007F64F5407404D25FEA98
:10CAB0004E0E6D4146EB060642EAC62141EA55514B
:10CAC0004FEAC52040EA5E504FEACE2EB4F1FD0C8D
:10CAD00088BFBCF5E06F1ED8BEF1004F08BF5FEA0B
:10CAE000500E50F1000041EB045170BD06F00046BD
:10CAF00046EA010140EA020081EA0301B4EB5C046A
:10CB0000C2BFD4EB0C0541EA045170BD41F4801161
:10CB10004FF0000E013C00F3AB8014F1360FDEBF86
:10CB2000002001F0004170BDC4F10004203C35DA62
:10CB30000C341BDC04F11404C4F1200500FA05F3E5
:10CB400020FA04F001FA05F240EA020001F0004286
:10CB500021F0004110EBD37021FA04F642EB0601FC
:10CB60005EEA430E08BF20EAD37070BDC4F10C0426
:10CB7000C4F1200500FA04F320FA05F001FA04F2EA
:10CB800040EA020001F0004110EBD37041F10001D6
:10CB90005EEA430E08BF20EAD37070BDC4F12005E1
:10CBA00000FA05F24EEA020E20FA04F301FA05F249
:10CBB00043EA020321FA04F001F0004121FA04F2F1
:10CBC00020EA020000EBD3705EEA430E08BF20EAC1
:10CBD000D37070BD94F0000F0FD101F000464000FB
:10CBE00041EB010111F4801F08BF013CF7D041EA7D
:10CBF000060195F0000F18BF704703F00046520081
:10CC000043EB030313F4801F08BF013DF7D043EA51
:10CC10000603704794EA0C0F0CEA135518BF95EA07
:10CC20000C0F0CD050EA410618BF52EA4306D1D18E
:10CC300081EA030101F000414FF0000070BD50EAAD
:10CC4000410606BF1046194652EA430619D094EA37
:10CC50000C0F02D150EA013613D195EA0C0F05D121
:10CC600052EA03361CBF104619460AD181EA030175
:10CC700001F0004141F0FE4141F470014FF000002D
:10CC800070BD41F0FE4141F4780170BD70B54FF0C8
:10CC9000FF0C4CF4E06C1CEA11541DBF1CEA135548
:10CCA00094EA0C0F95EA0C0F00F0A7F8A4EB05042A
:10CCB00081EA030E52EA03354FEA013100F0888021
:10CCC0004FEA03334FF0805545EA131343EA1263EA
:10CCD0004FEA022245EA111545EA10654FEA00269F
:10CCE0000EF000419D4208BF964244F1FD0404F558
:10CCF000407402D25B084FEA3202B61A65EB0305B4
:10CD00005B084FEA32024FF480104FF4002CB6EB70
:10CD1000020E75EB030E22BFB61A754640EA0C00F0
:10CD20005B084FEA3202B6EB020E75EB030E22BF30
:10CD3000B61A754640EA5C005B084FEA3202B6EB71
:10CD4000020E75EB030E22BFB61A754640EA9C0030
:10CD50005B084FEA3202B6EB020E75EB030E22BF00
:10CD6000B61A754640EADC0055EA060E18D04FEABE
:10CD7000051545EA16754FEA06164FEAC30343EA5E
:10CD800052734FEAC2025FEA1C1CC0D111F4801F2B
:10CD90000BD141EA00014FF000004FF0004CB6E724
:10CDA00011F4801F04BF01430020B4F1FD0C88BFC3
:10CDB000BCF5E06F3FF6AFAEB5EB030C04BFB6EBCE
:10CDC000020C5FEA500C50F1000041EB045170BDC1
:10CDD0000EF0004E4EEA113114EB5C04C2BFD4EBEE
:10CDE0000C0541EA045170BD41F480114FF0000E72
:10CDF000013C90E645EA060E8DE60CEA135594EAEE
:10CE00000C0F08BF95EA0C0F3FF43BAF94EA0C0FF0
:10CE10000AD150EA01347FF434AF95EA0C0F7FF465
:10CE200025AF104619462CE795EA0C0F06D152EAB9
:10CE300003353FF4FDAE1046194622E750EA41069D
:10CE400018BF52EA43067FF4C5AE50EA41047FF4AE
:10CE50000DAF52EA43057FF4EBAE12E74FF0FF3C13
:10CE600006E000BF4FF0010C02E000BF4FF0010CE4
:10CE70004DF804CD4FEA410C7FEA6C5C4FEA430C5D
:10CE800018BF7FEA6C5C1BD001B050EA410C0CBFAC
:10CE900052EA430C91EA030F02BF90EA020F00200E
:10CEA000704710F1000F91EA030F58BF994208BF75
:10CEB00090422CBFD8176FEAE37040F00100704732
:10CEC0004FEA410C7FEA6C5C02D150EA013C07D189
:10CED0004FEA430C7FEA6C5CD6D152EA033CD3D0D4
:10CEE0005DF8040B704700BF8446104662468C46CE
:10CEF0001946634600E000BF01B5FFF7B7FF002801
:10CF000048BF10F1000F01BD4DF808EDFFF7F4FF29
:10CF10000CBF012000205DF808FB00BF4DF808EDB4
:10CF2000FFF7EAFF34BF012000205DF808FB00BFD7
:10CF30004DF808EDFFF7E0FF94BF012000205DF8F9
:10CF400008FB00BF4DF808EDFFF7CEFF94BF0120AE
:10CF500000205DF808FB00BF4DF808EDFFF7C4FFA7
:10CF600034BF012000205DF808FB00BF4FEA410CF0
:10CF70007FEA6C5C02D150EA013C0AD14FEA430CD3
:10CF80007FEA6C5C02D152EA033C02D14FF0000010
:10CF900070474FF0010070474FEA410212F500124E
:10CFA00015D211D56FF47873B3EB625212D94FEAF0
:10CFB000C12343F0004343EA505311F0004F23FADA
:10CFC00002F018BF404270474FF00000704750EA2F
:10CFD000013005D111F0004008BF6FF000407047EC
:10CFE0004FF00000704700BF4A0011D212F5001246
:10CFF00011D20DD56FF47873B3EB62520ED44FEAB1
:10D00000C12343F0004343EA505323FA02F0704730
:10D010004FF00000704750EA013002D14FF0FF306E
:10D0200070474FF0000070474FEA4102B2F1E04311
:10D0300024BFB3F5001CDCF1FE5C0DD901F0004CFF
:10D040004FEAC0024CEA5070B2F1004F40EB83004F
:10D0500008BF20F00100704711F0804F21D113F17B
:10D060003872BCBF01F00040704741F480114FEAB4
:10D070005252C2F11802C2F1200C10FA0CF320FA3D
:10D0800002F018BF40F001004FEAC1234FEAD3235A
:10D0900003FA0CFC40EA0C0023FA02F34FEA4303C4
:10D0A000CCE77FEA625307D150EA01331EBF4FF04D
:10D0B000FE4040F44000704701F0004040F0FE4068
:10D0C00040F40000704700BF53B94AB9002908BFB7
:10D0D00000281CBF4FF0FF314FF0FF3000F0AAB91D
:10D0E000ADF1080C6DE904CE00F03CF8DDF804E089
:10D0F000DDE9022304B0704738B50022002304465E
:10D100000D46FFF70BFF28B920462946BDE83840F9
:10D1100000F00AB8204605F1004100F005F8404251
:10D1200061EB410138BD00BFD0B50C4B0022064673
:10D130000F46FFF781FCFFF757FF0446FFF702FC9D
:10D14000074B0022FFF778FC02460B463046394673
:10D15000FFF7BAFAFFF748FF2146D0BD0000F03DC7
:10D160000000F0412DE9F047089D04468E46002B53
:10D170004DD18A42944669D9B2FA82F252B101FA8B
:10D1800002F3C2F1200120FA01F10CFA02FC41EA9B
:10D19000030E94404FEA1C48210CBEFBF8F61FFA20
:10D1A0008CF708FB16E341EA034306FB07F19942BB
:10D1B0000AD91CEB030306F1FF3080F01F8199426E
:10D1C00040F21C81023E63445B1AA4B2B3FBF8F048
:10D1D00008FB103344EA034400FB07F7A7420AD9CF
:10D1E0001CEB040400F1FF3380F00A81A74240F2F7
:10D1F00007816444023840EA0640E41B00261DB162
:10D20000D4400023C5E900433146BDE8F0878B4296
:10D2100009D9002D00F0EF800026C5E90001304655
:10D220003146BDE8F087B3FA83F6002E4AD18B422F
:10D2300002D3824200F2F980841A61EB03030120D9
:10D240009E46002DE0D0C5E9004EDDE702B9FFDEC5
:10D25000B2FA82F2002A40F09280A1EB0C014FEA70
:10D260001C471FFA8CFE0126200CB1FBF7F307FBCD
:10D27000131140EA01410EFB03F0884208D91CEB70
:10D28000010103F1FF3802D2884200F2CB8043460D
:10D29000091AA4B2B1FBF7F007FB101144EA0144EC
:10D2A0000EFB00FEA64508D91CEB040400F1FF317B
:10D2B00002D2A64500F2BB800846A4EB0E0440EA69
:10D2C00003409CE7C6F12007B34022FA07FC4CEA72
:10D2D000030C20FA07F401FA06F31C43F9404FEA65
:10D2E0001C4900FA06F3B1FBF9F8200C1FFA8CFE7A
:10D2F00009FB181140EA014108FB0EF0884202FACE
:10D3000006F20BD91CEB010108F1FF3A80F088808E
:10D31000884240F28580A8F102086144091AA4B24B
:10D32000B1FBF9F009FB101144EA014100FB0EFECC
:10D330008E4508D91CEB010100F1FF346CD28E45FB
:10D340006AD90238614440EA0840A0FB0294A1EB8C
:10D350000E01A142C846A64656D353D05DB1B3EBE9
:10D36000080261EB0E0101FA07F722FA06F3F14019
:10D370001F43C5E9007100263146BDE8F087C2F1C0
:10D380002003D8400CFA02FC21FA03F39140014338
:10D390004FEA1C471FFA8CFEB3FBF7F007FB103671
:10D3A0000B0C43EA064300FB0EF69E4204FA02F41D
:10D3B00008D91CEB030300F1FF382FD29E422DD970
:10D3C000023863449B1B89B2B3FBF7F607FB1633A5
:10D3D00041EA034106FB0EF38B4208D91CEB010125
:10D3E00006F1FF3816D28B4214D9023E6144C91AA5
:10D3F00046EA004638E72E46284605E70646E3E6B5
:10D400001846F8E64B45A9D2B9EB020864EB0C0EBE
:10D410000138A3E74646EAE7204694E74046D1E7CD
:10D42000D0467BE7023B614432E7304609E764447B
:10D43000023842E7704700BF82B003468DF80730DC
:10D440009DF90730002B0CDB9DF8073003F01F021D
:10D4500005499DF907305B09012000FA02F241F805
:10D46000232000BF02B0704700E100E082B0034615
:10D4700000918DF807309DF90730002B0ADB009BE7
:10D48000DAB20C499DF907305201D2B20B4483F84D
:10D4900000230BE0009BDAB207499DF8073003F048
:10D4A0000F03043B5201D2B20B441A7600BF02B004
:10D4B000704700BF00E100E000ED00E082B00190A5
:10D4C000014A019B1360FEE7FC1C001000B583B00D
:10D4D0000C4B1B6801A9012218462DF025FB094BB6
:10D4E0001B68019A114618462DF00CFB054B1B6872
:10D4F00001996A4618462DF069FA00BF03B05DF83D
:10D5000004FB00BFF81C001000B58BB00190002395
:10D5100009930023089302E0099B01330993019AC0
:10D52000099B13441B78002BF6D100230393019B26
:10D530000493099B05934FF0FF33069308AB0793C1
:10D540000C4B1B6803AA114618462DF03FF8034602
:10D55000002B0AD0074B1B6803AA114618462DF072
:10D5600035F803461846FFF7A9FF00BF0BB05DF87A
:10D5700004FB00BFF81C001008B500212C2001F0AE
:10D5800073FB00212D2001F06FFB00BF08BD0000E0
:10D5900000B585B0002100202BF0B8F84C482BF0E6
:10D5A00087F82BF0A9F8002101202BF0AFF86420B8
:10D5B00001F040F9002108202BF0A8F8454900208F
:10D5C0002CF048FE0346002B07D0424900202CF0E7
:10D5D00041FE03461846FFF771FF3E4B1B680022D1
:10D5E000002118462CF05EFE0346002B0AD0394B72
:10D5F0001B680022002118462CF054FE03461846F2
:10D60000FFF75CFF00238DF80E30324B1B680DF1E5
:10D610000E02002118462DF0A3FA0346002B0BD072
:10D620002C4B1B680DF10E02002118462DF098FAC4
:10D6300003461846FFF742FF264B1B68264918464B
:10D640002CF0B4FE0346002B09D0224B1B68224964
:10D6500018462CF0ABFE03461846FFF72FFF0023B9
:10D66000029300230193029927202BF097FB019945
:10D6700028202BF093FB07210F20FFF7F7FE0F2048
:10D68000FFF7DAFE2BF0F2FD144800F023FA01F068
:10D69000C9F8FFF771FF03F03DFC03F0E1FD002343
:10D6A0008DF80F300AF078FC00F01AF803468DF878
:10D6B0000F309DF80F30002BF4D002212D202BF0DD
:10D6C000D9FC9DF80F30184603F0D4F9EAE700BF03
:10D6D0002C140400F81C001058FA030009D50000AF
:10D6E00000B58DB000230B9301230693234B0793C2
:10D6F00001230893002309930BAB0A93204B1B686B
:10D7000006AA114618462CF061FF0346002B0AD0EA
:10D710001B4B1B6806AA114618462CF057FF034600
:10D720001846FFF7CBFE0B9B012B21D10023019361
:10D73000124B029301230393002304930BAB059335
:10D740000F4B1B6801AA114618462CF03FFF0346F9
:10D75000002B0AD00A4B1B6801AA114618462CF070
:10D7600035FF03461846FFF7A9FE044B1B7800E07F
:10D77000002318460DB05DF804FB00BF0221001025
:10D78000F81C001001B51EF0040F0ABFEFF308806B
:10D79000EFF3098010F1080000F00AF801BD00BFA6
:10D7A0001846800040180068704700BF1846000007
:10D7B00000B597B0019003AB00221A605A609A60DE
:10D7C000DA601A615A6100231593159B1393A44BD9
:10D7D0001B681393139BDBB28DF85030139B1B0A0D
:10D7E000DBB28DF85130139B1B0C9BB2ADF852305D
:10D7F0009C4B1B6812939DF85130DBB203F002037F
:10D80000002B05D001990620FFF7CBFF034601E06E
:10D810004FF0FF33119301990020FFF7C2FF034639
:10D82000099301990120FFF7BCFF03460A93019970
:10D830000220FFF7B6FF03460B9301990320FFF781
:10D84000B0FF03460C9301990420FFF7AAFF03469B
:10D850000D9301990520FFF7A4FF03460E9301994C
:10D860000620FFF79EFF03460F9301990720FFF75D
:10D8700098FF0346109303AB194602202CF0D2FB0D
:10D88000794800F0AFFF099B1946784800F0AAFFDD
:10D890000A9B1946764800F0A5FF0B9B1946754870
:10D8A00000F0A0FF0C9B1946734800F09BFF0D9BF6
:10D8B0001946724800F096FF0E9B1946704800F01A
:10D8C00091FF0F9B19466F4800F08CFF109B194683
:10D8D0006D4800F087FF6D4800F084FF119B1946EA
:10D8E0006B4800F07FFF129B19466A4800F07AFFF0
:10D8F0009DF85030DBB21946674800F073FF9DF881
:10D900005130DBB21946654800F06CFFBDF852306B
:10D910009BB21946624800F065FF802315937AE0B8
:10D920009DF85130DBB21A46159B1340802B4ED028
:10D93000802B6CD8202B47D8002B68D0013B1F2BA5
:10D9400065D801A252F823F007DA0000FFD90000E1
:10D950000FDA0000F7D900000FDA00000FDA00003C
:10D960000FDA0000EFD900000FDA00000FDA000034
:10D970000FDA00000FDA00000FDA00000FDA000003
:10D980000FDA0000E7D900000FDA00000FDA00001C
:10D990000FDA00000FDA00000FDA00000FDA0000E3
:10D9A0000FDA00000FDA00000FDA00000FDA0000D3
:10D9B0000FDA00000FDA00000FDA00000FDA0000C3
:10D9C0000FDA0000DFD90000402B04D01FE03548FB
:10D9D00000F008FF1CE0344800F004FF18E0334872
:10D9E00000F000FF14E0324800F0FCFE10E0314887
:10D9F00000F0F8FE0CE0304800F0F4FE08E02F489C
:10DA000000F0F0FE04E02E4800F0ECFE00E000BF65
:10DA1000159B5B081593159B002B81D1294800F0BD
:10DA2000E1FE9DF80C30002B04D0049B19462648DB
:10DA300000F0D8FE9DF81430002B04D0069B194648
:10DA4000224800F0CFFE9DF81C30002B04D0089B2C
:10DA500019461F4800F0C6FE00231593FEE700BFDD
:10DA600028ED00E038ED00E04CAE030068AE0300A6
:10DA70007CAE030090AE0300A4AE0300B8AE03007A
:10DA8000CCAE0300E0AE0300F4AE030008AF030029
:10DA900024AF030044AF030070AF0300A0AF030046
:10DAA000CCAF0300FCAF03001CB003003CB003008C
:10DAB00058B0030074B0030094B00300B8B0030082
:10DAC000D8B00300F8B003000CB1030030B103007C
:10DAD00054B1030082B00190024A019B136000BF61
:10DAE00002B07047042100102DE9F00F98B0CDE985
:10DAF0000E01DDE90E234FF000004FF00001180089
:10DB0000002150EA010300F0B080DDE90E234FF060
:10DB100000044FF00005540844EAC3745D08DDE9D1
:10DB20000E234FF000004FF00001900840EA837090
:10DB3000990814EB000A45EB010BCDE912ABDDE9C6
:10DB400012234FF000004FF00001100940EA03706B
:10DB50001909DDE91223141802944B410393DDE9FE
:10DB60000234CDE91234DDE912234FF000004FF00A
:10DB70000001100A40EA0360190ADDE912231418B3
:10DB800004944B410593DDE90434CDE91234DDE919
:10DB900012234FF000004FF00001100C40EA034048
:10DBA000190CDDE91223141806944B410793DDE9A3
:10DBB0000634CDE91234DDE912234FF000004FF0B6
:10DBC000000118000021DDE91223141808944B41CC
:10DBD0000993DDE90834CDE91234DDE912014FF093
:10DBE00000024FF00003C20842EA4172CB08CDE9BF
:10DBF0001223DDE9124522462B464FF000004FF07C
:10DC00000001990041EA9271900002460B461619F4
:10DC100043EB0507B3190A9347EB07030B93DDE9C1
:10DC20000A6730463946DDE90E23141A0C9463EB7B
:10DC300001030D93DDE90C34CDE91034DDE9102347
:10DC400012F1060843F100094FF000024FF0000303
:10DC50004FEA181242EA09724FEA1913DDE912017C
:10DC6000141800944B4101932AE00E9B1793179BC5
:10DC70005A08179B9B0813441693169B1B09169A68
:10DC800013441693169B1B0A169A13441693169B5D
:10DC90001B0C169A13441693169BDB081693169AC0
:10DCA00013469B0013445B001A46179B9B1A15935F
:10DCB000159B06331A09169B134400220093019208
:10DCC000DDE900231046194618B0BDE8F00F704793
:10DCD00000B585B0CDE90001009A019B1343002BEC
:10DCE0000CBF01230023DBB2039308E0DDE9000150
:10DCF000FFF7FAFECDE90001039B01330393DDE951
:10DD000000231343F2D1039B184605B05DF804FBD2
:10DD100030B583B0CDE90001DDE90023002B07DA3F
:10DD2000DDE900230021544261EB0305CDE9004504
:10DD3000DDE9002310461946FFF7CAFF03461846DF
:10DD400003B030BD84B0CDE90001009A019B1343BC
:10DD5000002B0CBF01230023DBB203930EE0DDE9AF
:10DD600000014FF000024FF00003020942EA017285
:10DD70000B09CDE90023039B01330393DDE9002365
:10DD80001343ECD1039B184604B0704786B0019052
:10DD9000009100238DF81730002304930023039390
:10DDA000019B1B782D2B1CD101238DF81730019B73
:10DDB00001330193039B0133039312E0039B01336F
:10DDC0000393049A13469B0013445B000493019B46
:10DDD0001B781A46049B1344303B0493019B013388
:10DDE0000193019B1B782F2B03D9019B1B78392BA7
:10DDF000E4D9009B002B02D0009B039A1A609DF887
:10DE00001730002B02D0049B5B4200E0049B1846B5
:10DE100006B0704700B591B0CDE902010192002330
:10DE20000F9300230E93DDE90201FFF75DFECDE9BC
:10DE30000C0102990C9A13469B0013445B00CB1A09
:10DE40000B930B9BDAB20F9B591C0F913032D2B25D
:10DE500040336B4403F8302CDDE90C23CDE9022379
:10DE6000DDE902231343DED10F9B0E93019B002BB0
:10DE700010D007E0019B5A1C019204A90F9A0A4492
:10DE800012781A700F9B5A1E0F92002BF2D1019B31
:10DE900000221A700E9B184611B05DF804FB8CB07E
:10DEA000CDE9020101928DF8033000230B93DDE9E7
:10DEB0000223134335D10B9B5A1C0B9230336B4416
:10DEC000302203F8202C2CE09DF8083003F00F03DB
:10DED0008DF82B309DF82B30092B0BD99DF8033092
:10DEE000002B01D0272200E007229DF82B3013449D
:10DEF0008DF82B300B9B5A1C0B929DF82B20303247
:10DF0000D2B230336B4403F8202CDDE902014FF02C
:10DF100000024FF00003020942EA01720B09CDE949
:10DF20000223DDE902231343CED10B9B0993019B0E
:10DF3000002B10D007E0019B5A1C019204A90B9AF8
:10DF40000A4412781A700B9B5A1E0B92002BF2D1C6
:10DF5000019B00221A70099B18460CB0704784B0D0
:10DF6000019000230393019B002B04D1039B09E044
:10DF7000039B01330393019B5A1C01921B78002BD6
:10DF8000F6D1039B184604B0704786B003900B4649
:10DF900001928DF80B3000230593019B002B0DDCC3
:10DFA000059B11E0039B002B05D0039B5A1C039299
:10DFB0009DF80B201A70059B01330593019B5A1E97
:10DFC0000192002BEED1059B184606B07047000069
:10DFD000F0B58FB08DED030A02900191029B1B6892
:10DFE0000993099B032B02DC6FF00203E9E0DDEDEE
:10DFF000037AF5EE407AF1EE10FA04D1029B724AF0
:10E000001A600323DDE0029B0893039B0493049BA7
:10E01000DB15DBB27F3B0793049BC3F3160343F48A
:10E020000003069300230C9300230D93079B1E2BE4
:10E0300002DD6FF00103C4E0079B13F1170F02DA52
:10E040004FF0FF33BDE0079B162B06DD079B173B08
:10E05000069A02FA03F30D931AE0079B002B0FDBDD
:10E06000079BC3F11703069A42FA03F30D93079B2C
:10E070000133069A02FA03F323F07F430C9307E07F
:10E08000069B23F07F42079BDB4342FA03F30C938A
:10E09000049B002B04DA029B5A1C02922D221A7058
:10E0A0000D9B002B05D1029B5A1C029230221A7044
:10E0B00023E00D9B002B09DD0D9BDA171E4617464A
:10E0C000029A30463946FFF7A5FE12E0029B5A1C21
:10E0D00002922D221A700D9B5B42DA171C461546E0
:10E0E000029A20462946FFF795FE02E0029B013383
:10E0F0000293029B1B78002BF8D1029B5A1C0292C0
:10E100002E221A700C9B002B05D1029B5A1C0292E6
:10E1100030221A704FE0029A089BD31A099AD31A38
:10E12000013B0593059A019B9342A8BF13460593B3
:10E1300000230A9315E00C9A13469B0013445B00DE
:10E140000C930C9B1B16DAB2029B591C02913032C5
:10E15000D2B21A700C9B23F07F430C930A9B0133BD
:10E160000A930A9A059B9A42E5DB0C9A13469B0098
:10E1700013445B001B16042B1DDD029B013B0B931C
:10E1800015E00B9B1B782E2B0ED00B9B1B78392B8D
:10E1900003D10B9B30221A7006E00B9B1B780133D6
:10E1A000DAB20B9B1A7006E00B9B013B0B930B9AA8
:10E1B000089B9A42E5D2029B00221A70029A089BA1
:10E1C000D31A18460FB0F0BD302E30002DE9F04FB5
:10E1D00097B00390029101920023119300230B93B7
:10E1E000E9E206230E93029B1B78252B1FD0039B8D
:10E1F000002B15D0029B1B780A2B0BD1A84B1B7848
:10E20000002B07D0039B5A1C03920D221A70119BFE
:10E2100001331193039B5A1C0392029A12781A70CD
:10E22000029B01330293119B01331193C3E2029BC2
:10E230000133029300238DF835309DF835308DF889
:10E24000363020238DF83730029B1B78302B05D1D8
:10E2500030238DF83730029B0133029305AB19460A
:10E260000298FFF793FD03461093059B029A13440F
:10E270000293029B1B78732B05D0109B002B02DAB4
:10E28000109B5B421093029B1B782E2B0DD1029B9F
:10E290000133029305AB19460298FFF777FD034659
:10E2A0000E93059B029A13440293029B1B786C2BDE
:10E2B0000CD1029B01330293029B1B786C2B05D17E
:10E2C000029B0133029301238DF83530029B1B78AA
:10E2D000463B322B00F25C8201A252F823F000BFD1
:10E2E00017E7000091E7000091E7000091E70000C8
:10E2F00091E7000091E7000091E7000091E700003E
:10E3000091E7000091E7000091E7000091E700002D
:10E3100091E7000091E7000091E7000091E700001D
:10E3200091E7000091E70000ABE4000091E70000F6
:10E3300091E7000091E7000091E7000091E70000FD
:10E3400091E7000091E7000091E7000091E70000ED
:10E3500091E70000ADE30000DBE5000091E700007D
:10E3600017E7000091E7000091E70000DBE50000FF
:10E3700091E7000091E7000091E7000091E70000BD
:10E3800091E7000091E7000091E7000091E70000AD
:10E3900091E70000D3E3000091E7000045E50000AD
:10E3A00091E7000091E70000A5E40000019B1A1D21
:10E3B00001921B688DF81F30039B002B05D0039B37
:10E3C0005A1C03929DF81F201A70119B0133119360
:10E3D000EEE1019B1A1D01921B6815931598FFF73A
:10E3E000BEFD0B90109B002B2EDD109B0B9A9A42CA
:10E3F0002AD2109A0B9BD31A10939DF83730109A9B
:10E4000019460398FFF7C1FD1090039B002B01D024
:10E41000109B00E00023039A13440393109B119A6E
:10E4200013441193002310930EE0039B002B05D09F
:10E43000039B5A1C0392159A12781A70159B01338C
:10E440001593119B01331193159B1B78002BECD175
:10E45000109B002B00F0A981109B5B421093109B36
:10E460000B9A9A4280F0A181109A0B9BD31A1093B9
:10E470009DF83730109A19460398FFF786FD1090E3
:10E48000039B002B01D0109B00E00023039A134450
:10E490000393109B119A134411930023109384E16A
:10E4A0000822001001238DF836309DF83530002BFE
:10E4B00009D0019B073323F0070303F108020192FF
:10E4C000D3E9004506E0019B1A1D01921B6800225A
:10E4D0001C461546CDE91245109B002B1ED0DDE9E8
:10E4E0001201FFF72FFC0246109B9B1A10939DF818
:10E4F0003730109A19460398FFF747FD1090039B99
:10E50000002B01D0109B00E00023039A13440393D7
:10E51000109B119A13441193002310939DF83630E9
:10E52000039ADDE91201FFF7BAFC0F90039B002B61
:10E5300003D00F9B039A134403930F9B119A134428
:10E54000119335E19DF83530002B09D0019B07333D
:10E5500023F0070303F108020192D3E9006706E004
:10E56000019B1A1D01921B6800221E461746CDE929
:10E570001267109B002B1ED0DDE91201FFF7A8FBEC
:10E580000246109B9B1A10939DF83730109A19463B
:10E590000398FFF7FAFC1090039B002B01D0109B0F
:10E5A00000E00023039A13440393109B119A134431
:10E5B000119300231093039ADDE91201FFF72AFC5F
:10E5C0000F90039B002B03D00F9B039A13440393DC
:10E5D0000F9B119A13441193EAE09DF83530002BFC
:10E5E00009D0019B073323F0070303F108020192CE
:10E5F000D3E9008906E0019B1A1D01921B68DA1716
:10E6000098469146CDE90889DDE90823002B0CDA0C
:10E61000DDE908230021D2F1000A61EB030BCDE90B
:10E6200012AB01238DF8343006E0DDE90823CDE993
:10E63000122300238DF83430109B002B4AD0DDE9E3
:10E64000122310461946FFF763FB0246109B9B1AE4
:10E6500010939DF83430002B11D0109B013B109388
:10E660009DF83730302B0AD1039B002B04D0039B3D
:10E670005A1C03922D221A70119B013311939DF89D
:10E680003730109A19460398FFF77FFC1090039BD0
:10E69000002B01D0109B00E00023039A1344039346
:10E6A000109B119A13441193002310939DF834305A
:10E6B000002B1ED09DF83730202B1AD1039B002B46
:10E6C00004D0039B5A1C03922D221A70119B013314
:10E6D00011930EE09DF83430002B0AD0039B002BE1
:10E6E00004D0039B5A1C03922D221A70119B0133F4
:10E6F0001193039ADDE91201FFF78CFB0F90039B46
:10E70000002B03D00F9B039A134403930F9B119A82
:10E71000134411934CE0039B002B48D0019B07331B
:10E7200023F0070303F108020192D3E90023104606
:10E730001946FEF779FC03460693039B14221A60E0
:10E740000E9903989DED060AFFF742FC0F900F9B70
:10E75000002B14DA0F9BB3F1FF3F02D11E4B0C9339
:10E7600008E00F9B13F1020F02D11C4B0C9301E048
:10E770001B4B0C93039B0C9A1A6003230F930F9B64
:10E78000119A134411930F9B039A134403930EE0C1
:10E79000039B002B05D0039B5A1C0392029A12780C
:10E7A0001A70119B0133119302E000BF00E000BF1B
:10E7B000029B01330293029B1B78002B7FF411AD67
:10E7C000039B002B02D0039B00221A70119B18465A
:10E7D00017B0BDE8F08F00BF302E3000232E23008D
:10E7E0003F2E3F000FB400B583B00C4B1B68002BCD
:10E7F00001D100230CE005AB0093009A049908486E
:10E80000FFF7E4FC0190054B1B6805489847019B06
:10E81000184603B05DF804EB04B070470421001003
:10E820000821001008B50248FFF7DCFF00BF08BD53
:10E8300074B1030000B589B0019003AB18462AF00B
:10E8400001F8039B0793079B074AA2FB03239A093E
:10E85000019B02FB03F3069306982AF059FA00BFC6
:10E8600009B05DF804FB00BFF119760500B589B069
:10E87000019003AB184629F0E5FF039B0793079B24
:10E88000074AA2FB03239A0C019B02FB03F30693A6
:10E8900006982AF03DFA00BF09B05DF804FB00BFFE
:10E8A000819F5E16114812490160D1F800D01148CD
:10E8B000016841F470010160BFF34F8FBFF36F8FA8
:10E8C0000D480E490E4A50F8043B41F8043B914272
:10E8D000F9DB0C480C494FF000028842B8BF40F801
:10E8E000042BFADBFEF754FE00BE00BF08ED00E08B
:10E8F00000C0000088ED00E0641804000010001063
:10E90000F81C0010F81C0010207E0010FEE7FEE747
:10E91000FEE7000000B585B00390029101920093DC
:10E920001C4901202AF030FD0346002B1AD1194B57
:10E930001B680022002118462AF0BAFD0346002B6E
:10E9400010D1144B1B68144918462AF093FE034655
:10E95000002B07D10F4B1B6818462AF03DFD0346DC
:10E96000002B03D00D48FFF73DFFFEE70C4B196865
:10E9700008202AF013FA0B4B196809202AF00EFA26
:10E98000094B19680A202AF009FA00BF05B05DF8A2
:10E9900004FB00BF0C2200100010001088B103001F
:10E9A00080FA030084FA030088FA030000B591B0EE
:10E9B00001900B46ADF8023000F0A0FC00238DF86A
:10E9C0003F3003AB2822002118461FF0BDFF012372
:10E9D000069302238DF81C300EAB08930DAB099300
:10E9E000BDF802300E930C4B1B6803AA1146184663
:10E9F0002BF060F90346002B02D00848FFF7F2FE27
:10EA00000D9B8DF83F3000F07DFC9DF83F309BB2B0
:10EA1000184611B05DF804FB0C220010A8B10300E9
:10EA200082B003468DF807309DF90730002B0CDBD0
:10EA30009DF8073003F01F0205499DF907305B0977
:10EA4000012000FA02F241F8232000BF02B0704713
:10EA500000E100E082B003468DF807309DF90730F1
:10EA6000002B13DB9DF8073003F01F0209499DF9C5
:10EA700007305B09012000FA02F2203341F823201D
:10EA8000BFF34F8F00BFBFF36F8F00BF00BF02B057
:10EA9000704700BF00E100E082B0034600918DF8AE
:10EAA00007309DF90730002B0ADB009BDAB20C49D6
:10EAB0009DF907305201D2B20B4483F800230BE0DA
:10EAC000009BDAB207499DF8073003F00F03043BBF
:10EAD0005201D2B20B441A7600BF02B0704700BF99
:10EAE00000E100E000ED00E0F0B589B00390019393
:10EAF0000B468DF80B3013468DF80A300023079330
:10EB00009DF81C30032262F302038DF81C309DF83F
:10EB10001D3043F010038DF81D309DF80B30012B94
:10EB200007D19DF81C30032262F347138DF81C3087
:10EB300009E09DF80B30022B05D09DF81C306FF3D7
:10EB400047138DF81C309DF80A30032B2DD801A2F5
:10EB500052F823F065EB00007FEB00008DEB000026
:10EB60009DEB00009DF81D306FF346138DF81D30AE
:10EB70009DF81D306FF3C7138DF81D3022E09DF80E
:10EB80001D306FF346138DF81D301BE09DF81D30CE
:10EB9000012262F346138DF81D3013E09DF81D30FD
:10EBA00043F060038DF81D300CE09DF81D306FF3CD
:10EBB00046138DF81D309DF81D306FF3C7138DF887
:10EBC0001D3000BF019B002B02D0019800F064F8BB
:10EBD000039B079918462AF0E1F89DF80A30002BAC
:10EBE0003FD04FF000024FF00003CDE904234FF077
:10EBF00001024FF000030399A1F1200CC1F12000A4
:10EC000003FA01F702FA0CFC47EA0C0722FA00F0BB
:10EC1000074302FA01F6CDE90467304639462AF087
:10EC20008DFA4FF001024FF000030399A1F1200685
:10EC3000C1F1200003FA01F502FA06F6354322FA83
:10EC400000F0054302FA01F4CDE9044520462946C7
:10EC50002AF054FA01210D20FFF71EFF0D20FFF7C7
:10EC6000DFFE00BF09B0F0BD00B583B00190009198
:10EC7000019B084A116818462AF090F8019B009AF7
:10EC8000D2B2114618462AF0F5F900BF03B05DF87C
:10EC900004FB00BF7014040082B00190019B002BA4
:10ECA00009D0019B9B68002B05D0019B1B68034981
:10ECB000019A41F8232000BF02B0704710220010D3
:10ECC00008B501210D20FFF7E7FE0D20FFF7A8FE94
:10ECD00000BF08BD08B50D20FFF7BCFE00BF08BD92
:10ECE00000B583B001900091019B009AD2B2114609
:10ECF00018462AF0BFF900BF03B05DF804FB00B569
:10ED000085B00190019B03AA002118462AF07CF9E6
:10ED1000039B184605B05DF804FB00B585B0019073
:10ED200002AB194600202AF023FADDE9022310463F
:10ED300019462AF003FA00BF05B05DF804FB000095
:10ED400030B583B06B46194600202AF011FADDE990
:10ED50000023104619462AF0F1F9DDE90023104698
:10ED600019462AF025FADDE9002302F400440025C3
:10ED700054EA050310D00A4BDB6B002B0CD0084B78
:10ED8000DB6B9B68002B07D0054BDB6B9B68044A51
:10ED9000D26B52681046984700BF03B030BD00BF29
:10EDA0001022001082B003468DF807309DF907301D
:10EDB000002B0CDB9DF8073003F01F0205499DF97D
:10EDC00007305B09012000FA02F241F8232000BF5E
:10EDD00002B0704700E100E082B003468DF80730D2
:10EDE0009DF90730002B13DB9DF8073003F01F025D
:10EDF00009499DF907305B09012000FA02F220332E
:10EE000041F82320BFF34F8F00BFBFF36F8F00BFC8
:10EE100000BF02B0704700BF00E100E008B5064B3C
:10EE20005B68002B05D0044B5B68034A12681046F0
:10EE3000984700BF08BD00BFD822001008B54FF4A6
:10EE400011724FF0FF31002029F0FEFD012029F062
:10EE5000E7FE2AF00BFA00BF08BD000000B585B040
:10EE600001900091009B002B05D0144B009A92E872
:10EE7000030083E80300019B40F6B83202FB03F372
:10EE80000F4AA2FB0323DB08013B03930D4901203A
:10EE900029F00EFD0E20FFF785FF0023039A4FF0A7
:10EEA000FF31002029F062FE4FF0FF31002029F0F1
:10EEB00019FE00BF05B05DF804FB00BFD8220010AA
:10EEC000CDCCCCCC1DEE000008B54FF0FF310020BA
:10EED00029F036FE00BF08BD08B50E20FFF762FF1F
:10EEE00000BF08BD08B50E20FFF776FF00BF08BDC4
:10EEF00000B583B0012029F0B9FE0190019B03F019
:10EF00000103002B08D0012029F09EFE019B03F095
:10EF10000103184629F0B4FC019B03F00403002B05
:10EF200008D0042029F090FE019B03F0040318464A
:10EF300029F0A6FC00BF03B05DF804FB82B00346D5
:10EF40008DF807309DF90730002B0CDB9DF807305A
:10EF500003F01F0205499DF907305B09012000FA03
:10EF600002F241F8232000BF02B0704700E100E048
:10EF700082B0034600918DF807309DF90730002BD1
:10EF80000ADB009BDAB20C499DF907305201D2B27C
:10EF90000B4483F800230BE0009BDAB207499DF88D
:10EFA000073003F00F03043B5201D2B20B441A7630
:10EFB00000BF02B0704700BF00E100E000ED00E0DC
:10EFC0000A4B1B680133094A1360084B1B6842F265
:10EFD0001072934207D1064B1B680133044A136039
:10EFE000024B00221A6000BF704700BFE4220010ED
:10EFF000E022001000B583B04FF411724FF0FF31E2
:10F00000012029F021FD012029F00AFE00210E2017
:10F01000FFF7AEFF0E20FFF791FF144B01939DED1C
:10F02000017ADFED136AC7EE267A9FED127A67EE5A
:10F03000877AFCEEE77A17EE903A0093009B5A1E0F
:10F0400000234FF0FF31012029F090FD0A490420F0
:10F0500029F02EFC042029F0E3FD4FF0FF310120C0
:10F0600029F040FD00BF03B05DF804FBCDCCCC3DE2
:10F0700000007A44001B374AC1EF0000014B1B68B7
:10F0800018467047E0220010054B1B6842F21072D0
:10F0900003FB02F2034B1B6813441846704700BF82
:10F0A000E0220010E4220010074B1B684FF47A7234
:10F0B00003FB02F2054B1B680549A1FB0313DB08A8
:10F0C00013441846704700BFE0220010E4220010ED
:10F0D000CDCCCCCC00B5C3B042ABA3F582731860E5
:10F0E00042ABA3F58473196042ABA3F5847242ABC3
:10F0F000A3F5827302A81268196821F0FFFA03468B
:10F10000002B03DD02AB1846FEF7FEF900BF43B04B
:10F110005DF804FB00B583B01FF068FC0346019363
:10F12000019B184603B05DF804FB00B583B0019065
:10F130000091019A009B9A420ED8FFF7EBFF02461E
:10F140000099019BCB1A0133B2FBF3F101FB03F3EE
:10F15000D21A019B13440DE0FFF7DCFF0246019930
:10F16000009BCB1A0133B2FBF3F101FB03F3D21A7C
:10F17000009B1344184603B05DF804FB00B585B04E
:10F1800001900B468DF80330019BDB0C03F001036B
:10F190000393019B5B0B03F03F031A460399084856
:10F1A00029F084FD0290029B002B02D00548FFF756
:10F1B00019FB029BDBB2184605B05DF804FB00BFEB
:10F1C00021433412C0B1030000B58DB00390029109
:10F1D0000192039B089300230B9300230A930023BF
:10F1E000079300230593019B03F00303002B05D035
:10F1F000019B23F0030304330A9301E0019B0A936C
:10F20000039A0A9B1344079333E0002305930023DA
:10F210008DF8273013E09DF827200B9B1344029AAA
:10F2200013441B781A469DF82730DB009A40059B53
:10F23000134405939DF8273001338DF827309DF84E
:10F240002730032BE7D9039B089305A90123089ACC
:10F250000C4829F02FFD0690069B002B03D00A488E
:10F26000FFF7C0FAFEE7039B043303930B9B0433C1
:10F270000B93039A079B9A42C7D3002318460DB0FD
:10F280005DF804FB21433412E0B1030086B0039023
:10F29000029101920023059300238DF8133010E0B2
:10F2A000039A059B13441B68DBB28DF81330029A56
:10F2B000059B13449DF81320D2B21A70059B0133AD
:10F2C0000593059A019B9A42EAD300BF00BF06B09E
:10F2D00070470000BFF34F8F00BF064BDB6803F49D
:10F2E000E0620449044B1343CB60BFF34F8F00BF70
:10F2F00000BFFDE700ED00E00400FA0572B600BFB4
:10F3000000BF704762B600BF00BF704708B501215B
:10F310000B20FFF7A9FC0023002200211020FFF79B
:10F32000E3FB0023012202210F20FFF7DDFB012177
:10F330001120FFF799FC01210220FFF795FC00BF87
:10F3400008BD08B572B600BFFFF7C4FF00B583B0B3
:10F350000190019B1846FFF789FA00BF03B05DF8E2
:10F3600004FB0000BFF34F8F00BF064BDB6803F4C4
:10F37000E0620449044B1343CB60BFF34F8F00BFDF
:10F3800000BFFDE700ED00E00400FA0500B583B022
:10F390000023019301AB1946002009F04AF8019BB4
:10F3A00003F00803002B01D0012300E000231846DE
:10F3B00003B05DF804FB000000B585B00190FFF7D5
:10F3C000E5FF03468DF80F30019B41330B4918468A
:10F3D000FCF73AFF0346002B09D19DF80F30194680
:10F3E0000748FFF7FFF90748FFF7FCF902E0064876
:10F3F000FFF7F8F900BF05B05DF804FB20B2030089
:10F4000024B203002CB2030034B2030000B589B06B
:10F41000039002910192214B1B88ADF81430002318
:10F420008DF8163000238DF81630002307932CE05A
:10F43000079B5B00039A13441B788DF81430079BDD
:10F440005B000133039A13441B788DF8153004A92F
:10F4500005AB102218461FF0E3FC069005AB023303
:10F46000049A934205D1069B002B02DB069BFF2BDF
:10F4700002DD4FF0FF330DE0029A079B1344069A1A
:10F48000D2B21A70079B01330793079A019B9A42E5
:10F49000CED30023184609B05DF804FB40B2030048
:10F4A00000B583B0019005490548FFF79BF9054871
:10F4B000FFF798F900BF03B05DF804FB44B2030006
:10F4C00050B203002CB2030000B583B00190024893
:10F4D000FFF788F9FFF746FF58B2030000B583B085
:10F4E00001900548FFF77EF90448FFF77BF900BF5C
:10F4F00003B05DF804FB00BF68B203002CB2030048
:10F5000000B583B001900548FFF76CF90448FFF798
:10F5100069F900BF03B05DF804FB00BF74B20300DB
:10F5200084B2030000B587B00190019B41332849A4
:10F530001846FCF789FE0346002B17D100230593DC
:10F540000AE0244A059B13441B7819462248FFF71A
:10F5500049F9059B01330593059B072BF1DD1F48F6
:10F56000FFF740F91E48FFF73DF92DE0019B4133BD
:10F570001846FCF7E5FF0346102B22D10023039326
:10F5800000230493019B413303A908221846FFF787
:10F590003DFF0346002B03D01248FFF723F913E089
:10F5A0000C4B1A4603AB93E8030082E803000C48B7
:10F5B000FFF718F901F0C2FA0649002008F0B4FF7D
:10F5C00002E00848FFF70EF907B05DF804FB00BF42
:10F5D00020B20300B41100108CB2030094B20300F7
:10F5E0002CB2030098B2030000B587B00190019BD4
:10F5F000413328491846FCF727FE0346002B18D153
:10F60000002305930BE0244A059B134408331B7821
:10F6100019462248FFF7E6F8059B01330593059B41
:10F62000072BF0DD1E48FFF7DDF81E48FFF7DAF87C
:10F630002DE0019B41331846FCF782FF0346102B57
:10F6400022D10023039300230493019B413303A998
:10F6500008221846FFF7DAFE0346002B03D01248B3
:10F66000FFF7C0F813E00C4B083303AA92E803003D
:10F6700083E803000D48FFF7B5F801F05FFA0C4985
:10F68000002008F017FF02E00748FFF7ABF807B0CB
:10F690005DF804FB20B20300B41100108CB203002B
:10F6A00094B203002CB2030098B20300ACB2030082
:10F6B000BC11001010B588B00190019B413329495D
:10F6C0001846FCF7C1FD0346002B18D10023079311
:10F6D0000BE0254A079B134410331B781946234837
:10F6E000FFF780F8079B01330793079B0F2BF0DD93
:10F6F0001F48FFF777F81F48FFF774F830E0019BC9
:10F7000041331846FCF71CFF0346202B25D100236C
:10F71000039304AB00221A605A609A60019B413344
:10F7200003A910221846FFF771FE0346002B03D0F1
:10F730001148FFF757F813E00B4B03F1100403AB2C
:10F740000FCB84E80F000B48FFF74CF801F0F6F9F7
:10F750000A49002008F022FF02E00748FFF742F8BC
:10F7600008B010BD20B20300B41100108CB2030029
:10F7700094B203002CB2030098B20300C41100102D
:10F7800000B5ADF50B7D8AABA3F5077318608AABA6
:10F79000A3F507731B6803F1410045AB86AA4149F5
:10F7A0001FF042F90346022B03D03F48FFF71AF837
:10F7B00073E045AB1846FCF7C3FE8790879B03F0C8
:10F7C0000103002B06D03848FFF70CF83748FFF745
:10F7D00009F862E000238993002388931DE045AA7D
:10F7E000889B134404AA324918461FF01DF90346AA
:10F7F000012B03D02F48FEF7F5FF4EE08AABA3F5AF
:10F8000006731968899B5A1C8992C9B28AAAA2F503
:10F810000572D154889B02338893889A879B9A42B9
:10F82000DDD303F03FF80346002B21D1FFF7AEFDF7
:10F830000346002B18D0204B00221A60869BD9B2B9
:10F840001E4B93F84630002B14BF01230023DAB27D
:10F85000899BDBB205A800930346002009F0A3F8BA
:10F860001748FEF7BFFF18E01648FEF7BBFF14E08D
:10F87000869BD9B2114B93F84630002B14BF01235D
:10F880000023DAB2899BDBB205A80093034600206F
:10F8900009F089F80A48FEF7A5FF0DF50B7D5DF824
:10F8A00004FB00BFB4B2030098B20300BCB2030073
:10F8B000D0B20300D8B20300F0220010B41100103F
:10F8C0002CB20300F4B2030000B583B0019007F03E
:10F8D00085FE0346012B03D10648FEF783FF05E0B2
:10F8E0000548FEF77FFF002008F0E6FF03B05DF853
:10F8F00004FB00BF18B303002CB2030000B583B0B3
:10F900000190019B413323491846FCF79DFC0346B7
:10F91000002B0AD1204B93F8443019461F48FEF7BC
:10F9200061FF1F48FEF75EFF31E0019B413318463F
:10F93000FCF706FE0346012B26D1019B41331846F6
:10F940001EF0FEFF0346DAB2134B83F84420124B3D
:10F9500093F84430022B03D91248FEF743FF16E018
:10F960000D4B93F844301946002008F051FE034631
:10F97000002B03D00C48FEF735FF08E001F0DEF85D
:10F980000748FEF72FFF02E00648FEF72BFF03B003
:10F990005DF804FB20B20300B411001024B2030090
:10F9A0002CB2030098B2030034B2030000B585B056
:10F9B0000190019B41331E491846FCF745FC034664
:10F9C000002B0AD11B4B93F84E3019461A48FEF70C
:10F9D00009FF1A48FEF706FF26E0019B413318464F
:10F9E000FCF7AEFD0346012B1BD1019B41331846AA
:10F9F0001EF0A6FF03468DF80F309DF80F30012B47
:10FA000003D90F48FEF7EEFE0EE00A4A9DF80F30CC
:10FA100082F84E3001F092F80848FEF7E3FEFFF757
:10FA2000A1FC0748FEF7DEFE05B05DF804FB00BF51
:10FA300020B20300B411001024B203002CB2030062
:10FA400098B2030000B585B00190254B93F84E3075
:10FA5000012B03D12348FEF7C5FE3DE0019B413356
:10FA600021491846FCF7F0FB0346002B09D11C4B3B
:10FA70001B6D19461D48FEF7B5FE1D48FEF7B2FE88
:10FA80002AE0019B41331846FCF75AFD03460A2B36
:10FA90001CD1019B41330A22002118461FF076FA3F
:10FAA0000390039B134A934203D8039B124A934249
:10FAB00003D81248FEF796FE0EE0094A039B136531
:10FAC00001F03CF80A48FEF78DFE05E0019B41334A
:10FAD00019460B48FEF786FE05B05DF804FB00BF33
:10FAE000B41100104CB3030020B2030060B3030054
:10FAF0002CB2030000F90295FF170D8F98B2030096
:10FB000068B3030000B585B00190224B93F84E30E6
:10FB1000012B03D12048FEF765FE37E0019B4133FE
:10FB20001E491846FCF790FB0346002B0AD1194BDF
:10FB300093F8543019461A48FEF754FE1948FEF758
:10FB400051FE23E0019B41331846FCF7F9FC0346C4
:10FB5000022B18D8019B413318461EF0F1FE0346D4
:10FB60000393039B0D2B03D90F48FEF73BFE0DE0DB
:10FB7000039BDAB2074B83F8542000F0DFFF0948FB
:10FB8000FEF730FE02E00848FEF72CFE05B05DF8F7
:10FB900004FB00BFB41100104CB3030020B20300FB
:10FBA00024B203002CB2030098B2030000B585B064
:10FBB0000190234B93F84E30012B03D12148FEF7DF
:10FBC00011FE3AE0019B41331F491846FCF73CFB0C
:10FBD0000346002B0AD11A4B93F8553019461B489F
:10FBE000FEF700FE1A48FEF7FDFD26E0019B4133BB
:10FBF0001846FCF7A5FC0346022B1BD8019B41339A
:10FC000018461EF09DFE03460393039B082B02D863
:10FC1000039B002B03D10F48FEF7E4FD0DE0039B8F
:10FC2000DAB2074B83F8552000F088FF0848FEF74A
:10FC3000D9FD02E00748FEF7D5FD05B05DF804FBED
:10FC4000B41100104CB3030020B2030024B203002F
:10FC50002CB2030098B2030000B585B00190234B8D
:10FC600093F84E30012B03D12148FEF7BBFD3AE05B
:10FC7000019B41331F491846FCF7E6FA0346002B67
:10FC80000AD11A4B93F8563019461B48FEF7AAFDC5
:10FC90001A48FEF7A7FD26E0019B41331846FCF702
:10FCA0004FFC0346012B1BD1019B413318461EF02C
:10FCB00047FE03460393039B062B02D8039B022BAC
:10FCC00003D80F48FEF78EFD0DE0039BDAB2074B19
:10FCD00083F8562000F032FF0848FEF783FD02E06B
:10FCE0000748FEF77FFD05B05DF804FBB411001076
:10FCF0004CB3030020B2030024B203002CB2030073
:10FD000098B2030000B585B00190224B93F84E30B5
:10FD1000012B03D12048FEF765FD37E0019B4133FD
:10FD20001E491846FCF790FA0346002B0AD1194BDE
:10FD300093F8573019461A48FEF754FD1948FEF754
:10FD400051FD23E0019B41331846FCF7F9FB0346C4
:10FD5000012B18D1019B413318461EF0F1FD0346DB
:10FD60000393039B032B03D90F48FEF73BFD0DE0E4
:10FD7000039BDAB2074B83F8572000F0DFFE0948F7
:10FD8000FEF730FD02E00848FEF72CFD05B05DF8F7
:10FD900004FB00BFB41100104CB3030020B20300F9
:10FDA00024B203002CB2030098B2030000B585B062
:10FDB0000190194B93F84E30012B03D11748FEF7F1
:10FDC00011FD25E0019B413315491846FCF73CFA2B
:10FDD0000346002B0AD1104B93F8583019461148AE
:10FDE000FEF700FD1048FEF7FDFC11E0019B4133DA
:10FDF00018461EF0A5FD03460393039BDAB2064B9B
:10FE000083F8582000F09AFE0748FEF7EBFC00BF8D
:10FE100005B05DF804FB00BFB41100104CB3030043
:10FE200020B2030024B203002CB2030000B585B059
:10FE30000190234B93F84E30012B03D12148FEF75C
:10FE4000D1FC39E0019B413318461EF079FD034691
:10FE50000393039B002B07D1019B93F84130002BA8
:10FE600002D009F0EFF924E0039B4FF6FF729342B2
:10FE700004D0039B4FF6FE7293420DD1104B186DC8
:10FE80000F4B93F855100E4B93F856200C4B93F8EC
:10FE9000573009F083FC0CE0094B186D084B93F8C0
:10FEA0005510074B93F85620054B93F8573009F03F
:10FEB00075FC0548FEF796FC05B05DF804FB00BF35
:10FEC000B41100104CB303002CB20300F0B5ADF533
:10FED0000F7D8EABA3F507731860464B93F84E3039
:10FEE000012B03D14448FEF77DFC80E08EABA3F5E7
:10FEF00007731B68413341491846FCF7A5F90346CF
:10FF0000002B02D13E48FEF76DFC8EABA3F50773C4
:10FF10001B6841334AAA3B4918461EF085FD03463B
:10FF2000012B03D03648FEF75DFC60E04AAB184673
:10FF3000FCF706FB8B908B9B03F00103002B03D097
:10FF40003148FEF74FFC52E000238D9300238C9341
:10FF50001DE04AAA8C9B134409AA2C4918461EF09E
:10FF600063FD0346012B03D02948FEF73BFC3EE02E
:10FF70008EABA3F5057319688D9B5A1C8D92C9B27F
:10FF80008EAAA2F50472D1548C9B02338C938C9A66
:10FF90008B9B9A42DDD307F021FB0346002B01D156
:10FFA00009F0CAF88D9BDCB2124B1D6D114B93F812
:10FFB00054305EB20F4B93F855300E4A92F85620EB
:10FFC0000C4991F857100B4890F8580006900AA871
:10FFD00000270497069F03970291019200933346EE
:10FFE0002A46214609F052F90A48FEF7FBFB0DF5B7
:10FFF0000F7DF0BDB41100104CB3030020B203001C
:020000021000EC
:1000000098B2030088B30300BCB20300D0B203006F
:10001000D8B203002CB2030000B587B00590059B51
:10002000413326491846FCF70FF90346002B27D128
:10003000234B1B6819462348FEF7D4FB224B1B6851
:1000400019462248FEF7CEFB214B1B681946214872
:10005000FEF7C8FB204B1B6819462048FEF7C2FB81
:100060001F4B1B6819461F48FEF7BCFB1E4B1B6845
:1000700019461E48FEF7B6FB1D48FEF7B3FB19E014
:10008000059B03F14100184B0393154B0293124B50
:1000900001930F4B00930C4B094A16491EF0C4FC08
:1000A0000346062B03D01448FEF79CFB02E01048E1
:1000B000FEF798FB07B05DF804FB00BF20B2030019
:1000C000141000108CB3030018100010A0B303002C
:1000D0001C100010B4B3030020100010BCB30300C8
:1000E000EC220010C4B3030024100010CCB30300B2
:1000F0002CB20300E0B3030098B20300F0B5ADF5F5
:100100000F7D8EABA3F5077318608EABA3F5077355
:100110001B6841334B491846FCF796F80346002B01
:1001200002D14948FEF75EFB8EABA3F507731B684F
:10013000413349AA454918461EF076FC0346012B77
:1001400003D04148FEF74EFB79E049AB1846FCF777
:10015000F7F98A908A9B03F00103002B03D03C48F7
:10016000FEF740FB6BE000238D9300238C931DE092
:1001700049AA8C9B134408AA364918461EF054FC21
:100180000346012B03D03448FEF72CFB57E08EAB1F
:10019000A3F5067319688D9B5A1C8D92C9B28EAA5D
:1001A000A2F50572D1548C9B02338C938C9A8A9B56
:1001B0009A42DDD32948FEF715FB00238B930CE010
:1001C0008EABA3F505728B9B13441B78194624480C
:1001D000FEF708FB8B9B01338B938B9A8D9B9A4286
:1001E000EED32048FEF7FEFA07F0F8F90346002B9D
:1001F00001D108F0A1FF8D9BDDB21B4B1E681B4B8C
:100200001B685FB21A4B1B68DBB20693194A12686F
:10021000D2B219490968C9B21848006809AC00236C
:100220000493039002910192069B00933B46324651
:100230002946204609F02AF81148FEF7D3FA0DF5B1
:100240000F7DF0BD20B2030098B2030088B3030015
:10025000BCB20300D0B20300D8B20300F4B3030071
:1002600004B4030094B2030014100010181000101E
:100270001C10001020100010EC22001024100010A0
:100280002CB2030000B583B0019007F0A7F9034634
:10029000002B01D108F050FF094B1868094B1B686F
:1002A000D9B2094B1B68DAB2084B1B68DBB209F004
:1002B00075FA0748FEF796FA00BF03B05DF804FB35
:1002C000141000101C10001020100010EC22001060
:1002D0002CB2030000B583B0019008F0B3FF00BF5B
:1002E00003B05DF804FB000000B587B00190019BEE
:1002F000413327491846FBF7A7FF0346002B0AD1D5
:10030000244B93F8453019462348FEF76BFA2348EF
:10031000FEF768FA39E0019B41331846FCF710F903
:100320000346012B2ED1019B413318461EF008FBDA
:100330000346DAB2174B83F84520164B93F8453045
:10034000052B03D91648FEF74DFA1EE00023029351
:1003500003AB00221A605A609A600E4B93F8453046
:10036000194602AB102218461EF0EEFA02AB1A46EE
:100370000321002008F0E2F900F0E0FB0748FEF757
:1003800031FA02E00648FEF72DFA07B05DF804FBEB
:1003900020B20300B411001024B203002CB20300F9
:1003A00098B2030000B583B00190019B4133154919
:1003B0001846FBF749FF0346002B09D1124B9B6CF3
:1003C00019461248FEF70EFA1148FEF70BFA16E02E
:1003D000019B413318461EF0B3FA03461A460A4BF6
:1003E0009A6400F0ABFB0A48FEF7FCF9064B9B6CE5
:1003F000002B04D0044B9B6C184608F03BF803B06C
:100400005DF804FB20B20300B411001060B30300D8
:100410002CB2030000B583B00190019B41330B491E
:100420001846FBF711FF0346002B09D1084B1B6848
:1004300019460848FEF7D6F90748FEF7D3F902E057
:100440000648FEF7CFF903B05DF804FB20B20300C5
:10045000F022001024B203002CB2030034B20300D7
:1004600000B585B0019000238DF80F30019B41331A
:100470001D491846FBF7E8FE0346002B0AD11B4B2B
:1004800093F8463019461A48FEF7ACF91948FEF7BA
:10049000A9F925E0019B41331846FCF751F80346C2
:1004A000012B1AD1019B413318461EF049FA03462D
:1004B0008DF80F309DF80F30012B03D90E48FEF751
:1004C00091F90DE0094A9DF80F3082F8463000F0AE
:1004D00035FB0848FEF786F902E00748FEF782F987
:1004E00005B05DF804FB00BF20B20300B41100109A
:1004F00024B203002CB2030098B2030000B585B00B
:10050000019000238DF80F30019B4133204918469C
:10051000FBF79AFE0346002B0AD11E4B93F84D3091
:1005200019461D48FEF75EF91C48FEF75BF92BE003
:10053000019B41331846FCF703F80346012B1FD8F3
:10054000019B413318461EF0FBF903468DF80F302E
:100550009DF80F30012B03D91148FEF743F913E042
:100560009DF80F30184602F0A7F90A4A9DF80F309F
:1005700082F84D3000F0E2FA0848FEF733F902E065
:100580000748FEF72FF900BF05B05DF804FB00BF78
:1005900020B20300B411001024B203002CB20300F7
:1005A00098B2030000B585B0019000230393019B2E
:1005B00041331D491846FBF747FE0346002B09D17E
:1005C0001A4B1B6A19461A48FEF70CF91948FEF730
:1005D00009F926E0019B41331846FBF7B1FF0346BA
:1005E000082B1AD1019B413303AA134918461EF068
:1005F0001BFA0346012B03D01048FEF7F3F810E076
:10060000039B0A4A1362039B184602F071F900F03B
:1006100095FA0848FEF7E6F803E00848FEF7E2F826
:1006200000BF05B05DF804FB20B20300B411001058
:1006300068B403002CB2030070B4030098B2030046
:1006400000B585B0019000238DF80F30019B413338
:1006500027491846FBF7F8FD0346002B0AD1254B26
:1006600093F84C3019462448FEF7BCF82348FEF7AF
:10067000B9F83AE0019B41331846FBF761FF0346A6
:10068000022B2ED8019B413318461EF059F9034620
:100690008DF80F309DF80F30102B03D91848FEF756
:1006A000A1F822E0032002F0ADF89DF80F301946C2
:1006B000002008F0D3F903468DF80E309DF80E3077
:1006C000002B03D00E48FEF78DF80EE0094A9DF886
:1006D0000F3082F84C3000F031FA0848FEF782F80B
:1006E00002E00748FEF77EF800BF05B05DF804FBA6
:1006F00020B20300B411001024B203002CB2030096
:1007000098B2030010B588B00190019B413329498C
:100710001846FBF799FD0346002B18D100230793D9
:100720000BE0254A079B134424331B7819462348C2
:10073000FEF758F8079B01330793079B0F2BF0DD5B
:100740001F48FEF74FF81F48FEF74CF830E0019BBA
:1007500041331846FBF7F4FE0346202B25D1002336
:10076000039304AB00221A605A609A60019B4133E4
:1007700003A910221846FEF749FE0346002B03D0BA
:100780001148FEF72FF813E00B4B03F1240403ABE1
:100790000FCB84E80F000B48FEF724F800F0CEF9E9
:1007A0000A4906201AF05CFB02E00748FEF71AF837
:1007B00008B010BD20B20300B41100108CB20300C9
:1007C00094B203002CB2030098B20300D8110010B9
:1007D00010B588B00190019B413329491846FBF7B9
:1007E00033FD0346002B18D1002307930BE0254A65
:1007F000079B134434331B7819462348FDF7F2FF57
:10080000079B01330793079B0F2BF0DD1F48FDF774
:10081000E9FF1F48FDF7E6FF30E0019B4133184632
:10082000FBF78EFE0346202B25D10023039304AB58
:1008300000221A605A609A60019B413303A910227A
:100840001846FEF7E3FD0346002B03D01148FDF7E1
:10085000C9FF13E00B4B03F1340403AB0FCB84E867
:100860000F000B48FDF7BEFF00F068F90A490720AA
:100870001AF0F6FA02E00748FDF7B4FF08B010BD21
:1008800020B20300B41100108CB2030094B2030034
:100890002CB2030098B20300E811001000B5ADF5CA
:1008A000197D98ABA3F51773186098ABA3F518736F
:1008B000196098ABA3F518733D2118681EF04EF926
:1008C0009790979B002B2CD098ABA3F51873979A11
:1008D0001B68D31A9693979B01331846FBF730FE9B
:1008E000959098ABA3F5187303A8969A1968FBF72F
:1008F00007FC979B591C03AB4133959A1846FBF7AD
:10090000FFFB98ABA3F51572969B134400221A7057
:1009100098ABA3F51572959B1344413300221A70CE
:100920000DE098ABA3F5187303AA196810461EF0E2
:100930007BF998ABA3F51573002283F8412098AB9F
:10094000A3F517731A6898ABA3F5157310461946EB
:100950004FF412731A46FBF7D3FB98ABA3F517734A
:1009600018680DF5197D5DF804FB000000B5ADF5C4
:10097000177D96ABA3F51573186096ABA3F51472AB
:1009800096ABA3F5157319681046FFF787FF02AB06
:100990001B78002B03D11B48FDF724FF2EE02123F9
:1009A00094930023959322E01749959A13465B0090
:1009B00013449B000B441A6802AB114618461EF004
:1009C000A7F80346002B0FD10E48FDF70BFF0E4989
:1009D000959A13465B0013449B000B4404331B6839
:1009E00002AA1046984709E0959B01339593959A82
:1009F000949B9A42D8DB0548FDF7F4FE0DF5177D70
:100A00005DF804FB94B203002810001034B2030018
:100A100000B583B01448FDF7E5FE212300930023C1
:100A2000019317E01149019A13465B0013449B00A0
:100A30000B4419680D48019A13465B0013449B0050
:100A4000034408331B681A460948FDF7CBFE019B97
:100A500001330193019A009B9A42E3DB00BF00BF80
:100A600003B05DF804FB00BFB4BB03002810001006
:100A7000D0BB030000B583B003468DF807309DF866
:100A80000730082B0CD1274B1B68002B45DD254B6D
:100A90001B68013B234A13602348FDF7A3FE3CE09B
:100AA000204B1B68B3F5A17F06DB1E4B00221A60AA
:100AB0001E48FDF797FE31E09DF807300A2B03D062
:100AC0009DF807300D2B1CD1164B1B68184A0021CE
:100AD000D154184916481EF01BF80346002B06D0C7
:100AE000154913481EF014F80346002B02D1FFF7F6
:100AF0008FFF02E00E48FFF739FF0A4B00221A6011
:100B00000CE0084B1B680A499DF80720CA54054BA6
:100B10001B680133034A136000E000BF03B05DF8B7
:100B200004FB00BFF4220010DCBB0300E0BB0300A9
:100B3000F822001000BC030004BC030000B583B021
:100B400001214FF40820FEF719FB5C2205494FF400
:100B50000820FEF739FB00238DF8073000BF03B0F3
:100B60005DF804FBB411001008B55C2221494FF474
:100B70000820FEF78BFB1F4B93F84D30FF2B04D062
:100B80001C4B93F84E30FF2B31D11A4B00221A62C6
:100B9000184B002283F84420164B002283F845208E
:100BA000144B012283F84620124B012283F84C207B
:100BB000104B002283F84D200E4B012283F84E206B
:100BC0000C4B0D4A1A650B4B0A2283F85420094B33
:100BD000012283F85520074B032283F85620054B4A
:100BE000002283F85720034B0E2283F8582000BFC1
:100BF00008BD00BFB4110010809C2B8F00B5C7B09A
:100C000000238DF813310DF1070202AB114618468F
:100C100007F0E4F946ABA3F588735B78142B00F278
:100C2000208101A252F823F07D0C01009B0C0100F1
:100C3000BF0C0100ED0C0100070D0100970D010034
:100C4000A50D0100B30D0100C10D0100630E0100EF
:100C5000CF0D0100630E0100630E0100F30D0100D2
:100C6000010E01000F0E01001D0E01002B0E0100F0
:100C7000390E0100470E0100550E01008648FDF7B0
:100C8000B1FD8648FDF7AEFD854B93F84E30002B45
:100C900040F0F38008F050FAEFE08248FDF7A2FD43
:100CA0007E48FDF79FFD7E4B9B6C002B04D07C4B58
:100CB0009B6C184607F0DEFB00F0E6F9E0E07A48AE
:100CC000FDF790FD7548FDF78DFD7848FDF78AFD2D
:100CD0007248FDF787FD724B9B6C002B00F0CF80B4
:100CE0006F4B9B6C184607F0C5FBC8E07048FDF7DA
:100CF00079FD6A48FDF776FD6E48FDF773FD67489C
:100D0000FDF770FDBCE06C48FDF76CFD6348FDF736
:100D100069FD46ABA3F58873B3F8FA30DAB2674BD6
:100D20001A70664B1B781A4602AB083319466448A2
:100D3000FBF7E6F946ABA3F58873DB791946614802
:100D4000FDF750FD5D4B1B781A465F495F48FDF784
:100D500049FD0023459315E0459B03F00F03002B4D
:100D600005D1459B002B02D05948FDF73BFD544A65
:100D7000459B13441B7819465648FDF733FD459BA8
:100D8000013345934D4B1B781A46459B9342E3D361
:100D90004F48FDF727FD5048FDF724FD3F48FDF77C
:100DA00021FD6DE04D48FDF71DFD3C48FDF71AFDA6
:100DB00066E04B48FDF716FD3848FDF713FD5FE090
:100DC0004848FDF70FFD3548FDF70CFD58E0464853
:100DD000FDF708FD3148FDF705FD4448FDF702FD2C
:100DE0002E48FDF7FFFC9DF81331184607F0C8FDAB
:100DF00046E03F48FDF7F6FC2848FDF7F3FC3FE0EE
:100E00003C48FDF7EFFC2548FDF7ECFC38E03A489C
:100E1000FDF7E8FC2148FDF7E5FC31E03748FDF738
:100E2000E1FC1E48FDF7DEFC2AE03548FDF7DAFC60
:100E30001A48FDF7D7FC23E03248FDF7D3FC1748EA
:100E4000FDF7D0FC1CE03048FDF7CCFC1348FDF763
:100E5000C9FC15E02D48FDF7C5FC1048FDF7C2FCA4
:100E60000EE046ABA3F588735B7819462848FDF77A
:100E7000B9FC0A48FDF7B6FC02E000BF00E000BF85
:100E800046ABA3F211131B78002B7FF4BCAE00BF5E
:100E900000BF47B05DF804FB18BC030038BC03007A
:100EA000B41100103CBC03005CBC03007CBC03001C
:100EB0009CBC0300BCBC0300D8BC03003B24001056
:100EC0003C240010FCBC030018BD03002CBD030033
:100ED00040BD030044BD03004CBD030070BD0300D2
:100EE00090BD0300B0BD0300D4BD0300F8BD0300F6
:100EF00018BE030038BE030064BE03008CBE0300AE
:100F0000B0BE0300D8BE030004BF030034BF03001B
:100F10005CBF030000B585B04C48FDF763FC4C484E
:100F2000FDF760FC0023002200210020FDF7F2FC09
:100F3000FEF760F8FDF782FFFEF7E0F9FEF7E6F94D
:100F40004449454806F0C6FFFEF7DCF906210020BB
:100F500007F0B8FB0021002007F046FAFFF704FE77
:100F60003E4A6B4692E8030083E803003C4B93F84B
:100F70004E309B0010336B4453F8103C19463948EF
:100F8000FDF730FC3248FDF72DFC3549002007F015
:100F9000CBFA3549002007F08DFA3449002007F0DC
:100FA000FDFA2F4B93F84D30002B29D1012001F091
:100FB00083FC2F48FDF716FC2548FDF713FC284B52
:100FC0001B6A184601F094FC2A49062019F048FFD4
:100FD0000390039B002B05D02748FDF703FC1C481A
:100FE000FDF700FC2549072019F03AFF0390039B09
:100FF000002B05D02248FDF7F5FB1548FDF7F2FB65
:10100000174B93F844301946002007F001FB0346C4
:101010008DF80B309DF80B30002B08D09DF80B306D
:1010200019461848FDF7DEFB0948FDF7DBFB0320F6
:1010300001F0E8FB0A4B93F84C301946002007F00A
:101040000DFD00BF05B05DF804FB00BF78BF0300D5
:1010500038BC0300FD0B01008CFA030044C0030000
:10106000B41100109CBF0300BC110010C41100108B
:10107000B4BF0300D8110010C8BF0300E81100106E
:10108000F0BF030014C0030000B58BB000238DF83F
:1010900027300023039304AB00221A605A609A6041
:1010A000DA601A616B4B1B78012B69D100F02EFAC4
:1010B0009DF827305A1C8DF8272028336B440122D5
:1010C00003F81C2C9DF827305A1C8DF82720283354
:1010D0006B44712203F81C2C5F4BB3F900301B12D8
:1010E0001AB29DF82730591C8DF8271052B22833B8
:1010F0006B4403F81C2C584BB3F900209DF82730A3
:10110000591C8DF8271052B228336B4403F81C2C5D
:10111000514BB3F902301B121AB29DF82730591CFB
:101120008DF8271052B228336B4403F81C2C4A4B1D
:10113000B3F902209DF82730591C8DF8271052B2C0
:1011400028336B4403F81C2C434BB3F904301B12B7
:101150001AB29DF82730591C8DF8271052B2283347
:101160006B4403F81C2C3C4BB3F904209DF827304A
:10117000591C8DF8271052B228336B4403F81C2CED
:10118000364B1B78012B52D100F01CFC9DF8273008
:101190005A1C8DF8272028336B44022203F81C2C9C
:1011A0009DF827305A1C8DF8272028336B4467227E
:1011B00003F81C2C284BB3F906301B121AB29DF809
:1011C0002730591C8DF8271052B228336B4403F88E
:1011D0001C2C214BB3F906209DF82730591C8DF8A3
:1011E000271052B228336B4403F81C2C9DF827308B
:1011F0005A1C8DF8272028336B44022203F81C2C3C
:101200009DF827305A1C8DF8272028336B4468221C
:1012100003F81C2C104BB3F908209DF82730591CFB
:101220008DF8271052B228336B4403F81C2C9DF81C
:101230002730002B09D003AA9DF8273000931346CE
:1012400001220121002007F0AEFB00BF0BB05DF8CA
:1012500004FB00BF54250010402500105525001048
:1012600008B51C49022028F08FF80346002B1AD13C
:10127000184B1B6800220021184628F019F9034674
:10128000002B10D1134B1B681349184628F0F2F9B4
:101290000346002B07D10F4B1B68184628F09CF81B
:1012A0000346002B03D00D48FDF79CFAFEE70C4BDC
:1012B0001968192027F072FD0A4B19681B2027F0C6
:1012C0006DFD0948FDF78EFA00F0ECF800F0D6FA53
:1012D00000BF08BD3C250010101200104CC00300D8
:1012E00088FB03008CFB03006CC0030000B591B0C9
:1012F0000390029101928DF8033001230693039B22
:10130000079301238DF82430019B0893029B0B93D4
:1013100000238DF8303000238DF8313000230D93F9
:1013200000230E939DF803300593094B1B6805AA13
:101330001146184628F0F2FA03460F930F9B002B34
:1013400001D0002300E00123184611B05DF804FB32
:101350003C25001000B591B00390029101928DF8E8
:10136000033001230693039B079300238DF8243059
:10137000019B0893029B0A9300238DF830300023D1
:101380008DF8313000230D9300230E939DF8033028
:1013900005930B4B1B6805AA1146184628F0BEFAA8
:1013A00003460F930F9B002B04D00648FDF71AFA53
:1013B000002300E00123184611B05DF804FB00BFD4
:1013C0003C25001080C0030000B591B0039002914D
:1013D00013468DF80730002306930023079301235B
:1013E0008DF82430029B0893039B0B9300238DF808
:1013F000303000238DF8313000230D9300230E93FD
:101400009DF8073005930B4B1B6805AA114618463B
:1014100028F084FA03460F930F9B002B04D0064854
:10142000FDF7E0F9002300E00123184611B05DF854
:1014300004FB00BF3C25001080C0030000B591B044
:101440000390029113468DF8073000230693002382
:10145000079300238DF82430029B0893039B0A9383
:1014600000238DF8303000238DF8313000230D93A8
:1014700000230E939DF807300593094B1B6805AABE
:101480001146184628F04AFA03460F930F9B002B8B
:1014900001D0002300E00123184611B05DF804FBE1
:1014A0003C25001000B58DB001AB28220021184664
:1014B0001DF04AFA0F230B9301A9182301220B9860
:1014C000FFF714FF034683F00103DBB2002B13D1B7
:1014D000019B332B12D1019B19460A48FDF782F973
:1014E000094B01221A7000F033F800F05BF800F0AD
:1014F00084F800F0B8F802E000BF00E000BF0DB0D3
:101500005DF804FBA8C003005425001000B58DB0A1
:1015100001AB2822002118461DF016FA0F230B9369
:1015200027230B9301A9182301220B98FFF7DEFE56
:101530000346002B08D0019BDBB203F00803DBB2AB
:10154000002B01D000F0B6F800BF0DB05DF804FB31
:1015500000B585B0002303932323029301A9182328
:1015600001220298FFF7C2FE034683F00103DBB2BB
:10157000002B12D0019B43F08003019301A9182393
:1015800001220298FFF7E6FE0346002B05D001A9D1
:10159000182301220298FFF7A9FE039B184605B005
:1015A0005DF804FB00B585B000230393202302936C
:1015B00001A9182301220298FFF798FE0346002B89
:1015C00016D0019B03F00F030193019B43F010031E
:1015D000019301A9182301220298FFF7BBFE0346DD
:1015E000002B05D001A9182301220298FFF77EFEE7
:1015F000039B184605B05DF804FB00B585B00023D9
:1016000003932023029301A9182301220298FFF7D4
:101610006DFE0346002B21D0019B23F008030193AC
:1016200001A9182301220298FFF794FE0346002B1C
:1016300014D02323029301A9182301220298FFF753
:1016400055FE0346002B09D0019B43F0080301938C
:1016500001A9182301220298FFF77CFE039B18467C
:1016600005B05DF804FB00B585B000230393232388
:10167000029301A9182301220298FFF737FE0346BF
:10168000002B12D0019B23F03003019301A91823F2
:1016900001220298FFF75EFE0346002B05D001A948
:1016A000182301220298FFF721FE039B184605B07C
:1016B0005DF804FB00B585B02823039301A9182326
:1016C00001220398FFF712FE0346002B00F08F80E3
:1016D0002923039301AB191D182301220398FFF757
:1016E00005FE0346002B00F08580029B9BB21B0287
:1016F0009AB2019B9BB213439BB21AB2404B1A8021
:101700003F4BB3F90030002B00DA0F331B111AB234
:101710003B4B1A802A23039301A918230122039823
:10172000FFF7E4FD0346002B64D02B23039301ABAA
:10173000191D182301220398FFF7D8FD0346002B3B
:1017400058D0029B9BB21B029AB2019B9BB21343DF
:101750009BB21AB22A4B5A80294BB3F90230002BA4
:1017600000DA0F331B111AB2254B5A802C23039336
:1017700001A9182301220398FFF7B8FD0346002BA7
:1017800038D02D23039301AB191D18230122039890
:10179000FFF7ACFD0346002B2CD0029B9BB21B0233
:1017A0009AB2019B9BB213439BB21AB2144B9A801C
:1017B000134BB3F90430002B00DA0F331B111AB2AC
:1017C0000F4B9A800F48FDF70DF80D4BB3F9003021
:1017D00019460B4BB3F902301A46094BB3F90430E2
:1017E0000948FCF7FFFF0748FCF7FCFF02E0074849
:1017F000FCF7F8FF00BF184605B05DF804FB00BF1A
:1018000040250010BCC0030004C103003CC103001C
:1018100000B585B00346029101928DF80F309DF816
:101820000F301A4601990298FFF708FE034683F02D
:101830000103DBB2002B01D0012300E00023184696
:1018400005B05DF804FB00B585B003460291019236
:101850008DF80F309DF80F301A4601990298FFF766
:10186000B3FD034683F00103DBB2002B01D001235B
:1018700000E00023184605B05DF804FB00B589B010
:1018800070238DF800303E4B02933E4B01933E4B4C
:1018900003936B460FCB00F0FDF800F061F9079061
:1018A000079B002B67D13948FCF79CFF00F06AF9D1
:1018B0000790079B002B03D03548FCF793FF5BE0B4
:1018C000344827F025FA0DF11A03184600F027F9DD
:1018D0000790079B002B0FD1BDF81A3019462E48F0
:1018E000FCF780FF2D48FCF77DFF00F039F90790E9
:1018F000079B002B07D003E02948FCF773FF3BE070
:101900002848FCF76FFF284827F002FA2348FCF725
:1019100069FF04AA05AB1146184600F0CDF8079000
:10192000079B002B18D1059B1846FBF72DF80246A4
:101930000B461E48FCF756FF049B1846FBF724F89D
:1019400002460B461A48FCF74DFF00F0FCF80790E2
:10195000079B002B0BD00FE0079B012B01D1154BF0
:1019600000E0154B19461548FCF73CFF04E0144B0A
:1019700001221A7000E000BF09B05DF804FB00BF4F
:101980001118010047180100118D030058C1030010
:1019900068C10300006A180084C10300B0C10300DD
:1019A00098C10300C4C10300006CDC02DCC1030069
:1019B000F0C1030000C203000CC203001CC20300FC
:1019C0005525001000B585B0002303934FF00003A8
:1019D00002934FF00003019300F0C2F80390039BC1
:1019E000002B45D1254827F093F92548FCF7FAFE4E
:1019F00001AA02AB1146184600F05EF80390039B63
:101A0000002B37D11F48FCF7EDFE029B1846FAF772
:101A1000BBFF02460B461C48FCF7E4FE019B184640
:101A2000FAF7B2FF02460B461848FCF7DBFE1548F2
:101A3000FCF7D8FEDDED027AB2EE047A67EE877A23
:101A4000FDEEE77A17EE903A1AB2114BDA80DDED2F
:101A5000017A77EEA77AFDEEE77A17EE903A1AB29E
:101A60000B4B1A8100F06FF80390039B002B02E0F0
:101A700000BF00E000BF05B05DF804FB006CDC02B5
:101A8000B0C1030034C20300DCC10300F0C1030095
:101A90004025001010B485B06C4684E80F00054B5B
:101AA0001C466B460FCB84E80F0000BF05B05DF805
:101AB000044B70475825001000B585B00190009187
:101AC00047F6A24000F06AF80390039B002B0AD16E
:101AD00002AA0DF10A031146184600F0B5F80246B5
